BL51 BANKED LINKER/LOCATER V6.22                                                        11/10/2016  11:34:07  PAGE 1


BL51 BANKED LINKER/LOCATER V6.22, INVOKED BY:
E:\KEILC51\C51\BIN\BL51.EXE main.obj, delay.obj TO UART1 RAMSIZE (256)


MEMORY MODEL: COMPACT


INPUT MODULES INCLUDED:
  main.obj (MAIN)
  delay.obj (DELAY)
  E:\KEILC51\C51\LIB\C51C.LIB (?C_STARTUP)
  E:\KEILC51\C51\LIB\C51C.LIB (?C?COPY)
  E:\KEILC51\C51\LIB\C51C.LIB (?C?CLDPTR)
  E:\KEILC51\C51\LIB\C51C.LIB (STRSTR)
  E:\KEILC51\C51\LIB\C51C.LIB (?C_INIT)


LINK MAP OF MODULE:  UART1 (MAIN)


            TYPE    BASE      LENGTH    RELOCATION   SEGMENT NAME
            -----------------------------------------------------

            * * * * * * *   D A T A   M E M O R Y   * * * * * * *
            REG     0000H     0008H     ABSOLUTE     "REG BANK 0"
                    0008H     0018H                  *** GAP ***
            DATA    0020H     0001H     BIT_ADDR     ?BA?MAIN
            IDATA   0021H     0001H     UNIT         ?STACK

            * * * * * * *  X D A T A   M E M O R Y  * * * * * * *
            XDATA   0000H     0001H     INPAGE       ?PD?CHECK_NEW_MESSAGE?MAIN
            XDATA   0001H     0008H     INPAGE       ?PD?MAIN
            XDATA   0009H     0001H     INPAGE       ?PD?DELAY
            XDATA   000AH     0038H     INPAGE       _PDATA_GROUP_
            XDATA   0042H     003CH     UNIT         ?XD?MAIN

            * * * * * * *   C O D E   M E M O R Y   * * * * * * *
            CODE    0000H     0003H     ABSOLUTE     
                    0003H     0008H                  *** GAP ***
            CODE    000BH     0003H     ABSOLUTE     
            CODE    000EH     0015H     UNIT         ?C_INITSEG
            CODE    0023H     0003H     ABSOLUTE     
            CODE    0026H     010FH     UNIT         ?C?LIB_CODE
            CODE    0135H     0103H     UNIT         ?PR?WAIT_CREG?MAIN
            CODE    0238H     00C3H     UNIT         ?CO?MAIN
            CODE    02FBH     00B9H     UNIT         ?PR?_STRSTR?STRSTR
            CODE    03B4H     008CH     UNIT         ?C_C51STARTUP
            CODE    0440H     008AH     UNIT         ?PR?_SECOND_AT_COMMAND?MAIN
            CODE    04CAH     0061H     UNIT         ?PR?SET_PDU_MODE?MAIN
            CODE    052BH     005CH     UNIT         ?PR?TIMER0_ISR?MAIN
            CODE    0587H     005AH     UNIT         ?PR?CHECK_NEW_MESSAGE?MAIN
            CODE    05E1H     003CH     UNIT         ?PR?UART1_INT?MAIN
            CODE    061DH     0034H     UNIT         ?PR?_UART1_SENDSTRING?MAIN
            CODE    0651H     0031H     UNIT         ?PR?_FIND?MAIN
            CODE    0682H     002CH     UNIT         ?PR?SEND_MESSAGE?MAIN
            CODE    06AEH     0029H     UNIT         ?PR?USART1_INIT?MAIN
            CODE    06D7H     0017H     UNIT         ?PR?MAIN?MAIN
            CODE    06EEH     0016H     UNIT         ?PR?TIMER0INIT?MAIN
BL51 BANKED LINKER/LOCATER V6.22                                                      11/10/2016  11:34:07  PAGE 2


            CODE    0704H     0011H     UNIT         ?PR?CLR_BUF1?MAIN
            CODE    0715H     000CH     UNIT         ?PR?_UART1_SENDDATA?MAIN
            CODE    0721H     000AH     UNIT         ?PR?_DELAY_MS?DELAY



OVERLAY MAP OF MODULE:   UART1 (MAIN)


SEGMENT                               PDATA_GROUP
  +--> CALLED SEGMENT               START    LENGTH
---------------------------------------------------
?C_C51STARTUP                       -----    -----
  +--> ?PR?MAIN?MAIN
  +--> ?C_INITSEG

?PR?MAIN?MAIN                       -----    -----
  +--> ?PR?USART1_INIT?MAIN
  +--> ?PR?TIMER0INIT?MAIN
  +--> ?PR?WAIT_CREG?MAIN
  +--> ?PR?SET_PDU_MODE?MAIN
  +--> ?PR?SEND_MESSAGE?MAIN

?PR?WAIT_CREG?MAIN                  000AH    0002H
  +--> ?PR?CLR_BUF1?MAIN
  +--> ?CO?MAIN
  +--> ?PR?_UART1_SENDSTRING?MAIN
  +--> ?PR?_UART1_SENDDATA?MAIN
  +--> ?PR?_DELAY_MS?DELAY

?PR?_UART1_SENDSTRING?MAIN          000CH    0003H
  +--> ?PR?_UART1_SENDDATA?MAIN

?PR?SET_PDU_MODE?MAIN               000AH    001EH
  +--> ?CO?MAIN
  +--> ?PR?_SECOND_AT_COMMAND?MAIN

?PR?_SECOND_AT_COMMAND?MAIN         0028H    000BH
  +--> ?PR?CLR_BUF1?MAIN
  +--> ?PR?_FIND?MAIN
  +--> ?PR?_UART1_SENDDATA?MAIN

?PR?_FIND?MAIN                      0033H    0003H
  +--> ?PR?_STRSTR?STRSTR

?PR?_STRSTR?STRSTR                  0036H    000CH

?PR?SEND_MESSAGE?MAIN               -----    -----
  +--> ?CO?MAIN
  +--> ?PR?_SECOND_AT_COMMAND?MAIN
  +--> ?PR?_UART1_SENDSTRING?MAIN
  +--> ?PR?_UART1_SENDDATA?MAIN

?C_INITSEG                          -----    -----
  +--> ?CO?MAIN


BL51 BANKED LINKER/LOCATER V6.22                                                      11/10/2016  11:34:07  PAGE 3



SYMBOL TABLE OF MODULE:  UART1 (MAIN)

  VALUE           TYPE          NAME
  ----------------------------------

  -------         MODULE        MAIN
  C:0000H         SYMBOL        _ICE_DUMMY_
  D:0080H         PUBLIC        P0
  D:0090H         PUBLIC        P1
  D:00A0H         PUBLIC        P2
  C:0651H         PUBLIC        _Find
  D:00B0H         PUBLIC        P3
  C:052BH         PUBLIC        Timer0_ISR
  D:00C0H         PUBLIC        P4
  X:0002H         PUBLIC        Times
  D:00C8H         PUBLIC        P5
  B:00A8H.7       PUBLIC        EA
  D:00A2H         PUBLIC        P_SW1
  D:00A8H         PUBLIC        IE
  C:0704H         PUBLIC        CLR_Buf1
  C:0587H         PUBLIC        Check_New_Message
  B:0090H.3       PUBLIC        LEDA
  X:0003H         PUBLIC        First_Int
  B:0090H.0       PUBLIC        LEDB
  B:00A8H.4       PUBLIC        ES
  B:0090H.5       PUBLIC        LEDC
  D:00B8H         PUBLIC        IP
  C:0135H         PUBLIC        Wait_CREG
  B:00B0H.3       PUBLIC        KEY1
  B:0098H.0       PUBLIC        RI
  C:05E1H         PUBLIC        UART1_int
  B:0098H.1       PUBLIC        TI
  D:00D8H         PUBLIC        CCON
  C:06D7H         PUBLIC        main
  X:0004H         PUBLIC        Register_Flag
  D:0099H         PUBLIC        SBUF
  D:0098H         PUBLIC        SCON
  D:0089H         PUBLIC        TMOD
  D:0088H         PUBLIC        TCON
  C:0682H         PUBLIC        Send_Message
  C:06AEH         PUBLIC        USART1_Init
  D:00F0H         PUBLIC        B
  D:008EH         PUBLIC        AUXR
  C:02DDH         SYMBOL        _?ix1000
  B:0020H.0       PUBLIC        Timer0_start
  D:00E0H         PUBLIC        ACC
  B:00A8H.1       PUBLIC        ET0
  B:0088H.5       PUBLIC        TF0
  C:06EEH         PUBLIC        Timer0Init
  D:008CH         PUBLIC        TH0
  X:0042H         PUBLIC        Uart1_Buf
  D:00D6H         PUBLIC        TH2
  D:008AH         PUBLIC        TL0
  D:00D7H         PUBLIC        TL2
  B:0088H.4       PUBLIC        TR0
  C:061DH         PUBLIC        _UART1_SendString
BL51 BANKED LINKER/LOCATER V6.22                                                      11/10/2016  11:34:07  PAGE 4


  C:0715H         PUBLIC        _UART1_SendData
  C:04CAH         PUBLIC        Set_PDU_Mode
  B:0098H.4       PUBLIC        REN
  X:0005H         SYMBOL        message
  X:0008H         PUBLIC        shijian
  C:0440H         PUBLIC        _Second_AT_Command
  D:00D0H         PUBLIC        PSW
  D:0020H         PUBLIC        Flag
  -------         PROC          MAIN
  C:06D7H         LINE#         81
  C:06D7H         LINE#         82
  C:06D7H         LINE#         83
  C:06DAH         LINE#         84
  C:06DDH         LINE#         85
  C:06E0H         LINE#         86
  C:06E3H         LINE#         88
  C:06E3H         LINE#         89
  C:06E3H         LINE#         90
  C:06E6H         LINE#         91
  C:06E6H         LINE#         92
  C:06E9H         LINE#         93
  -------         ENDPROC       MAIN
  -------         PROC          UART1_INT
  C:05E1H         LINE#         100
  C:05EEH         LINE#         102
  C:05F1H         LINE#         103
  C:05F1H         LINE#         104
  C:05F3H         LINE#         105
  C:0602H         LINE#         106
  C:0605H         LINE#         107
  C:060BH         LINE#         108
  C:060BH         LINE#         109
  C:060DH         LINE#         110
  C:060DH         LINE#         111
  C:060DH         LINE#         112
  C:0610H         LINE#         113
  C:0610H         LINE#         114
  C:0612H         LINE#         115
  C:0612H         LINE#         116
  -------         ENDPROC       UART1_INT
  -------         PROC          USART1_INIT
  C:06AEH         LINE#         118
  C:06AEH         LINE#         119
  C:06AEH         LINE#         120
  C:06B6H         LINE#         122
  C:06BEH         LINE#         124
  C:06C1H         LINE#         125
  C:06C4H         LINE#         126
  C:06C7H         LINE#         127
  C:06CAH         LINE#         128
  C:06CDH         LINE#         129
  C:06D0H         LINE#         131
  C:06D2H         LINE#         132
  C:06D4H         LINE#         134
  C:06D6H         LINE#         137
  -------         ENDPROC       USART1_INIT
  -------         PROC          TIMER0INIT
BL51 BANKED LINKER/LOCATER V6.22                                                      11/10/2016  11:34:07  PAGE 5


  C:06EEH         LINE#         148
  C:06EEH         LINE#         149
  C:06EEH         LINE#         150
  C:06F1H         LINE#         151
  C:06F4H         LINE#         152
  C:06F7H         LINE#         153
  C:06FAH         LINE#         154
  C:06FDH         LINE#         155
  C:06FFH         LINE#         156
  C:0701H         LINE#         157
  C:0703H         LINE#         158
  -------         ENDPROC       TIMER0INIT
  -------         PROC          CLR_BUF1
  -------         DO            
  D:0006H         SYMBOL        k
  -------         ENDDO         
  C:0704H         LINE#         168
  C:0704H         LINE#         169
  C:0704H         LINE#         171
  C:0706H         LINE#         172
  C:0706H         LINE#         173
  C:0710H         LINE#         174
  C:0710H         LINE#         175
  C:0714H         LINE#         176
  -------         ENDPROC       CLR_BUF1
  -------         PROC          _FIND
  X:0033H         SYMBOL        a
  C:0651H         LINE#         189
  C:065BH         LINE#         190
  C:065BH         LINE#         191
  C:067CH         LINE#         192
  C:067FH         LINE#         194
  C:0681H         LINE#         195
  -------         ENDPROC       _FIND
  -------         PROC          _SECOND_AT_COMMAND
  X:0028H         SYMBOL        b
  X:002BH         SYMBOL        a
  X:002EH         SYMBOL        wait_time
  -------         DO            
  X:002FH         SYMBOL        i
  X:0030H         SYMBOL        c
  -------         ENDDO         
  C:0440H         LINE#         206
  C:044AH         LINE#         207
  C:044AH         LINE#         210
  C:0454H         LINE#         211
  C:0457H         LINE#         212
  C:045BH         LINE#         213
  C:0460H         LINE#         214
  C:0460H         LINE#         216
  C:0470H         LINE#         217
  C:0470H         LINE#         218
  C:0473H         LINE#         219
  C:0473H         LINE#         220
  C:0486H         LINE#         221
  C:0496H         LINE#         222
  C:0496H         LINE#         223
BL51 BANKED LINKER/LOCATER V6.22                                                      11/10/2016  11:34:07  PAGE 6


  C:0499H         LINE#         224
  C:04A6H         LINE#         225
  C:04B0H         LINE#         226
  C:04B4H         LINE#         227
  C:04BAH         LINE#         228
  C:04BCH         LINE#         229
  C:04BCH         LINE#         230
  C:04BEH         LINE#         232
  C:04BEH         LINE#         233
  C:04C3H         LINE#         234
  C:04C5H         LINE#         235
  C:04C5H         LINE#         236
  C:04C7H         LINE#         237
  -------         ENDPROC       _SECOND_AT_COMMAND
  -------         PROC          SET_PDU_MODE
  -------         DO            
  X:000AH         SYMBOL        buf
  -------         ENDDO         
  C:04CAH         LINE#         247
  C:04CAH         LINE#         248
  C:04CAH         LINE#         249
  C:04DDH         LINE#         250
  C:04F7H         LINE#         251
  C:0511H         LINE#         252
  -------         ENDPROC       SET_PDU_MODE
  -------         PROC          SEND_MESSAGE
  C:0682H         LINE#         266
  C:0682H         LINE#         267
  C:0682H         LINE#         269
  C:069CH         LINE#         270
  C:06A9H         LINE#         271
  -------         ENDPROC       SEND_MESSAGE
  -------         PROC          CHECK_NEW_MESSAGE
  -------         DO            
  X:0000H         SYMBOL        temp
  -------         ENDDO         
  C:0587H         LINE#         283
  C:0587H         LINE#         284
  C:0587H         LINE#         285
  C:058BH         LINE#         286
  C:05A6H         LINE#         287
  C:05A6H         LINE#         288
  C:05ADH         LINE#         289
  C:05C3H         LINE#         290
  C:05C3H         LINE#         291
  C:05C3H         LINE#         293
  C:05C6H         LINE#         294
  C:05E0H         LINE#         295
  C:05E0H         LINE#         296
  -------         ENDPROC       CHECK_NEW_MESSAGE
  -------         PROC          WAIT_CREG
  -------         DO            
  X:000AH         SYMBOL        i
  X:000BH         SYMBOL        k
  -------         ENDDO         
  C:0135H         LINE#         306
  C:0135H         LINE#         307
BL51 BANKED LINKER/LOCATER V6.22                                                      11/10/2016  11:34:07  PAGE 7


  C:0135H         LINE#         310
  C:0139H         LINE#         311
  C:013CH         LINE#         312
  C:0144H         LINE#         313
  C:0144H         LINE#         315
  C:0147H         LINE#         316
  C:0150H         LINE#         317
  C:015AH         LINE#         318
  C:0161H         LINE#         320
  C:016EH         LINE#         321
  C:016EH         LINE#         322
  C:01C4H         LINE#         323
  C:01C4H         LINE#         325
  C:01E3H         LINE#         326
  C:01E3H         LINE#         327
  C:01E7H         LINE#         328
  C:01EAH         LINE#         329
  C:01ECH         LINE#         330
  C:01EFH         LINE#         331
  C:01EFH         LINE#         332
  C:0203H         LINE#         333
  C:0203H         LINE#         334
  C:0207H         LINE#         335
  C:020CH         LINE#         336
  C:020EH         LINE#         337
  C:0211H         LINE#         338
  C:0211H         LINE#         339
  C:0221H         LINE#         340
  C:0221H         LINE#         341
  C:0225H         LINE#         342
  C:022AH         LINE#         343
  C:022CH         LINE#         344
  C:022FH         LINE#         345
  C:022FH         LINE#         347
  C:022FH         LINE#         348
  C:0237H         LINE#         350
  C:0237H         LINE#         351
  -------         ENDPROC       WAIT_CREG
  -------         PROC          _UART1_SENDDATA
  D:0007H         SYMBOL        dat
  C:0715H         LINE#         358
  C:0715H         LINE#         359
  C:0715H         LINE#         360
  C:0717H         LINE#         361
  C:0719H         LINE#         362
  C:071CH         LINE#         363
  C:071EH         LINE#         364
  C:0720H         LINE#         365
  -------         ENDPROC       _UART1_SENDDATA
  -------         PROC          _UART1_SENDSTRING
  X:000CH         SYMBOL        s
  C:061DH         LINE#         369
  C:0627H         LINE#         370
  C:0627H         LINE#         371
  C:0636H         LINE#         372
  C:0636H         LINE#         373
  C:064EH         LINE#         374
BL51 BANKED LINKER/LOCATER V6.22                                                      11/10/2016  11:34:07  PAGE 8


  C:0650H         LINE#         375
  -------         ENDPROC       _UART1_SENDSTRING
  -------         PROC          TIMER0_ISR
  -------         DO            
  X:0001H         SYMBOL        Time_count
  -------         ENDDO         
  C:052BH         LINE#         387
  C:0538H         LINE#         390
  C:053AH         LINE#         391
  C:053DH         LINE#         392
  C:0540H         LINE#         396
  C:0545H         LINE#         397
  C:054BH         LINE#         398
  C:054BH         LINE#         399
  C:054DH         LINE#         400
  C:0552H         LINE#         401
  C:0555H         LINE#         402
  C:0555H         LINE#         404
  C:0558H         LINE#         405
  C:055DH         LINE#         406
  C:0574H         LINE#         407
  C:0574H         LINE#         408
  C:0576H         LINE#         409
  C:057AH         LINE#         410
  C:057AH         LINE#         411
  C:057CH         LINE#         412
  -------         ENDPROC       TIMER0_ISR
  -------         ENDMOD        MAIN

  -------         MODULE        DELAY
  C:0000H         SYMBOL        _ICE_DUMMY_
  D:0080H         PUBLIC        P0
  D:0090H         PUBLIC        P1
  D:00A0H         PUBLIC        P2
  D:00B0H         PUBLIC        P3
  D:00C0H         PUBLIC        P4
  D:00C8H         PUBLIC        P5
  D:00A8H         PUBLIC        IE
  D:00B8H         PUBLIC        IP
  D:00D8H         PUBLIC        CCON
  D:0098H         PUBLIC        SCON
  D:0088H         PUBLIC        TCON
  D:00F0H         PUBLIC        B
  D:00E0H         PUBLIC        ACC
  X:0009H         PUBLIC        count_20ms
  C:0721H         PUBLIC        _delay_ms
  D:00D0H         PUBLIC        PSW
  -------         PROC          _DELAY_MS
  D:0006H         SYMBOL        ms
  C:0721H         LINE#         13
  C:0721H         LINE#         14
  C:0721H         LINE#         15
  C:0725H         LINE#         16
  C:072AH         LINE#         17
  -------         ENDPROC       _DELAY_MS
  -------         ENDMOD        DELAY

BL51 BANKED LINKER/LOCATER V6.22                                                      11/10/2016  11:34:07  PAGE 9


  -------         MODULE        ?C?COPY
  C:00F6H         PUBLIC        ?C?COPY
  -------         ENDMOD        ?C?COPY

  -------         MODULE        ?C?CLDPTR
  C:011CH         PUBLIC        ?C?CLDPTR
  -------         ENDMOD        ?C?CLDPTR

  -------         MODULE        STRSTR
  X:0036H         PUBLIC        ?_strstr?BYTE
  C:02FBH         PUBLIC        _strstr
  -------         ENDMOD        STRSTR

*** WARNING L16: UNCALLED SEGMENT, IGNORED FOR OVERLAY PROCESS
    SEGMENT: ?PR?CHECK_NEW_MESSAGE?MAIN

Program Size: data=10.0 xdata=126 code=1827
LINK/LOCATE RUN COMPLETE.  1 WARNING(S),  0 ERROR(S)
