:100D5400EE3E9C7A9E8EF66E20700E1C3ACEE60A0B
:020D8400C106A6
:03000300020D816A
:030D8100D2063265
:040CA2007F647E00ED
:100CA600758CDCE4F58AD28C308DFDC28DC28CEF5A
:090CB6001F70011E144E70E822AB
:0D0D7400120D437589017F1E7E00020CA642
:100D1300E4F50BC202C203750F1FAF0B120CDC0507
:080D23000BE50BC3940840EB43
:010D2B0022A5
:100ABF00E4F508E4F509E5092410F50AE508900DB9
:100ACF005493F50BFDAF0A120C810509E509C39488
:100ADF000840E37F327E00120CA60508E508C39498
:030AEF001040D0E4
:010AF20022E1
:1009D400D200C201750908E4F508A2009202A2013E
:1009E400920385090FAF08120CDC0508E508C394CF
:1009F4000840E7120CA2C200C201E4F509E4F508BC
:100A0400A2009202A201920385090FAF08120CDC26
:100A14000508E508C3940840E77F327E00120CA65F
:0B0A24000509C3E509648094A040D2DE
:010A2F0022A4
:100AF300E4F508D202C203750F08AF08120CDC0537
:100B030008E508C3940840EB120CA2E4F508AD080D
:100B13007F0D120C81120CA20508E508C39408404E
:010B2300EDE4
:010B240022AE
:10097600750801E4F509C202C20385090FAF091221
:100986000CDC0509E509C3940840EB7D117F0C12C8
:100996000C81E4F509AD087F70120BFAE50825E035
:1009A600F5087F2C7E01120CA60509E509C39408FB
:1009B60040E37DFF7F70120BFA7F5E7E01120CA66C
:0E09C600E4FD7F70120BFA7F327E00020CA659
:100A7B00120D13120CA2E4F508D200AF08120D648C
:100A8B007F1E7E00120CA60508E508C3944040E9C2
:100A9B00120CA2E4F508C200AF08120D647F1E7E93
:100AAB0000120CA60508E508C3944040E97F647E5C
:040ABB0000020CA683
:040B25008F0B8D0C99
:100B2900E50C75F00A84F50DC202C203F50F120C2B
:100B3900DCE50D75F00AA4FFC3E50C9FF50DE50B87
:0C0B490004FFC202C203850D0F020CDC89
:040B55008F0B8D0C69
:100B5900E50CC4540FF50DC202C203F50F120CDCEB
:100B6900E50DC454F0FFC3E50C9FF50DE50B04FF3B
:0A0B7900C202C203850D0F020CDC5E
:100A3000120D13C2AFD288D2A8D2AF300638C20688
:100A40007B007A0079087F01120C1D7B007A007907
:100A5000097F02120C1D7B007A00790A7F03120CB9
:100A60001DAD08E4FF120B25AD097F03120B55AD38
:0B0A70000A7F06120B5543870180C06F
:100D2C00120D74120ABF1209D4120AF312097612A8
:070D3C000A7B120A3080FE61
:100D4300D296751E0CD51EFDD297751E0CD51EFDB1
:010D5300227D
:100C3F00D297751E0CD51EFDD296751E0CD51EFDB6
:100C4F00C297751E0CD51EFDC296751E0CD51EFDC6
:010C5F002272
:100CBF007E08EF339297EF25E0FFD296751E0CD585
:0C0CCF001EFDC296751E0CD51EFDDEE653
:010CDB0022F6
:100C60007E08D297D296751E0CD51EFDEF25E0FFAB
:100C7000309703430701C296751E0CD51EFDDEE4B6
:010C80002251
:070BAE002DF8E6FF120CBF59
:100BB500D297751E0CD51EFDD296751E0CD51EFD41
:0E0BC500A2979205C296751E0CD51EFDA205C4
:010BD30022FF
:100CF800A2019297751E0CD51EFDD296751E0CD5B5
:0B0D08001EFDC296751E0CD51EFD22BC
:100BD4007F787E00C297751E0CD51EFDD296751EB9
:100BE4000CD51EFDD297751E0CD51EFDEF1F70018E
:050BF4001E144E70F715
:010BF90022D9
:10090900E51A45197002C322EF25E0F51BEBD394D4
:100919000240027B02EB24FE60070470088D1C80F4
:10092900048C1C8D1D0B120C3FE4FDEDC39B500D77
:10093900741B120BAE5003020BD40D80EEAB1605DF
:1009490018E518AA177002051714F9120B83120B70
:10095900B1400DE51A151A7002151914451970DD03
:0C096900120BD4E51A45197002C322D30A
:01097500225F
:10088C00E51645157002C322EF25E0F517EBD3945E
:10089C000240027B02EB6022BB01048D1880048CA9
:1008AC00188D190B120C3FE4FDEDC39B500C741703
:1008BC00120BAE5002800E0D80EF120C3FE51704A8
:1008CC00120BB15003020BD4120C60AB120514E5E1
:1008DC0014AA137002051314F9EF120B9CE51615EC
:1008EC0016700215151445157007D201120CF880FC
:0C08FC0007C201120CF880D0120BD4C30C
:0109080022CC
:020C81008D0CD8
:100C8300EFFD7C0075160075170075180C751900BB
:0E0C9300751A017B017F381209099200A20038
:010CA1002230
:060C1D008B0B8A0C890D0F
:100C2300EFFD7C008B128A1389147515007516016C
:0B0C33007B017F3812088C9200A200A9
:010C3E002293
:100BFA008F108D117516007517007518107519006C
:100C0A00751A027B017D077C007F3812090992045C
:020C1A00A20432
:010C1C0022B5
:0F0D6400EF543FFD3000034305807F01120BFA6F
:010D7300225D
:100CDC00EF540FFF430760E50F541FFD3002034331
:0B0CEC000580300303430540120BFAA3
:010CF70022DA
:03000000020800F3
:0C080000787FE4F6D8FD758120020847DF
:100B8300BB010689828A83E0225002E722BBFE0270
:090B9300E32289828A83E49322A3
:100B9C00BB010689828A83F0225002F722BBFE0138
:020BAC00F32232
:10080C00020D2CE493A3F8E493A34003F68001F2C9
:10081C0008DFF48029E493A3F85407240CC8C333ED
:10082C00C4540F4420C8834004F456800146F6DFBC
:10083C00E4800B0102040810204080900D84E47EBB
:10084C00019360BCA3FF543F30E509541FFEE493B1
:10085C00A360010ECF54C025E060A840B8E493A378
:10086C00FAE493A3F8E493A3C8C582C8CAC583CAA3
:10087C00F0A3C8C582C8CAC583CADFE9DEE780BE5B
:010D8600006C
:00000001FF
