BL51 BANKED LINKER/LOCATER V5.03                                                        01/10/2006  10:58:23  PAGE 1


BL51 BANKED LINKER/LOCATER V5.03, INVOKED BY:
C:\KEIL\C51\BIN\BL51.EXE ZLG7290Demo.obj, I2C.obj, ZLG7290.obj TO ZLG7290Demo RAMSIZE (256)


MEMORY MODEL: SMALL


INPUT MODULES INCLUDED:
  ZLG7290Demo.obj (ZLG7290DEMO)
  I2C.obj (I2C)
  ZLG7290.obj (ZLG7290)
  C:\KEIL\C51\LIB\C51S.LIB (?C_STARTUP)
  C:\KEIL\C51\LIB\C51S.LIB (?C?CLDPTR)
  C:\KEIL\C51\LIB\C51S.LIB (?C?CSTPTR)
  C:\KEIL\C51\LIB\C51S.LIB (?C_INIT)


LINK MAP OF MODULE:  ZLG7290Demo (ZLG7290DEMO)


            TYPE    BASE      LENGTH    RELOCATION   SEGMENT NAME
            -----------------------------------------------------

            * * * * * * *   D A T A   M E M O R Y   * * * * * * *
            REG     0000H     0008H     ABSOLUTE     "REG BANK 0"
            DATA    0008H     0016H     UNIT         _DATA_GROUP_
            DATA    001EH     0001H     UNIT         ?DT?I2C
                    001FH     0001H                  *** GAP ***
            BIT     0020H.0   0000H.6   UNIT         _BIT_GROUP_
            BIT     0020H.6   0000H.1   UNIT         ?BI?ZLG7290DEMO
                    0020H.7   0000H.1                *** GAP ***
            IDATA   0021H     0001H     UNIT         ?STACK

            * * * * * * *   C O D E   M E M O R Y   * * * * * * *
            CODE    0000H     0003H     ABSOLUTE     
            CODE    0003H     0003H     ABSOLUTE     
                    0006H     07FAH                  *** GAP ***
            CODE    0800H     008CH     UNIT         ?C_C51STARTUP
            CODE    088CH     007DH     UNIT         ?PR?_I2C_GETS?I2C
            CODE    0909H     006DH     UNIT         ?PR?_I2C_PUTS?I2C
            CODE    0976H     005EH     UNIT         ?PR?TEST_FLASH?ZLG7290DEMO
            CODE    09D4H     005CH     UNIT         ?PR?TEST_DOWNLOAD?ZLG7290DEMO
            CODE    0A30H     004BH     UNIT         ?PR?TEST_KEY?ZLG7290DEMO
            CODE    0A7BH     0044H     UNIT         ?PR?TEST_SEGONOFF?ZLG7290DEMO
            CODE    0ABFH     0034H     UNIT         ?PR?TEST_DISPBUF?ZLG7290DEMO
            CODE    0AF3H     0032H     UNIT         ?PR?TEST_SCANNUM?ZLG7290DEMO
            CODE    0B25H     0030H     UNIT         ?PR?_DISPVALUE?ZLG7290DEMO
            CODE    0B55H     002EH     UNIT         ?PR?_DISPHEXVALUE?ZLG7290DEMO
            CODE    0B83H     002BH     UNIT         ?C?LIB_CODE
            CODE    0BAEH     0026H     UNIT         ?PR?I2C_GETACK?I2C
            CODE    0BD4H     0026H     UNIT         ?PR?I2C_STOP?I2C
            CODE    0BFAH     0023H     UNIT         ?PR?_ZLG7290_CMD?ZLG7290
            CODE    0C1DH     0022H     UNIT         ?PR?_ZLG7290_READREG?ZLG7290
            CODE    0C3FH     0021H     UNIT         ?PR?I2C_START?I2C
            CODE    0C60H     0021H     UNIT         ?PR?I2C_READ?I2C
            CODE    0C81H     0021H     UNIT         ?PR?_ZLG7290_WRITEREG?ZLG7290
            CODE    0CA2H     001DH     UNIT         ?PR?_DELAY?ZLG7290DEMO
            CODE    0CBFH     001DH     UNIT         ?PR?_I2C_WRITE?I2C
BL51 BANKED LINKER/LOCATER V5.03                                                      01/10/2006  10:58:23  PAGE 2


            CODE    0CDCH     001CH     UNIT         ?PR?_ZLG7290_DOWNLOAD?ZLG7290
            CODE    0CF8H     001BH     UNIT         ?PR?I2C_PUTACK?I2C
            CODE    0D13H     0019H     UNIT         ?PR?CLEARALL?ZLG7290DEMO
            CODE    0D2CH     0017H     UNIT         ?PR?MAIN?ZLG7290DEMO
            CODE    0D43H     0011H     UNIT         ?PR?I2C_INIT?I2C
            CODE    0D54H     0010H     UNIT         ?CO?ZLG7290DEMO
            CODE    0D64H     0010H     UNIT         ?PR?_ZLG7290_SEGONOFF?ZLG7290
            CODE    0D74H     000DH     UNIT         ?PR?SYSTEMINIT?ZLG7290DEMO
            CODE    0D81H     0003H     UNIT         ?PR?INT0_SVC?ZLG7290DEMO
            CODE    0D84H     0003H     UNIT         ?C_INITSEG



OVERLAY MAP OF MODULE:   ZLG7290Demo (ZLG7290DEMO)


SEGMENT                                  BIT_GROUP          DATA_GROUP 
  +--> CALLED SEGMENT                 START    LENGTH     START    LENGTH
-------------------------------------------------------------------------
?C_C51STARTUP                         -----    -----      -----    -----
  +--> ?PR?MAIN?ZLG7290DEMO
  +--> ?C_INITSEG

?PR?MAIN?ZLG7290DEMO                  -----    -----      -----    -----
  +--> ?PR?SYSTEMINIT?ZLG7290DEMO
  +--> ?PR?TEST_DISPBUF?ZLG7290DEMO
  +--> ?PR?TEST_DOWNLOAD?ZLG7290DEMO
  +--> ?PR?TEST_SCANNUM?ZLG7290DEMO
  +--> ?PR?TEST_FLASH?ZLG7290DEMO
  +--> ?PR?TEST_SEGONOFF?ZLG7290DEMO
  +--> ?PR?TEST_KEY?ZLG7290DEMO

?PR?SYSTEMINIT?ZLG7290DEMO            -----    -----      -----    -----
  +--> ?PR?I2C_INIT?I2C
  +--> ?PR?_DELAY?ZLG7290DEMO

?PR?TEST_DISPBUF?ZLG7290DEMO          -----    -----      0008H    0004H
  +--> ?CO?ZLG7290DEMO
  +--> ?PR?_ZLG7290_WRITEREG?ZLG7290
  +--> ?PR?_DELAY?ZLG7290DEMO

?PR?_ZLG7290_WRITEREG?ZLG7290         0020H.0  0000H.1    000CH    0001H
  +--> ?PR?_I2C_PUTS?I2C

?PR?_I2C_PUTS?I2C                     -----    -----      0012H    000CH
  +--> ?PR?I2C_START?I2C
  +--> ?PR?I2C_GETACK?I2C
  +--> ?PR?I2C_STOP?I2C

?PR?I2C_GETACK?I2C                    0020H.5  0000H.1    -----    -----
  +--> ?PR?_I2C_WRITE?I2C

?PR?TEST_DOWNLOAD?ZLG7290DEMO         0020H.0  0000H.2    0008H    0002H
  +--> ?PR?_ZLG7290_DOWNLOAD?ZLG7290
  +--> ?PR?_DELAY?ZLG7290DEMO

?PR?_ZLG7290_DOWNLOAD?ZLG7290         0020H.2  0000H.2    000EH    0002H
BL51 BANKED LINKER/LOCATER V5.03                                                      01/10/2006  10:58:23  PAGE 3


  +--> ?PR?_ZLG7290_CMD?ZLG7290

?PR?_ZLG7290_CMD?ZLG7290              0020H.4  0000H.1    0010H    0002H
  +--> ?PR?_I2C_PUTS?I2C

?PR?TEST_SCANNUM?ZLG7290DEMO          -----    -----      0008H    0001H
  +--> ?PR?_ZLG7290_DOWNLOAD?ZLG7290
  +--> ?PR?_DELAY?ZLG7290DEMO
  +--> ?PR?_ZLG7290_WRITEREG?ZLG7290

?PR?TEST_FLASH?ZLG7290DEMO            -----    -----      0008H    0002H
  +--> ?PR?_ZLG7290_DOWNLOAD?ZLG7290
  +--> ?PR?_ZLG7290_WRITEREG?ZLG7290
  +--> ?PR?_ZLG7290_CMD?ZLG7290
  +--> ?PR?_DELAY?ZLG7290DEMO

?PR?TEST_SEGONOFF?ZLG7290DEMO         -----    -----      0008H    0001H
  +--> ?PR?CLEARALL?ZLG7290DEMO
  +--> ?PR?_DELAY?ZLG7290DEMO
  +--> ?PR?_ZLG7290_SEGONOFF?ZLG7290

?PR?CLEARALL?ZLG7290DEMO              -----    -----      000BH    0001H
  +--> ?PR?_ZLG7290_DOWNLOAD?ZLG7290

?PR?_ZLG7290_SEGONOFF?ZLG7290         0020H.0  0000H.1    -----    -----
  +--> ?PR?_ZLG7290_CMD?ZLG7290

?PR?TEST_KEY?ZLG7290DEMO              -----    -----      0008H    0003H
  +--> ?PR?CLEARALL?ZLG7290DEMO
  +--> ?PR?_ZLG7290_READREG?ZLG7290
  +--> ?PR?_DISPVALUE?ZLG7290DEMO
  +--> ?PR?_DISPHEXVALUE?ZLG7290DEMO

?PR?_ZLG7290_READREG?ZLG7290          0020H.0  0000H.1    000BH    0003H
  +--> ?PR?_I2C_GETS?I2C

?PR?_I2C_GETS?I2C                     -----    -----      000EH    000CH
  +--> ?PR?I2C_START?I2C
  +--> ?PR?I2C_GETACK?I2C
  +--> ?PR?I2C_STOP?I2C
  +--> ?PR?I2C_READ?I2C
  +--> ?PR?I2C_PUTACK?I2C

?PR?I2C_PUTACK?I2C                    0020H.1  0000H.1    -----    -----

?PR?_DISPVALUE?ZLG7290DEMO            -----    -----      000BH    0003H
  +--> ?PR?_ZLG7290_DOWNLOAD?ZLG7290

?PR?_DISPHEXVALUE?ZLG7290DEMO         -----    -----      000BH    0003H
  +--> ?PR?_ZLG7290_DOWNLOAD?ZLG7290



SYMBOL TABLE OF MODULE:  ZLG7290Demo (ZLG7290DEMO)

  VALUE           TYPE          NAME
  ----------------------------------
BL51 BANKED LINKER/LOCATER V5.03                                                      01/10/2006  10:58:23  PAGE 4



  -------         MODULE        ZLG7290DEMO
  C:0000H         SYMBOL        _ICE_DUMMY_
  C:0A7BH         PUBLIC        Test_SegOnOff
  D:0090H         PUBLIC        P1
  D:00B0H         PUBLIC        P3
  C:0D13H         PUBLIC        ClearAll
  B:00A8H.7       PUBLIC        EA
  D:00A8H         PUBLIC        IE
  D:00B8H         PUBLIC        IP
  C:0B55H         PUBLIC        _DispHexValue
  C:0D74H         PUBLIC        SystemInit
  C:0D2CH         PUBLIC        main
  C:0A30H         PUBLIC        Test_Key
  D:0087H         PUBLIC        PCON
  C:0ABFH         PUBLIC        Test_DispBuf
  D:0098H         PUBLIC        SCON
  D:0089H         PUBLIC        TMOD
  D:0088H         PUBLIC        TCON
  C:0AF3H         PUBLIC        Test_ScanNum
  C:09D4H         PUBLIC        Test_Download
  B:0088H.5       PUBLIC        TF0
  D:008CH         PUBLIC        TH0
  B:00A8H.0       PUBLIC        EX0
  B:0088H.0       PUBLIC        IT0
  D:008AH         PUBLIC        TL0
  C:0CA6H         PUBLIC        _Delay
  B:0088H.4       PUBLIC        TR0
  D:00C8H         PUBLIC        T2CON
  B:0020H.6       PUBLIC        FlagINT
  C:0D81H         PUBLIC        INT0_SVC
  C:0B25H         PUBLIC        _DispValue
  C:0976H         PUBLIC        Test_Flash
  D:00D0H         PUBLIC        PSW
  -------         PROC          INT0_SVC
  C:0D81H         LINE#         16
  C:0D81H         LINE#         18
  C:0D83H         LINE#         19
  -------         ENDPROC       INT0_SVC
  C:0CA2H         SYMBOL        L?0062
  -------         PROC          L?0061
  -------         ENDPROC       L?0061
  C:0CA2H         SYMBOL        L?0062
  -------         PROC          _DELAY
  D:0006H         SYMBOL        t
  C:0CA6H         LINE#         30
  C:0CA6H         LINE#         31
  C:0CA6H         LINE#         33
  C:0CA6H         LINE#         34
  C:0CA9H         LINE#         35
  C:0CACH         LINE#         36
  C:0CAEH         LINE#         37
  C:0CB1H         LINE#         38
  C:0CB3H         LINE#         39
  C:0CB5H         LINE#         40
  C:0CBEH         LINE#         41
  -------         ENDPROC       _DELAY
BL51 BANKED LINKER/LOCATER V5.03                                                      01/10/2006  10:58:23  PAGE 5


  -------         PROC          SYSTEMINIT
  C:0D74H         LINE#         47
  C:0D74H         LINE#         48
  C:0D74H         LINE#         49
  C:0D77H         LINE#         50
  C:0D7AH         LINE#         51
  -------         ENDPROC       SYSTEMINIT
  -------         PROC          CLEARALL
  -------         DO            
  D:000BH         SYMBOL        x
  -------         ENDDO         
  C:0D13H         LINE#         58
  C:0D13H         LINE#         59
  C:0D13H         LINE#         61
  C:0D16H         LINE#         62
  C:0D16H         LINE#         63
  C:0D22H         LINE#         64
  C:0D2BH         LINE#         65
  -------         ENDPROC       CLEARALL
  -------         PROC          TEST_DISPBUF
  -------         DO            
  C:0D54H         SYMBOL        DispDat
  D:0008H         SYMBOL        n
  D:0009H         SYMBOL        x
  D:000AH         SYMBOL        reg
  D:000BH         SYMBOL        dat
  -------         ENDDO         
  C:0ABFH         LINE#         71
  C:0ABFH         LINE#         72
  C:0ABFH         LINE#         82
  C:0AC2H         LINE#         83
  C:0AC2H         LINE#         84
  C:0AC5H         LINE#         85
  C:0AC5H         LINE#         86
  C:0ACBH         LINE#         87
  C:0AD3H         LINE#         88
  C:0AD9H         LINE#         89
  C:0AE2H         LINE#         90
  C:0AE9H         LINE#         91
  C:0AF2H         LINE#         92
  -------         ENDPROC       TEST_DISPBUF
  -------         PROC          TEST_DOWNLOAD
  -------         DO            
  D:0008H         SYMBOL        x
  B:0020H.0       SYMBOL        dp
  B:0020H.1       SYMBOL        flash
  D:0009H         SYMBOL        dat
  -------         ENDDO         
  C:09D4H         LINE#         98
  C:09D4H         LINE#         99
  C:09D4H         LINE#         105
  C:09D6H         LINE#         106
  C:09D8H         LINE#         107
  C:09DBH         LINE#         108
  C:09DEH         LINE#         109
  C:09DEH         LINE#         110
  C:09EEH         LINE#         111
BL51 BANKED LINKER/LOCATER V5.03                                                      01/10/2006  10:58:23  PAGE 6


  C:09F7H         LINE#         112
  C:09FAH         LINE#         114
  C:09FCH         LINE#         115
  C:09FEH         LINE#         116
  C:0A01H         LINE#         117
  C:0A01H         LINE#         118
  C:0A04H         LINE#         119
  C:0A04H         LINE#         120
  C:0A14H         LINE#         121
  C:0A1DH         LINE#         122
  C:0A24H         LINE#         123
  C:0A2FH         LINE#         124
  -------         ENDPROC       TEST_DOWNLOAD
  -------         PROC          TEST_SCANNUM
  -------         DO            
  D:0008H         SYMBOL        x
  -------         ENDDO         
  C:0AF3H         LINE#         131
  C:0AF3H         LINE#         132
  C:0AF3H         LINE#         134
  C:0AF6H         LINE#         135
  C:0AF6H         LINE#         136
  C:0B02H         LINE#         137
  C:0B0BH         LINE#         138
  C:0B0EH         LINE#         139
  C:0B11H         LINE#         140
  C:0B11H         LINE#         141
  C:0B18H         LINE#         142
  C:0B1BH         LINE#         143
  C:0B24H         LINE#         144
  -------         ENDPROC       TEST_SCANNUM
  -------         PROC          TEST_FLASH
  -------         DO            
  D:0008H         SYMBOL        dat
  D:0009H         SYMBOL        x
  -------         ENDDO         
  C:0976H         LINE#         150
  C:0976H         LINE#         151
  C:0976H         LINE#         152
  C:0979H         LINE#         155
  C:097CH         LINE#         156
  C:097CH         LINE#         157
  C:0988H         LINE#         158
  C:0991H         LINE#         160
  C:0998H         LINE#         162
  C:099BH         LINE#         163
  C:099BH         LINE#         164
  C:09A2H         LINE#         165
  C:09A8H         LINE#         166
  C:09AFH         LINE#         167
  C:09B8H         LINE#         169
  C:09BFH         LINE#         170
  C:09C6H         LINE#         172
  C:09CDH         LINE#         173
  -------         ENDPROC       TEST_FLASH
  -------         PROC          TEST_SEGONOFF
  -------         DO            
BL51 BANKED LINKER/LOCATER V5.03                                                      01/10/2006  10:58:23  PAGE 7


  D:0008H         SYMBOL        seg
  -------         ENDDO         
  C:0A7BH         LINE#         180
  C:0A7BH         LINE#         181
  C:0A7BH         LINE#         183
  C:0A7EH         LINE#         184
  C:0A81H         LINE#         185
  C:0A84H         LINE#         186
  C:0A84H         LINE#         187
  C:0A8BH         LINE#         188
  C:0A92H         LINE#         189
  C:0A9BH         LINE#         190
  C:0A9EH         LINE#         191
  C:0AA1H         LINE#         192
  C:0AA1H         LINE#         193
  C:0AA8H         LINE#         194
  C:0AAFH         LINE#         195
  C:0AB8H         LINE#         196
  -------         ENDPROC       TEST_SEGONOFF
  -------         PROC          _DISPVALUE
  D:000BH         SYMBOL        x
  D:000CH         SYMBOL        dat
  -------         DO            
  D:000DH         SYMBOL        d
  -------         ENDDO         
  C:0B25H         LINE#         206
  C:0B29H         LINE#         207
  C:0B29H         LINE#         209
  C:0B31H         LINE#         210
  C:0B3AH         LINE#         211
  C:0B47H         LINE#         212
  -------         ENDPROC       _DISPVALUE
  -------         PROC          _DISPHEXVALUE
  D:000BH         SYMBOL        x
  D:000CH         SYMBOL        dat
  -------         DO            
  D:000DH         SYMBOL        d
  -------         ENDDO         
  C:0B55H         LINE#         222
  C:0B59H         LINE#         223
  C:0B59H         LINE#         225
  C:0B60H         LINE#         226
  C:0B69H         LINE#         227
  C:0B75H         LINE#         228
  -------         ENDPROC       _DISPHEXVALUE
  -------         PROC          TEST_KEY
  -------         DO            
  D:0008H         SYMBOL        KeyValue
  D:0009H         SYMBOL        RepeatCnt
  D:000AH         SYMBOL        FnKeyValue
  -------         ENDDO         
  C:0A30H         LINE#         235
  C:0A30H         LINE#         236
  C:0A30H         LINE#         240
  C:0A33H         LINE#         241
  C:0A35H         LINE#         242
  C:0A37H         LINE#         243
BL51 BANKED LINKER/LOCATER V5.03                                                      01/10/2006  10:58:23  PAGE 8


  C:0A39H         LINE#         244
  C:0A3BH         LINE#         245
  C:0A3BH         LINE#         246
  C:0A3BH         LINE#         247
  C:0A3EH         LINE#         248
  C:0A3EH         LINE#         250
  C:0A40H         LINE#         252
  C:0A4BH         LINE#         253
  C:0A56H         LINE#         254
  C:0A61H         LINE#         256
  C:0A68H         LINE#         257
  C:0A6FH         LINE#         258
  C:0A76H         LINE#         259
  C:0A76H         LINE#         260
  C:0A79H         LINE#         261
  -------         ENDPROC       TEST_KEY
  -------         PROC          MAIN
  C:0D2CH         LINE#         264
  C:0D2CH         LINE#         265
  C:0D2CH         LINE#         266
  C:0D2FH         LINE#         267
  C:0D32H         LINE#         268
  C:0D35H         LINE#         269
  C:0D38H         LINE#         270
  C:0D3BH         LINE#         271
  C:0D3EH         LINE#         272
  C:0D41H         LINE#         273
  -------         ENDPROC       MAIN
  -------         ENDMOD        ZLG7290DEMO

  -------         MODULE        I2C
  C:0000H         SYMBOL        _ICE_DUMMY_
  D:0090H         PUBLIC        P1
  B:0090H.6       PUBLIC        I2C_SCL
  D:00B0H         PUBLIC        P3
  C:0CBFH         PUBLIC        _I2C_Write
  D:00A8H         PUBLIC        IE
  C:088CH         PUBLIC        _I2C_Gets
  D:00B8H         PUBLIC        IP
  C:0C60H         PUBLIC        I2C_Read
  C:0909H         PUBLIC        _I2C_Puts
  C:0C3FH         PUBLIC        I2C_Start
  D:0098H         PUBLIC        SCON
  C:0D43H         PUBLIC        I2C_Init
  D:0088H         PUBLIC        TCON
  C:0BD4H         PUBLIC        I2C_Stop
  C:0BB5H         PUBLIC        I2C_GetAck
  D:001EH         PUBLIC        I2C_Delay_t
  D:00C8H         PUBLIC        T2CON
  C:0CF8H         PUBLIC        I2C_PutAck
  B:0090H.7       PUBLIC        I2C_SDA
  D:00D0H         PUBLIC        PSW
  -------         PROC          I2C_INIT
  C:0D43H         LINE#         29
  C:0D43H         LINE#         30
  C:0D43H         LINE#         31
  C:0D45H         LINE#         32
BL51 BANKED LINKER/LOCATER V5.03                                                      01/10/2006  10:58:23  PAGE 9


  C:0D4BH         LINE#         33
  C:0D4DH         LINE#         34
  C:0D53H         LINE#         35
  -------         ENDPROC       I2C_INIT
  -------         PROC          I2C_START
  C:0C3FH         LINE#         46
  C:0C3FH         LINE#         47
  C:0C3FH         LINE#         48
  C:0C41H         LINE#         49
  C:0C47H         LINE#         50
  C:0C49H         LINE#         51
  C:0C4FH         LINE#         52
  C:0C51H         LINE#         53
  C:0C57H         LINE#         54
  C:0C59H         LINE#         55
  C:0C5FH         LINE#         56
  -------         ENDPROC       I2C_START
  -------         PROC          _I2C_WRITE
  D:0007H         SYMBOL        dat
  -------         DO            
  D:0006H         SYMBOL        t
  -------         ENDDO         
  C:0CBFH         LINE#         64
  C:0CBFH         LINE#         65
  C:0CBFH         LINE#         66
  C:0CC1H         LINE#         68
  C:0CC1H         LINE#         69
  C:0CC5H         LINE#         70
  C:0CC9H         LINE#         71
  C:0CCBH         LINE#         72
  C:0CD1H         LINE#         73
  C:0CD3H         LINE#         74
  C:0CD9H         LINE#         75
  C:0CDBH         LINE#         76
  -------         ENDPROC       _I2C_WRITE
  -------         PROC          I2C_READ
  -------         DO            
  D:0007H         SYMBOL        dat
  D:0006H         SYMBOL        t
  -------         ENDDO         
  C:0C60H         LINE#         83
  C:0C60H         LINE#         84
  C:0C60H         LINE#         86
  C:0C62H         LINE#         87
  C:0C64H         LINE#         89
  C:0C64H         LINE#         90
  C:0C66H         LINE#         91
  C:0C6CH         LINE#         92
  C:0C70H         LINE#         93
  C:0C76H         LINE#         94
  C:0C78H         LINE#         95
  C:0C7EH         LINE#         96
  C:0C80H         LINE#         97
  C:0C80H         LINE#         98
  -------         ENDPROC       I2C_READ
  C:0BB1H         SYMBOL        L?0094
  -------         PROC          L?0093
BL51 BANKED LINKER/LOCATER V5.03                                                      01/10/2006  10:58:23  PAGE 10


  -------         ENDPROC       L?0093
  C:0BB1H         SYMBOL        L?0094
  -------         PROC          I2C_GETACK
  -------         DO            
  B:0020H.5       SYMBOL        ack
  -------         ENDDO         
  C:0BB5H         LINE#         110
  C:0BB5H         LINE#         111
  C:0BB5H         LINE#         113
  C:0BB7H         LINE#         114
  C:0BBDH         LINE#         115
  C:0BBFH         LINE#         116
  C:0BC5H         LINE#         117
  C:0BC9H         LINE#         118
  C:0BCBH         LINE#         119
  C:0BD1H         LINE#         120
  C:0BD3H         LINE#         121
  -------         ENDPROC       I2C_GETACK
  -------         PROC          I2C_PUTACK
  B:0020H.1       SYMBOL        ack
  C:0CF8H         LINE#         133
  C:0CF8H         LINE#         134
  C:0CF8H         LINE#         135
  C:0CFCH         LINE#         136
  C:0D02H         LINE#         137
  C:0D04H         LINE#         138
  C:0D0AH         LINE#         139
  C:0D0CH         LINE#         140
  C:0D12H         LINE#         141
  -------         ENDPROC       I2C_PUTACK
  -------         PROC          I2C_STOP
  -------         DO            
  D:0006H         SYMBOL        t
  -------         ENDDO         
  C:0BD4H         LINE#         151
  C:0BD4H         LINE#         152
  C:0BD4H         LINE#         153
  C:0BD8H         LINE#         154
  C:0BDAH         LINE#         155
  C:0BE0H         LINE#         156
  C:0BE2H         LINE#         157
  C:0BE8H         LINE#         158
  C:0BEAH         LINE#         159
  C:0BF0H         LINE#         160
  C:0BF9H         LINE#         161
  -------         ENDPROC       I2C_STOP
  -------         PROC          _I2C_PUTS
  D:0007H         SYMBOL        SlaveAddr
  D:0004H         SYMBOL        SubAddr
  D:0003H         SYMBOL        SubMod
  D:0016H         SYMBOL        dat
  D:0019H         SYMBOL        Size
  -------         DO            
  D:0005H         SYMBOL        i
  D:001BH         SYMBOL        a
  -------         ENDDO         
  C:0909H         LINE#         179
BL51 BANKED LINKER/LOCATER V5.03                                                      01/10/2006  10:58:23  PAGE 11


  C:0909H         LINE#         187
  C:0909H         LINE#         192
  C:0911H         LINE#         194
  C:0916H         LINE#         196
  C:091EH         LINE#         198
  C:0926H         LINE#         199
  C:0926H         LINE#         200
  C:0926H         LINE#         201
  C:0926H         LINE#         202
  C:0926H         LINE#         203
  C:0928H         LINE#         204
  C:092AH         LINE#         205
  C:092AH         LINE#         206
  C:092CH         LINE#         207
  C:092EH         LINE#         208
  C:092EH         LINE#         209
  C:092EH         LINE#         210
  C:092EH         LINE#         211
  C:092EH         LINE#         213
  C:092FH         LINE#         214
  C:0932H         LINE#         215
  C:0939H         LINE#         216
  C:0939H         LINE#         217
  C:093BH         LINE#         218
  C:0940H         LINE#         219
  C:0940H         LINE#         220
  C:0943H         LINE#         221
  C:0943H         LINE#         222
  C:0943H         LINE#         223
  C:0946H         LINE#         226
  C:0946H         LINE#         227
  C:0957H         LINE#         228
  C:095CH         LINE#         229
  C:0969H         LINE#         231
  C:096CH         LINE#         232
  C:0972H         LINE#         233
  C:0972H         LINE#         234
  C:0974H         LINE#         235
  C:0974H         LINE#         237
  C:0974H         LINE#         238
  C:0975H         LINE#         239
  C:0975H         LINE#         240
  -------         ENDPROC       _I2C_PUTS
  -------         PROC          _I2C_GETS
  D:0007H         SYMBOL        SlaveAddr
  D:0004H         SYMBOL        SubAddr
  D:0003H         SYMBOL        SubMod
  D:0012H         SYMBOL        dat
  D:0015H         SYMBOL        Size
  -------         DO            
  D:0005H         SYMBOL        i
  D:0017H         SYMBOL        a
  -------         ENDDO         
  C:088CH         LINE#         258
  C:088CH         LINE#         266
  C:088CH         LINE#         271
  C:0894H         LINE#         273
BL51 BANKED LINKER/LOCATER V5.03                                                      01/10/2006  10:58:23  PAGE 12


  C:0899H         LINE#         275
  C:08A1H         LINE#         277
  C:08A4H         LINE#         278
  C:08A4H         LINE#         280
  C:08A7H         LINE#         281
  C:08A7H         LINE#         282
  C:08A9H         LINE#         283
  C:08ABH         LINE#         285
  C:08ABH         LINE#         286
  C:08ADH         LINE#         287
  C:08AFH         LINE#         288
  C:08AFH         LINE#         290
  C:08B0H         LINE#         291
  C:08B3H         LINE#         292
  C:08BAH         LINE#         293
  C:08BAH         LINE#         294
  C:08BCH         LINE#         295
  C:08C1H         LINE#         296
  C:08C1H         LINE#         297
  C:08C1H         LINE#         298
  C:08C3H         LINE#         299
  C:08C3H         LINE#         300
  C:08C6H         LINE#         301
  C:08C6H         LINE#         304
  C:08C9H         LINE#         306
  C:08CCH         LINE#         307
  C:08D1H         LINE#         308
  C:08D1H         LINE#         309
  C:08D4H         LINE#         310
  C:08D4H         LINE#         311
  C:08D4H         LINE#         313
  C:08D4H         LINE#         314
  C:08D4H         LINE#         315
  C:08E9H         LINE#         316
  C:08F6H         LINE#         317
  C:08F6H         LINE#         318
  C:08FBH         LINE#         319
  C:08FDH         LINE#         320
  C:08FDH         LINE#         321
  C:0902H         LINE#         322
  C:0904H         LINE#         324
  C:0907H         LINE#         325
  C:0908H         LINE#         326
  -------         ENDPROC       _I2C_GETS
  -------         ENDMOD        I2C

  -------         MODULE        ZLG7290
  C:0000H         SYMBOL        _ICE_DUMMY_
  D:0090H         PUBLIC        P1
  D:00B0H         PUBLIC        P3
  D:00A8H         PUBLIC        IE
  D:00B8H         PUBLIC        IP
  C:0C1DH         PUBLIC        _ZLG7290_ReadReg
  C:0C81H         PUBLIC        _ZLG7290_WriteReg
  D:0098H         PUBLIC        SCON
  D:0088H         PUBLIC        TCON
  C:0BFAH         PUBLIC        _ZLG7290_cmd
BL51 BANKED LINKER/LOCATER V5.03                                                      01/10/2006  10:58:23  PAGE 13


  C:0CDCH         PUBLIC        _ZLG7290_Download
  D:00C8H         PUBLIC        T2CON
  D:00D0H         PUBLIC        PSW
  C:0D64H         PUBLIC        _ZLG7290_SegOnOff
  -------         PROC          _ZLG7290_WRITEREG
  D:0007H         SYMBOL        RegAddr
  D:000CH         SYMBOL        dat
  -------         DO            
  B:0020H.0       SYMBOL        b
  -------         ENDDO         
  C:0C81H         LINE#         22
  C:0C83H         LINE#         23
  C:0C83H         LINE#         25
  C:0C9FH         LINE#         26
  C:0CA1H         LINE#         27
  -------         ENDPROC       _ZLG7290_WRITEREG
  -------         PROC          _ZLG7290_READREG
  D:0007H         SYMBOL        RegAddr
  D:000BH         SYMBOL        dat
  -------         DO            
  B:0020H.0       SYMBOL        b
  -------         ENDDO         
  C:0C1DH         LINE#         39
  C:0C23H         LINE#         40
  C:0C23H         LINE#         42
  C:0C3CH         LINE#         43
  C:0C3EH         LINE#         44
  -------         ENDPROC       _ZLG7290_READREG
  -------         PROC          _ZLG7290_CMD
  D:0007H         SYMBOL        cmd0
  D:0005H         SYMBOL        cmd1
  -------         DO            
  B:0020H.4       SYMBOL        b
  D:0010H         SYMBOL        buf
  -------         ENDDO         
  C:0BFAH         LINE#         56
  C:0BFAH         LINE#         57
  C:0BFAH         LINE#         60
  C:0BFCH         LINE#         61
  C:0BFEH         LINE#         62
  C:0C1AH         LINE#         63
  C:0C1CH         LINE#         64
  -------         ENDPROC       _ZLG7290_CMD
  -------         PROC          _ZLG7290_SEGONOFF
  D:0007H         SYMBOL        seg
  B:0020H.0       SYMBOL        b
  -------         DO            
  D:0005H         SYMBOL        cmd
  -------         ENDDO         
  C:0D64H         LINE#         78
  C:0D64H         LINE#         79
  C:0D64H         LINE#         81
  C:0D68H         LINE#         82
  C:0D6EH         LINE#         83
  C:0D73H         LINE#         84
  -------         ENDPROC       _ZLG7290_SEGONOFF
  -------         PROC          _ZLG7290_DOWNLOAD
BL51 BANKED LINKER/LOCATER V5.03                                                      01/10/2006  10:58:23  PAGE 14


  D:0007H         SYMBOL        addr
  B:0020H.2       SYMBOL        dp
  B:0020H.3       SYMBOL        flash
  D:000FH         SYMBOL        dat
  -------         DO            
  D:0007H         SYMBOL        cmd0
  D:0005H         SYMBOL        cmd1
  -------         ENDDO         
  C:0CDCH         LINE#         100
  C:0CDCH         LINE#         101
  C:0CDCH         LINE#         104
  C:0CE0H         LINE#         105
  C:0CE3H         LINE#         106
  C:0CE8H         LINE#         107
  C:0CEEH         LINE#         108
  C:0CF4H         LINE#         109
  C:0CF7H         LINE#         110
  -------         ENDPROC       _ZLG7290_DOWNLOAD
  -------         ENDMOD        ZLG7290

  -------         MODULE        ?C?CLDPTR
  C:0B83H         PUBLIC        ?C?CLDPTR
  -------         ENDMOD        ?C?CLDPTR

  -------         MODULE        ?C?CSTPTR
  C:0B9CH         PUBLIC        ?C?CSTPTR
  -------         ENDMOD        ?C?CSTPTR

******************************************************************************
* RESTRICTED VERSION WITH 0800H BYTE CODE SIZE LIMIT; USED: 0505H BYTE (62%) *
******************************************************************************

Program Size: data=32.7 xdata=0 code=1421
LINK/LOCATE RUN COMPLETE.  0 WARNING(S),  0 ERROR(S)
