BL51 BANKED LINKER/LOCATER V6.22                                                        04/17/2017  20:07:12  PAGE 1


BL51 BANKED LINKER/LOCATER V6.22, INVOKED BY:
D:\KEIL_V4_C51\C51\BIN\BL51.EXE main.obj, delay.obj, STARTUP.obj, i2cSlave.obj TO Slave RAMSIZE (256)


MEMORY MODEL: SMALL


INPUT MODULES INCLUDED:
  main.obj (MAIN)
  delay.obj (DELAY)
  STARTUP.obj (?C_STARTUP)
  i2cSlave.obj (I2CSLAVE)
  D:\KEIL_V4_C51\C51\LIB\C51S.LIB (?C_INIT)
  D:\KEIL_V4_C51\C51\LIB\C51S.LIB (?C?COPY)
  D:\KEIL_V4_C51\C51\LIB\C51S.LIB (?C?CLDOPTR)
  D:\KEIL_V4_C51\C51\LIB\C51S.LIB (?C?CSTPTR)
  D:\KEIL_V4_C51\C51\LIB\C51S.LIB (?C?IMUL)
  D:\KEIL_V4_C51\C51\LIB\C51S.LIB (?C?SIDIV)
  D:\KEIL_V4_C51\C51\LIB\C51S.LIB (?C?UIDIV)


LINK MAP OF MODULE:  Slave (MAIN)


            TYPE    BASE      LENGTH    RELOCATION   SEGMENT NAME
            -----------------------------------------------------

            * * * * * * *   D A T A   M E M O R Y   * * * * * * *
            REG     0000H     0008H     ABSOLUTE     "REG BANK 0"
            DATA    0008H     0017H     UNIT         _DATA_GROUP_
            DATA    001FH     000DH     UNIT         ?DT?I2CSLAVE
            DATA    002CH     0005H     UNIT         ?DT?_LCD_1602_WRITE_STRING?MAIN
            IDATA   0031H     0001H     UNIT         ?STACK

            * * * * * * *   C O D E   M E M O R Y   * * * * * * *
            CODE    0000H     0003H     ABSOLUTE     
            CODE    0003H     01D2H     UNIT         ?C?LIB_CODE
            CODE    01D5H     0094H     UNIT         ?PR?LOOP?I2CSLAVE
            CODE    0269H     008CH     UNIT         ?C_C51STARTUP
            CODE    02F5H     007DH     UNIT         ?PR?_LCD_1602_WRITE_NUM?MAIN
            CODE    0372H     003EH     UNIT         ?PR?_LCD_1602_WRITE_STRING?MAIN
            CODE    03B0H     0038H     UNIT         ?PR?LCD_1602_INIT?MAIN
            CODE    03E8H     0034H     UNIT         ?PR?_RECEIVEDATA?I2CSLAVE
            CODE    041CH     0023H     UNIT         ?PR?_SENDDATA?I2CSLAVE
            CODE    043FH     001AH     UNIT         ?PR?_DELAY?MAIN
            CODE    0459H     0018H     UNIT         ?PR?STARTSIGNAL?I2CSLAVE
            CODE    0471H     0012H     UNIT         ?C_INITSEG
            CODE    0483H     0010H     UNIT         ?CO?MAIN
            CODE    0493H     0010H     UNIT         ?PR?SENDACK?I2CSLAVE
            CODE    04A3H     000FH     UNIT         ?PR?MAIN?MAIN
            CODE    04B2H     000DH     UNIT         ?PR?_LCD_1602_WRITE_COM?MAIN
            CODE    04BFH     000DH     UNIT         ?PR?_LCD_1602_WRITE_DATA?MAIN
            CODE    04CCH     000CH     UNIT         ?PR?STOPSIGNAL?I2CSLAVE
            CODE    04D8H     0009H     UNIT         ?PR?DELAY100MS?DELAY
            CODE    04E1H     0005H     UNIT         ?PR?DELAY10US?DELAY
            CODE    04E6H     0005H     UNIT         ?PR?DELAY100US?DELAY


BL51 BANKED LINKER/LOCATER V6.22                                                      04/17/2017  20:07:12  PAGE 2



OVERLAY MAP OF MODULE:   Slave (MAIN)


SEGMENT                                   DATA_GROUP 
  +--> CALLED SEGMENT                   START    LENGTH
-------------------------------------------------------
?C_C51STARTUP                           -----    -----
  +--> ?PR?MAIN?MAIN
  +--> ?C_INITSEG

?PR?MAIN?MAIN                           -----    -----
  +--> ?PR?_DELAY?MAIN
  +--> ?PR?LCD_1602_INIT?MAIN
  +--> ?PR?LOOP?I2CSLAVE

?PR?LCD_1602_INIT?MAIN                  -----    -----
  +--> ?PR?_LCD_1602_WRITE_COM?MAIN
  +--> ?PR?_DELAY?MAIN

?PR?_LCD_1602_WRITE_COM?MAIN            -----    -----
  +--> ?PR?_DELAY?MAIN

?PR?LOOP?I2CSLAVE                       0008H    0002H
  +--> ?PR?STARTSIGNAL?I2CSLAVE
  +--> ?PR?_RECEIVEDATA?I2CSLAVE
  +--> ?PR?SENDACK?I2CSLAVE
  +--> ?PR?_LCD_1602_WRITE_NUM?MAIN
  +--> ?PR?_SENDDATA?I2CSLAVE

?PR?STARTSIGNAL?I2CSLAVE                -----    -----
  +--> ?PR?DELAY100US?DELAY

?PR?_LCD_1602_WRITE_NUM?MAIN            000AH    0015H
  +--> ?CO?MAIN
  +--> ?PR?_LCD_1602_WRITE_COM?MAIN
  +--> ?PR?_LCD_1602_WRITE_DATA?MAIN

?PR?_LCD_1602_WRITE_DATA?MAIN           -----    -----
  +--> ?PR?_DELAY?MAIN



SYMBOL TABLE OF MODULE:  Slave (MAIN)

  VALUE           TYPE          NAME
  ----------------------------------

  -------         MODULE        MAIN
  C:0000H         SYMBOL        _ICE_DUMMY_
  C:02F5H         PUBLIC        _LCD_1602_Write_Num
  D:0080H         PUBLIC        P0
  D:0090H         PUBLIC        P1
  D:00A0H         PUBLIC        P2
  D:00B0H         PUBLIC        P3
  C:04B2H         PUBLIC        _LCD_1602_Write_com
  D:00A8H         PUBLIC        IE
BL51 BANKED LINKER/LOCATER V6.22                                                      04/17/2017  20:07:12  PAGE 3


  C:0447H         PUBLIC        _delay
  C:03B0H         PUBLIC        LCD_1602_init
  D:00B8H         PUBLIC        IP
  B:00A0H.6       PUBLIC        RS
  C:04A3H         PUBLIC        main
  B:00A0H.5       PUBLIC        RW
  D:0098H         PUBLIC        SCON
  D:0088H         PUBLIC        TCON
  C:0483H         SYMBOL        _?ix1000
  B:00A0H.7       PUBLIC        E
  C:0372H         PUBLIC        _LCD_1602_Write_String
  D:00C8H         PUBLIC        T2CON
  C:04BFH         PUBLIC        _LCD_1602_Write_data
  D:00D0H         PUBLIC        PSW
  -------         PROC          MAIN
  C:04A3H         LINE#         20
  C:04A3H         LINE#         21
  C:04A3H         LINE#         22
  C:04AAH         LINE#         24
  C:04ADH         LINE#         26
  C:04ADH         LINE#         27
  C:04ADH         LINE#         28
  C:04B0H         LINE#         29
  -------         ENDPROC       MAIN
  -------         PROC          LCD_1602_INIT
  C:03B0H         LINE#         35
  C:03B0H         LINE#         36
  C:03B0H         LINE#         37
  C:03B2H         LINE#         38
  C:03B4H         LINE#         39
  C:03B9H         LINE#         40
  C:03BCH         LINE#         41
  C:03C1H         LINE#         42
  C:03C4H         LINE#         43
  C:03C9H         LINE#         44
  C:03CCH         LINE#         45
  C:03D1H         LINE#         46
  C:03D4H         LINE#         47
  C:03D9H         LINE#         48
  C:03DCH         LINE#         49
  C:03E1H         LINE#         50
  -------         ENDPROC       LCD_1602_INIT
  -------         PROC          _LCD_1602_WRITE_COM
  D:0007H         SYMBOL        w_com
  C:04B2H         LINE#         54
  C:04B2H         LINE#         55
  C:04B2H         LINE#         56
  C:04B4H         LINE#         57
  C:04B4H         LINE#         58
  C:04B4H         LINE#         59
  C:04B7H         LINE#         60
  C:04B9H         LINE#         61
  C:04BCH         LINE#         62
  C:04BEH         LINE#         65
  -------         ENDPROC       _LCD_1602_WRITE_COM
  -------         PROC          _LCD_1602_WRITE_DATA
  D:0007H         SYMBOL        w_data
BL51 BANKED LINKER/LOCATER V6.22                                                      04/17/2017  20:07:12  PAGE 4


  C:04BFH         LINE#         67
  C:04BFH         LINE#         68
  C:04BFH         LINE#         69
  C:04C1H         LINE#         70
  C:04C1H         LINE#         71
  C:04C1H         LINE#         72
  C:04C4H         LINE#         73
  C:04C6H         LINE#         74
  C:04C9H         LINE#         75
  C:04CBH         LINE#         76
  -------         ENDPROC       _LCD_1602_WRITE_DATA
  -------         PROC          _LCD_1602_WRITE_STRING
  D:002CH         SYMBOL        h
  D:002DH         SYMBOL        w_data
  -------         DO            
  D:0030H         SYMBOL        i
  -------         ENDDO         
  C:0372H         LINE#         77
  C:037AH         LINE#         78
  C:037AH         LINE#         79
  C:037DH         LINE#         80
  C:0382H         LINE#         81
  C:0387H         LINE#         82
  C:0387H         LINE#         83
  C:038CH         LINE#         84
  C:038CH         LINE#         85
  C:039DH         LINE#         86
  C:03AFH         LINE#         87
  -------         ENDPROC       _LCD_1602_WRITE_STRING
  -------         PROC          _LCD_1602_WRITE_NUM
  D:000AH         SYMBOL        h
  D:000BH         SYMBOL        s
  D:000CH         SYMBOL        num
  -------         DO            
  D:000EH         SYMBOL        i
  D:000FH         SYMBOL        num_temp
  -------         ENDDO         
  C:02F5H         LINE#         89
  C:02FDH         LINE#         90
  C:02FDH         LINE#         91
  C:0300H         LINE#         92
  C:0311H         LINE#         93
  C:0319H         LINE#         94
  C:031EH         LINE#         95
  C:031EH         LINE#         96
  C:0326H         LINE#         97
  C:0326H         LINE#         98
  C:0329H         LINE#         99
  C:032FH         LINE#         100
  C:032FH         LINE#         101
  C:0345H         LINE#         102
  C:0347H         LINE#         103
  C:0356H         LINE#         104
  C:0358H         LINE#         105
  C:035CH         LINE#         106
  C:035CH         LINE#         107
  C:0361H         LINE#         108
BL51 BANKED LINKER/LOCATER V6.22                                                      04/17/2017  20:07:12  PAGE 5


  C:0361H         LINE#         109
  C:0365H         LINE#         110
  C:0365H         LINE#         111
  C:036DH         LINE#         112
  C:036FH         LINE#         113
  C:0371H         LINE#         115
  -------         ENDPROC       _LCD_1602_WRITE_NUM
  C:0443H         SYMBOL        L?0023
  -------         PROC          L?0022
  -------         ENDPROC       L?0022
  C:0443H         SYMBOL        L?0023
  -------         PROC          _DELAY
  D:0006H         SYMBOL        y_time
  C:0447H         LINE#         117
  C:0447H         LINE#         118
  C:0447H         LINE#         119
  C:044EH         LINE#         120
  C:0458H         LINE#         121
  -------         ENDPROC       _DELAY
  -------         ENDMOD        MAIN

  -------         MODULE        DELAY
  C:0000H         SYMBOL        _ICE_DUMMY_
  C:04E1H         PUBLIC        Delay10us
  C:04D8H         PUBLIC        Delay100ms
  C:04E6H         PUBLIC        Delay100us
  -------         PROC          DELAY10US
  -------         DO            
  D:0007H         SYMBOL        i
  -------         ENDDO         
  C:04E1H         LINE#         4
  C:04E1H         LINE#         5
  C:04E1H         LINE#         8
  C:04E3H         LINE#         9
  C:04E5H         LINE#         10
  -------         ENDPROC       DELAY10US
  -------         PROC          DELAY100US
  -------         DO            
  D:0007H         SYMBOL        i
  -------         ENDDO         
  C:04E6H         LINE#         12
  C:04E6H         LINE#         13
  C:04E6H         LINE#         15
  C:04E8H         LINE#         16
  C:04EAH         LINE#         17
  -------         ENDPROC       DELAY100US
  -------         PROC          DELAY100MS
  -------         DO            
  D:0007H         SYMBOL        i
  D:0006H         SYMBOL        j
  -------         ENDDO         
  C:04D8H         LINE#         22
  C:04D8H         LINE#         23
  C:04D8H         LINE#         26
  C:04DAH         LINE#         27
  C:04DCH         LINE#         29
  C:04DCH         LINE#         30
BL51 BANKED LINKER/LOCATER V6.22                                                      04/17/2017  20:07:12  PAGE 6


  C:04DEH         LINE#         31
  C:04E0H         LINE#         32
  -------         ENDPROC       DELAY100MS
  -------         ENDMOD        DELAY

  -------         MODULE        ?C_STARTUP
  C:0269H         SEGMENT       ?C_C51STARTUP
  I:0031H         SEGMENT       ?STACK
  C:0000H         PUBLIC        ?C_STARTUP
  D:00E0H         SYMBOL        ACC
  D:00F0H         SYMBOL        B
  D:0083H         SYMBOL        DPH
  D:0082H         SYMBOL        DPL
  N:0000H         SYMBOL        IBPSTACK
  N:0100H         SYMBOL        IBPSTACKTOP
  N:0080H         SYMBOL        IDATALEN
  C:026CH         SYMBOL        IDATALOOP
  N:0000H         SYMBOL        PBPSTACK
  N:0100H         SYMBOL        PBPSTACKTOP
  N:0000H         SYMBOL        PDATALEN
  N:0000H         SYMBOL        PDATASTART
  N:0000H         SYMBOL        PPAGE
  N:0000H         SYMBOL        PPAGEENABLE
  D:00A0H         SYMBOL        PPAGE_SFR
  D:0081H         SYMBOL        SP
  C:0269H         SYMBOL        STARTUP1
  N:0000H         SYMBOL        XBPSTACK
  N:0000H         SYMBOL        XBPSTACKTOP
  N:0000H         SYMBOL        XDATALEN
  N:0000H         SYMBOL        XDATASTART
  C:0000H         LINE#         126
  C:0269H         LINE#         133
  C:026BH         LINE#         134
  C:026CH         LINE#         135
  C:026DH         LINE#         136
  C:026FH         LINE#         185
  C:0272H         LINE#         196
  -------         ENDMOD        ?C_STARTUP

  -------         MODULE        I2CSLAVE
  C:0000H         SYMBOL        _ICE_DUMMY_
  D:0090H         PUBLIC        P1
  D:00B0H         PUBLIC        P3
  C:04CCH         PUBLIC        stopSIGNAL
  D:00A8H         PUBLIC        IE
  D:00B8H         PUBLIC        IP
  C:041CH         PUBLIC        _sendData
  D:0098H         PUBLIC        SCON
  D:0088H         PUBLIC        TCON
  D:001FH         PUBLIC        regData
  C:01D5H         PUBLIC        loop
  D:002BH         PUBLIC        pos
  B:0090H.1       PUBLIC        SDA
  B:0090H.0       PUBLIC        SCL
  C:03EEH         PUBLIC        _receiveData
  D:00C8H         PUBLIC        T2CON
  C:0459H         PUBLIC        startSIGNAL
BL51 BANKED LINKER/LOCATER V6.22                                                      04/17/2017  20:07:12  PAGE 7


  D:00D0H         PUBLIC        PSW
  C:0493H         PUBLIC        sendACK
  -------         PROC          LOOP
  -------         DO            
  D:0008H         SYMBOL        res
  D:0009H         SYMBOL        p
  -------         ENDDO         
  C:01D5H         LINE#         22
  C:01D5H         LINE#         23
  C:01D5H         LINE#         26
  C:01DEH         LINE#         29
  C:01E3H         LINE#         30
  C:01EBH         LINE#         31
  C:01EBH         LINE#         33
  C:01EEH         LINE#         34
  C:01F3H         LINE#         35
  C:01F3H         LINE#         36
  C:01FDH         LINE#         37
  C:01FFH         LINE#         38
  C:01FFH         LINE#         40
  C:01FFH         LINE#         41
  C:0204H         LINE#         42
  C:0207H         LINE#         44
  C:0214H         LINE#         45
  C:0217H         LINE#         47
  C:0222H         LINE#         48
  C:0226H         LINE#         49
  C:0226H         LINE#         50
  C:0229H         LINE#         51
  C:022EH         LINE#         52
  C:0231H         LINE#         54
  C:0237H         LINE#         55
  C:0237H         LINE#         57
  C:0241H         LINE#         58
  C:0244H         LINE#         60
  C:0256H         LINE#         62
  C:0256H         LINE#         63
  C:0258H         LINE#         65
  C:0258H         LINE#         66
  C:025BH         LINE#         67
  C:0262H         LINE#         68
  C:0262H         LINE#         70
  C:0262H         LINE#         73
  C:0262H         LINE#         74
  C:0268H         LINE#         77
  -------         ENDPROC       LOOP
  -------         PROC          STARTSIGNAL
  C:0459H         LINE#         79
  C:0459H         LINE#         80
  C:0459H         LINE#         81
  C:045FH         LINE#         82
  C:045FH         LINE#         83
  C:0462H         LINE#         84
  C:0462H         LINE#         85
  C:0465H         LINE#         86
  C:0468H         LINE#         87
  C:046BH         LINE#         88
BL51 BANKED LINKER/LOCATER V6.22                                                      04/17/2017  20:07:12  PAGE 8


  C:046EH         LINE#         90
  C:0470H         LINE#         91
  -------         ENDPROC       STARTSIGNAL
  C:03E8H         SYMBOL        L?0056
  -------         PROC          L?0055
  -------         ENDPROC       L?0055
  C:03E8H         SYMBOL        L?0056
  -------         PROC          _RECEIVEDATA
  D:0001H         SYMBOL        p
  -------         DO            
  D:0007H         SYMBOL        rdata
  D:0006H         SYMBOL        i
  D:0005H         SYMBOL        lastSDA
  -------         ENDDO         
  C:03EEH         LINE#         93
  C:03EEH         LINE#         94
  C:03EEH         LINE#         95
  C:03F0H         LINE#         96
  C:03F1H         LINE#         97
  C:03F2H         LINE#         99
  C:03F2H         LINE#         100
  C:03F2H         LINE#         101
  C:03F6H         LINE#         102
  C:03F9H         LINE#         104
  C:03FEH         LINE#         105
  C:0401H         LINE#         106
  C:0401H         LINE#         107
  C:0408H         LINE#         108
  C:0408H         LINE#         109
  C:040CH         LINE#         110
  C:040EH         LINE#         111
  C:040EH         LINE#         112
  C:040EH         LINE#         114
  C:0411H         LINE#         115
  C:0412H         LINE#         117
  C:0416H         LINE#         119
  C:041BH         LINE#         120
  C:041BH         LINE#         121
  -------         ENDPROC       _RECEIVEDATA
  -------         PROC          _SENDDATA
  D:0007H         SYMBOL        dat
  -------         DO            
  D:0006H         SYMBOL        i
  -------         ENDDO         
  C:041CH         LINE#         123
  C:041CH         LINE#         124
  C:041CH         LINE#         126
  C:041FH         LINE#         127
  C:0421H         LINE#         128
  C:0421H         LINE#         129
  C:0424H         LINE#         130
  C:0424H         LINE#         131
  C:042FH         LINE#         132
  C:0431H         LINE#         133
  C:0434H         LINE#         134
  C:0438H         LINE#         135
  C:043CH         LINE#         136
BL51 BANKED LINKER/LOCATER V6.22                                                      04/17/2017  20:07:12  PAGE 9


  C:043EH         LINE#         137
  -------         ENDPROC       _SENDDATA
  -------         PROC          SENDACK
  C:0493H         LINE#         139
  C:0493H         LINE#         140
  C:0493H         LINE#         141
  C:0499H         LINE#         142
  C:049CH         LINE#         143
  C:049CH         LINE#         144
  C:049EH         LINE#         145
  C:04A0H         LINE#         146
  C:04A2H         LINE#         147
  -------         ENDPROC       SENDACK
  -------         PROC          STOPSIGNAL
  C:04CCH         LINE#         149
  C:04CCH         LINE#         150
  C:04CCH         LINE#         151
  C:04D2H         LINE#         152
  C:04D5H         LINE#         154
  C:04D7H         LINE#         155
  -------         ENDPROC       STOPSIGNAL
  -------         ENDMOD        I2CSLAVE

  -------         MODULE        ?C?COPY
  C:00D3H         PUBLIC        ?C?COPY
  -------         ENDMOD        ?C?COPY

  -------         MODULE        ?C?CLDOPTR
  C:00F9H         PUBLIC        ?C?CLDOPTR
  -------         ENDMOD        ?C?CLDOPTR

  -------         MODULE        ?C?CSTPTR
  C:0126H         PUBLIC        ?C?CSTPTR
  -------         ENDMOD        ?C?CSTPTR

  -------         MODULE        ?C?IMUL
  C:0138H         PUBLIC        ?C?IMUL
  -------         ENDMOD        ?C?IMUL

  -------         MODULE        ?C?SIDIV
  C:014AH         PUBLIC        ?C?SIDIV
  -------         ENDMOD        ?C?SIDIV

  -------         MODULE        ?C?UIDIV
  C:0180H         PUBLIC        ?C?UIDIV
  -------         ENDMOD        ?C?UIDIV

*** WARNING L16: UNCALLED SEGMENT, IGNORED FOR OVERLAY PROCESS
    SEGMENT: ?PR?_LCD_1602_WRITE_STRING?MAIN

*** WARNING L16: UNCALLED SEGMENT, IGNORED FOR OVERLAY PROCESS
    SEGMENT: ?PR?DELAY10US?DELAY

*** WARNING L16: UNCALLED SEGMENT, IGNORED FOR OVERLAY PROCESS
    SEGMENT: ?PR?DELAY100MS?DELAY

*** WARNING L16: UNCALLED SEGMENT, IGNORED FOR OVERLAY PROCESS
BL51 BANKED LINKER/LOCATER V6.22                                                      04/17/2017  20:07:12  PAGE 10


    SEGMENT: ?PR?STOPSIGNAL?I2CSLAVE

Program Size: data=50.0 xdata=0 code=1259
LINK/LOCATE RUN COMPLETE.  4 WARNING(S),  0 ERROR(S)
