:020000040800F2
:1000000020080020691C0008813A0008833A000893
:10001000873A00088B3A00088F3A00080000000079
:10002000000000000000000000000000933A0008FB
:10003000953A000800000000973A0008993A000835
:10004000831C0008831C0008831C0008831C000814
:10005000831C0008831C0008831C0008831C000804
:10006000831C0008831C0008831C0008831C0008F4
:10007000831C0008831C0008831C0008831C0008E4
:10008000831C0008831C0008831C0008831C0008D4
:10009000831C0008831C0008831C0008831C0008C4
:1000A000831C0008831C0008831C0008831C0008B4
:1000B000831C00089B3A0008831C0008831C00086E
:1000C000831C0008831C0008831C0008831C000894
:1000D000831C00085B3D0008831C0008831C00088B
:1000E000831C0008831C0008831C0008831C000874
:1000F000831C0008831C0008831C0008831C000864
:10010000831C0008831C0008831C0008831C000853
:10011000831C0008831C0008831C0008831C000843
:10012000831C0008831C0008831C0008831C000833
:1001300000F002F800F03AF80AA090E8000C8244BF
:100140008344AAF10107DA4501D100F02FF8AFF29C
:10015000090EBAE80F0013F0010F18BFFB1A43F0A5
:10016000010318473C5900005C590000103A24BFB5
:1001700078C878C1FAD8520724BF30C830C144BF0C
:1001800004680C607047000000230024002500264E
:10019000103A28BF78C1FBD8520728BF30C148BFEA
:1001A0000B6070471FB51FBD10B510BD03F06EFE8C
:1001B0001146FFF7F7FF00F009F803F09FFE03B4C4
:1001C000FFF7F2FF03BC03F06BFD000003F0F0FB50
:1001D00003F072FC4FF4E13003F070FD00F057FEC5
:1001E00000F0BBFC29E001F065FB1E4801F005FBB7
:1001F0001D49087008460078402812D100201B498C
:10020000086018480078F02810D11648C07B0E28E6
:100210000CD114484078012808D1FA20144908600C
:1002200004E012480068401C104908600F4800684C
:10023000142802DD00200E490860D4E708B501212A
:10024000202002F0B5F84FF40050ADF80000102067
:100250008DF8030001208DF802006946054801F081
:10026000F1FD08BDBC000020100000200C000020A3
:1002700014000020001401400FB5A3B0FE4801682F
:10028000006805F0A7F91B90FC480168FA4800686F
:1002900005F0A0F91A90FA480168F748006805F0DF
:1002A00099F91990F7480168F348006805F092F948
:1002B0001890F2480168006805F08CF91790F04832
:1002C0000168EE48006805F085F91690ED48016870
:1002D000EA48006805F07EF91590E9480168006871
:1002E00005F078F91490E7480168E548006805F0E2
:1002F00071F91390E3480168006805F06BF91290FA
:10030000DDE9230105F066F91090259905F062F901
:100310000021119005F08EF801D127B000BD25997C
:10032000084605F057F90C902499084605F052F953
:100330000A902399084605F04DF909900A9904F0AE
:1003400049FF0B900C9904F045FF0D9004F016FF47
:10035000CDE90E0104F05AF9CDE9100104F07CF961
:100360002290DDE9221004F0A3FF23902299249823
:1003700004F09EFF24902299259804F099FF25907F
:100380001999159805F024FA4FF08041119005F065
:1003900021F9219013991A9804F01CFF4FF0804125
:1003A000119005F017F9209017991B9805F010FA95
:1003B0001090149905F00CFA1190129904F00AFFAC
:1003C0001F902099259805F005F911901F99249800
:1003D00005F000F91090119905F0FAF91E901F9997
:1003E000239805F0F7F811902199259805F0F2F877
:1003F0001090119905F0ECF91D902199249805F0C1
:10040000E9F811902099239805F0E4F810901199DB
:1004100005F0DEF91C909C491E9805F0DBF8119060
:100420009A480168119804F0D5FE984908609649E9
:100430001D9805F0CFF8119095480168119804F0C7
:10044000C9FE9349086090491C9805F0C3F81190C3
:1004500090480168119804F0BDFE8E4908608B48F1
:10046000006804F08BFECDE90E011E9804F086FEB4
:10047000894A8A4BCDE9060104F070FBCDE90A01F7
:10048000269804F07BFECDE90801DDE90A2304F09B
:1004900015F9CDE90C01DDE90E2304F00FF9CDE9E2
:1004A000100104F0D9F826907948006804F066FE3F
:1004B000CDE90E011D9804F061FE774A774BCDE936
:1004C000060104F04BFBCDE90A01289804F056FE22
:1004D000CDE90801DDE90A2304F0F0F8CDE90C01CB
:1004E000DDE90E2304F0EAF8CDE9100104F0B4F8D8
:1004F00028906848006804F041FECDE90E011C9880
:1005000004F03CFE644A654BCDE9060104F026FB8D
:10051000CDE90A01299804F031FECDE90801DDE9B1
:100520000A2304F0CBF8CDE90C01DDE90E2304F039
:10053000C5F8CDE9100104F08FF8299051482999A8
:10054000006805F047F80F904D482899006805F0BD
:1005500041F80D904948006880F000400B902699C2
:1005600005F038F80C900D9905F032F90E900F99BE
:1005700005F02EF94A49109005F02CF811903E48EC
:100580000168119804F026FE3B4908603D4828990F
:10059000006805F01FF80F9039482999006805F0A8
:1005A00019F80D9034482699006805F013F80C905E
:1005B0000D9904F00FFE0E900F9905F009F93849D6
:1005C000109005F007F811902C480168119804F07C
:1005D00001FE2A4908602B482699006804F0FAFFBA
:1005E0000F9026482999006804F0F4FF0D902248E6
:1005F0002899006804F0EEFF0C900D9905F0E8F8DA
:100600000E900F9904F0E6FD2549109004F0E2FFEA
:1006100011901B480168119804F0DCFD184908602E
:1006200017482699006804F0D5FF0F9013482899C1
:10063000006804F0CFFF0D900F482999006804F07E
:10064000C9FF0C900D9904F0C5FD0E900F9905F0AF
:10065000BFF81349109004F0BDFF119009480168DC
:10066000119804F0B7FD0749086008460168006862
:1006700004F0B0FF0C9015E0180000201C000020D2
:1006800020000020240000206F12833A2800002060
:100690002C000020300000209A9999999999F93FEF
:1006A0000AD7A33B85480168006804F093FF0A90CD
:1006B00083480168006804F08DFF08908148016854
:1006C000006804F087FF0790089904F083FD099003
:1006D0000A9904F07FFD0B900C9904F07BFD0D90BE
:1006E00004F04CFDCDE90E0103F090FFCDE91001BF
:1006F00003F0B2FF229073482299006804F0D8FDFD
:10070000704908606E482299006804F0D1FD6C4978
:1007100008606A482299006804F0CAFD67490860C9
:1007200069482299006804F0C3FD674908600846DB
:1007300001684FF0804004F04DFF05906248016869
:10074000059804F047FF07905C4801684FF040406F
:1007500004F040FF059059480168059804F03AFFFD
:100760000690079905F034F84FF07E51089004F098
:1007700031FD099004F002FDCDE90C0152480068FA
:1007800004F0FCFCCDE904014E48006804F0F6FCDE
:1007900000224FF08043CDE9000104F0DFF9CDE9FC
:1007A0000201DDE9042304F0D9F9CDE90801434849
:1007B000006804F0E3FCCDE904014148006804F05E
:1007C000DDFC00224FF08043CDE9000104F0C6F9C2
:1007D000CDE90201DDE9042304F0C0F9CDE9060109
:1007E000DDE9082303F06AFFCDE90A01DDE90C2306
:1007F00003F04CFE4FF00052344BCDE90E0104F0F3
:10080000ADF9CDE9100103F027FF314908602E480A
:1008100001682A48006804F0DDFE09902848016854
:100820002848006804F0D6FE0890099904F0D2FC2C
:100830004FF080410A9004F0CDFE0B9004F09EFC36
:10084000CDE90C0103F0D2FB4FF000521F4BCDE974
:100850000E0104F083F9CDE9100103F0FDFE1D49FE
:100860000860194801681648006804F0B3FE099052
:10087000124801681348006804F0ACFE089009991A
:1008800004F0A6FF4FF080410A9004F0A3FE0B9005
:1008900004F074FCCDE90C0103F0A8FB4FF000520A
:1008A0000A4BCDE90E0104F059F9CDE9100103F02E
:1008B000D3FE0949086000BF2FE50000200000209A
:1008C0001C0000201800002024000020DCA54C4063
:1008D00008000020000000200400002070B505463C
:1008E0000C46D048806940F40060CE498861CE480B
:1008F000006820F47040CC4908600846006840F465
:1009000030400860C948008840F0C000C7490880EE
:10091000C64818380580001F0480C4482C38008859
:1009200040F06000C1492C3908800846008840F03A
:1009300008000880081D008840F4C040091D088098
:100940000846008840F400600880081D008840F0D8
:100950000100091D08800846008840F48050088086
:10096000B2484438008840F08000B04944390880DB
:100970000846008840F001000880AC48008840F438
:100980000040AA4908800021A848443802F0D0FF5E
:1009900070BD30B589B005460C460121042001F038
:1009A00014FD0121082001F003FD4FF40070ADF8A3
:1009B000200018208DF8230003208DF8220008A9BC
:1009C0009B4801F03FFA681E80B2ADF81800ADF800
:1009D00014400020ADF81A001020ADF8160005A94B
:1009E000944802F0ABF97020ADF804000120ADF896
:1009F00006000220ADF80C0001A98E4802F0B5FAFD
:100A000008218C4802F045FE01218A4802F0F2FCE0
:100A10000021884802F08CFF09B030BD30B589B0A4
:100A200005460C460121022001F0CFFC01210820DF
:100A300001F0BEFC0220ADF8200018208DF8230044
:100A400003208DF8220008A9794801F0FBF9681EFF
:100A500080B2ADF81800ADF814400020ADF81A00CF
:100A60001020ADF8160005A9734802F067F9702050
:100A7000ADF804000120ADF806000220ADF80C002E
:100A800001A96D4802F071FA08216B4802F001FEDD
:100A900001221146684802F0C8FC1D208DF80000B4
:100AA00002208DF8010000208DF8020001208DF851
:100AB0000300684601F0FDF801215F4802F09AFC4E
:100AC00000215D4802F034FF09B030BD30B589B077
:100AD00005460C460121084601F077FC012104205F
:100AE00001F066FC40F60800ADF8200018208DF8F3
:100AF000230003208DF8220008A94B48001F01F0B5
:100B0000A1F9681E80B2ADF81800ADF814400020BD
:100B1000ADF81A001020ADF8160005A9800602F005
:100B20000DF97020ADF804000120ADF80600022098
:100B3000ADF80C0001A9400702F017FA0821C80619
:100B400002F0A7FD0121880702F054FC00214FF0BC
:100B5000804002F0EDFE09B030BD10B540F2CF216B
:100B60004FF47A70FFF7B2FF40F2CF214FF47A7062
:100B7000FFF754FF40F2CF214FF47A70FFF709FFDF
:100B800023214FF47A70FFF7A9FE00214FF0804037
:100B900002F0CEFE0021284802F0CAFE00212548BE
:100BA00002F0C6FE00212148443802F0C1FE10BD0B
:100BB0002DE9F04104460D4616461F46B4F5617F07
:100BC00001DD4FF46174B5F5617F01DD4FF46175AE
:100BD000B6F5617F01DD4FF46176B7F5617F01DD28
:100BE0004FF46177012C00DA0024012D00DA002592
:100BF000012E00DA0026012F00DA0027A1B24FF003
:100C0000804002F095FEA9B20B4802F091FEB1B20D
:100C10000648443802F08CFEB9B2064802F088FE5D
:100C2000BDE8F0810010024004080140442C01405E
:100C3000000C0140000800400004004010B5FE48D0
:100C4000006820F07040FC4908600846006840F0E9
:100C5000405008600020F94908604FF0040002F09D
:100C6000C0FE0120F649C1F89801052002F0B9FE46
:100C70000120F24908604FF0050002F0B2FE10BDFD
:100C800010B50024EC48006820F07040EA49086084
:100C90000846006840F0004008600120E94908600B
:100CA00002F09FFE07E0601CC4B2FA2C03DDFFF7E0
:100CB000C5FF012010BDE44800680028F3D1E149D8
:100CC000086000BFF6E770B50446DB48006820F016
:100CD0007040D94908600846006840F040500860FC
:100CE000002519E0E609D54806604FEA44604FEA5E
:100CF00010644FF0010002F074FE0120D049C1F8E9
:100D0000980102F06EFE0020CE4908604FF001000D
:100D100002F067FE681CC5B2082DE3DBFFF7B0FFE9
:100D200070BD10B5C448006820F07040C24908602A
:100D30000846006840F0405008600120BF49086044
:100D4000BF49C1F8980102F04CFE0020BB49086081
:100D50004FF0010002F045FE0020B949C1F89801AA
:100D600010BD70B505460C46FFF7DBFFD020FFF73E
:100D7000AAFF2846FFF7A7FF2046FFF7A4FFFFF7CB
:100D80005DFF70BD10B50446AC4804604FF0020032
:100D900002F027FE0120AA49C1F89801052002F0BF
:100DA00020FE0020A74908604FF0020002F019FE63
:100DB00010BD70B50024A048006820F070409E4926
:100DC00008600846006840F04050086001209B49D8
:100DD00008609948006820F070409749086008460C
:100DE000006840F0004008604FF0000515E0012069
:100DF0009449086002F0F5FD6006040E9048D0F8B2
:100E00001C0108B1601CC4B200208E4908604FF07C
:100E1000010002F0E6FD681CC5B2082DE7DB2046A4
:100E200070BD70B50446FFF77CFFD020FFF74BFF85
:100E30002046FFF748FFFFF774FFD120FFF743FF7D
:100E4000FFF7B7FF05460120FFF79CFFFFF7F6FE0F
:100E5000284670BD08B50121082001F0A9FAC0207C
:100E6000ADF8000010208DF8030003208DF802007B
:100E70006946714800F0E6FFC0216F4801F08DF827
:100E80000120704908606E49C1F89C0108BD10B589
:100E9000FFF7E0FF7520FFF7C4FF044606E06BA0F4
:100EA00002F0A2FF7520FFF7BCFF0446682CF6D1C4
:100EB0006BA002F099FF00216B20FFF752FF072182
:100EC0001920FFF74EFF06211A20FFF74AFF1821CD
:100ED0001B20FFF746FF01211C20FFF742FF10BD3A
:100EE00070B504462046FFF79CFF0546611CC8B25A
:100EF000FFF797FF064606EB052000B270BD2DE90F
:100F0000FF5F8EB014461D46DDE91CABCDE90CAB8E
:100F1000CDE90A4500BF5D4803C8CDE908015C4939
:100F2000DDE90A2303C903F0C9FB80468946404630
:100F30004946DDE90C2303F0C1FB02460B46CDE92F
:100F400002014046494603F075FCCDE90401DDE9A4
:100F50000823DDE90E0104F027F8CDE90001DDE901
:100F6000042303F0FBFDCDE90201DDE9082303F0D2
:100F7000A5FB06460F4600204649DDE9042304F0A0
:100F800013F842464B46CDE9020103F0E7FDCDE9F7
:100F900006013F4ADDE9060103C23C48C0C03046B5
:100FA000394612B0BDE8F09F2DE9FF5F8EB01446C0
:100FB0001D46DDE91CABCDE90CABCDE90A4500BF10
:100FC000354803C8CDE908013449DDE90A2303C9DE
:100FD00003F074FB8046894640464946DDE90C2310
:100FE00003F06CFB02460B46CDE902014046494640
:100FF00003F020FCCDE90401DDE90823DDE90E0161
:1010000003F0D2FFCDE90001DDE9042303F0A6FDE2
:10101000CDE90201DDE9082303F050FB06460F4647
:1010200000201C49DDE9042303F0BEFF42464B4685
:10103000CDE9020134E00000000C01409C81214216
:1010400000802142988121421C8121424D50553619
:10105000303535206572726F7220210D0A00000054
:101060002020202020202020202020202020202080
:101070002020202020204D50553630353520535526
:10108000434553532120210D0A0000005800002041
:10109000600000200000F03F4800002050000020C9
:1010A00003F05CFDCDE90601FE4ADDE9060103C25D
:1010B000FD48C0C03046394612B0BDE8F09F2DE96A
:1010C000FF5F8EB014461D46DDE91CABCDE90CABCD
:1010D000CDE90A4500BFF54803C8CDE90801F44948
:1010E000DDE90A2303C903F0E9FA80468946404650
:1010F0004946DDE90C2303F0E1FA02460B46CDE94F
:1011000002014046494603F095FBCDE90401DDE9C3
:101110000823DDE90E0103F047FFCDE90001DDE919
:10112000042303F01BFDCDE90201DDE9082303F0F0
:10113000C5FA06460F460020DE49DDE9042303F028
:1011400033FF42464B46CDE9020103F007FDCDE9EE
:101150000601D74ADDE9060103C2D448C0C03046C3
:10116000394612B0BDE8F09F2DE9F04FA1B0432001
:10117000FFF7B6FEA0F11B08404604F0CBF91F9024
:101180004520FFF7ADFEA0F12908404604F0C2F962
:101190001E904720FFF7A4FE00F13008404604F0FF
:1011A000B9F91D903B20FFF79BFE804604F0B2F991
:1011B00081463D20FFF794FE804604F0ABF982465D
:1011C0003F20FFF78DFE804604F0A4F983460021FE
:1011D0001F9804F02FF911D100211E9804F02AF96C
:1011E0000CD100211D9804F025F907D100231A46DF
:1011F00019461846FFF7DCFC00BFFEE7AE491F9812
:1012000004F0E8F92090AC491E9804F0E3F9054693
:10121000A9491D9804F0DEF90646484603F0AEFFE2
:10122000CDE90A01A549A6480A46A64BCDE900101A
:10123000DDE90A01FFF743FFCDE90C0103F00CFAE9
:101240001C90504603F09AFFCDE90A019B489C4947
:1012500002469C4BCDE90001DDE90A01FFF7A4FE3F
:10126000CDE90C0103F0F8F91B90584603F086FF16
:10127000CDE90A01914992480A46924BCDE9001006
:10128000DDE90A01FFF73BFECDE90C0103F0E4F9CB
:101290001A904FF08D411C9804F00AF819904FF005
:1012A0008D411B9804F004F818904FF08D411A9866
:1012B00003F0FEFF1790CDE90056209BDDE91721D2
:1012C0001998FEF7D9FFCDE900567F48209B0268A8
:1012D0007E4801687E48006800F05AFB594658462F
:1012E00004F078F951460190504604F073F90090EB
:1012F000019903F06FFF804603F040FFCDE9020142
:1013000003F084F9CDE90601484603F037FFCDE943
:101310000401DDE9062303F08DFACDE9080102F0AE
:10132000A3FF4FF000526B4BCDE90A0103F016FC0E
:10133000CDE90C0103F090F9674908605946584619
:1013400004F048F949460190484604F043F90090FA
:10135000019903F03FFF804603F010FFCDE9020141
:1013600003F054F9CDE90601504603F007FFCDE93B
:101370000401DDE9062303F05DFACDE9080102F07E
:1013800073FF4FF00052534BCDE90A0103F0E6FB27
:10139000CDE90C0103F060F95049086088208DF810
:1013A0003800AF208DF839001C208DF83A0008462F
:1013B000006804F073F8000A8DF83B0047480068A5
:1013C00004F06CF80FFA80F84FEAE87008EB106050
:1013D0000012A8EB0020C0B28DF83C001D9804F06C
:1013E0005DF8000A8DF83D001D9804F057F80FFADB
:1013F00080F84FEAE87008EB10600012A8EB0020BC
:10140000C0B28DF83E0000208DF83F008DF84000FE
:101410008DF841008DF842008DF843008DF84400AE
:101420008DF845008DF846008DF847008DF848008E
:101430008DF849008DF84A008DF84B008DF84C006E
:1014400027492348006804F0C5F8804604F026F8D0
:10145000000A8DF84D0022491D48006804F0BAF8D2
:101460000D9004F01BF80FFA80F84FEAE87008EBD3
:1014700010600012A8EB0020C0B28DF84E00184991
:101480001248006804F0A6F8804604F007F8000A45
:101490008DF84F0012490D48006804F09BF80D903C
:1014A00020E000005000002048000020380000200C
:1014B000400000200000F03F78978B3A9A99999964
:1014C0009999E93F9999C93F08000020040000203C
:1014D00000000020DCA54C40680000206C000020CB
:1014E0000000C84203F0DAFF0FFA80F84FEAE87014
:1014F00008EB10600012A8EB0020C0B28DF850007D
:1015000024492548006804F065F8804603F0C6FFCA
:10151000000A8DF851001F491F48006804F05AF86E
:101520000D9003F0BBFF0FFA80F84FEAE87008EB6C
:1015300010600012A8EB0020C0B28DF8520000200D
:101540008DF853008DF854008DF855008DF8560035
:101550000027002404E00EA8005D0744601CC4B20C
:101560001F2CF8DBF8B28DF8570000240DE00EA810
:10157000015D0A4801F0C0F800BF4021074801F0B2
:1015800029F90128F9D1601CC4B2202CEFDB21B06D
:10159000BDE8F08F00002041080000200038014025
:1015A00000B587B001210C2000F002FF01210803E3
:1015B00000F0FEFEE020ADF8180018208DF81B00AA
:1015C00001208DF81A0006A9E74800F03BFC042032
:1015D000ADF8180010208DF81B0001208DF81A00BE
:1015E00006A9E14800F02EFC1020ADF8180006A96D
:1015F000DD4800F027FC0120ADF818008DF81A0036
:1016000048208DF81B0006A9D84800F01BFC0120DB
:10161000D74908604FF00000ADF804004FF4827025
:10162000ADF806004FF00000ADF80800ADF80A0074
:10163000ADF80C004FF40070ADF80E004FF0100044
:10164000ADF810004FF00000ADF812004FF00700A9
:10165000ADF8140001A9C74801F03CF90121C548C3
:1016600001F0DDF907B000BD70B50546002405E0C6
:10167000601CC4B2C82C01DD002070BD0221BD4831
:1016800001F051FA0028F3D02946BA4801F0F8F9E0
:10169000002405E0601CC4B2C82C01DD0020ECE78A
:1016A0000121B44801F03FFA0028F3D0B14801F01D
:1016B000E9F9C0B2E1E710B5044600BF0221AD4828
:1016C00001F031FA0028F9D02146AA4801F0D8F9F2
:1016D00000BF0121A74801F026FA0028F9D0A5484B
:1016E00001F0D0F9C0B210BD2DE9F04107460D461A
:1016F00016460020A0490860A049C1F8900138466C
:10170000FFF7D9FF8046002405E0FF20FFF7D3FF55
:101710002855601CC4B2B442F7DB0120944908602C
:101720004046BDE8F0812DE9F04107460C461546DC
:101730000020914908609149C1F890013846FFF7AF
:10174000BAFF8046002605E014F8010BFFF7B3FF4F
:10175000701CC6B2AE42F7DB0120854908604046E6
:10176000BDE8F0811FB586A103C9CDE902010522BC
:1017700002A93020FFF7D7FF052269461020FFF7A6
:10178000B3FF002406E01DF80400C22800D003E0E7
:10179000601CC4B2052CF6DB00BF052C02D1012071
:1017A00004B010BD0020FBE770B505460C460020D4
:1017B000714908607149C1F890012846FFF77BFF25
:1017C00006462046FFF777FF01206949086030464A
:1017D00070BD70B504460020674908606749C1F8CC
:1017E00090012046FFF767FFFF20FFF764FF0546E3
:1017F00001205F490860284670BD70B5054642F279
:10180000107601205C49086000BF4FF00101574885
:1018100000F0A9FB18B13000A6F10106F5D10020B7
:10182000554908604FF00700FFF7D3FF04462146F3
:101830002720FFF7B9FF14F0400F0AD010222946E5
:101840006120FFF751FFFF21E220FFF7ADFF4020AD
:1018500070BD0020FCE770B50546002046490860D1
:101860004FF0100229464FF0A000FFF75CFF012067
:101870004249C1F8880100BF01213C4800F073FBD8
:101880000028F9D10720FFF7A4FF044621462720AE
:10189000FFF78AFFFF21E120FFF786FF14F0100F0A
:1018A00001D0102070BD14F0200F01D02020F9E7E6
:1018B0000020F7E710B500202F4908604FF005021F
:1018C00031494FF02A00FFF72EFF01212120FFF7B9
:1018D0006BFF01212220FFF767FF28212520FFF75A
:1018E00063FF10213120FFF75FFF0F212620FFF754
:1018F0005BFF0F212020FFF757FF01201F49C1F890
:10190000880110BD10B500201B4908604FF005028A
:101910001E494FF03000FFF706FF05221A492A2022
:10192000FFF701FF01212120FFF73EFF01212220C7
:10193000FFF73AFF1A212420FFF736FF2821252040
:10194000FFF732FF0F212620FFF72EFF0E21202068
:10195000FFF72AFF01200949C1F888014FF496706A
:1019600002F03FF810BD000000080140000C0140EB
:1019700090012142003001408801214200002142B3
:10198000C2C2C2C2C2000000790000207400002060
:101990002DE9FF4F8DB00E461C461A9D304603F0D0
:1019A000EDFB21F000410022A74BCDE9020103F03D
:1019B000D3F90AD90D9803F0E1FB21F00041002290
:1019C000A14BCDE9020103F0C7F9304603F0D6FB85
:1019D00021F0004100224FF08043CDE9020103F0E5
:1019E00081F80BD90D9803F0C9FB21F000410022CA
:1019F0004FF08043CDE9020103F074F8934800787A
:101A000014280DDD924801680D9803F0E3FB90491E
:101A100008604868314603F0DDFB8D49486003E00B
:101A200000208B490860486089494868894903F06B
:101A30009DFE03D287488649486008E0844948688B
:101A4000854903F093FD02D283488149486080496B
:101A50000868804903F08AFE03D27E487C4908600A
:101A600008E07B4908687C4903F080FD02D27A488F
:101A70007749086076494868002103F0ABFD83464A
:101A80000021304603F0A6FD5946039003F0A2FB67
:101A900008906F490868002103F09CFD83460021EF
:101AA0000D9803F097FD5946039003F093FB0790C0
:101AB00066480078142812DD2946089803F088FE4D
:101AC0008346059903F086FB05902146079803F0AD
:101AD0007FFE8346049903F07DFB049002E0002022
:101AE000059004905D480168284603F071FE834626
:101AF000002103F06FFD5A4903904868002103F06C
:101B000069FD01902946089803F062FE4FF07E516E
:101B1000009003F05FFD8346019903F05BFB0290A8
:101B2000039903F057FB0B904E480168204603F0E1
:101B30004FFE8346002103F04DFD4949039008689C
:101B4000002103F047FD01902146079803F040FE75
:101B50004FF08041009003F03DFD8346019903F072
:101B600039FB0290039903F035FB0A903B4805606E
:101B70003C48046000200A9034480078142859DD5D
:101B80003248007803F0DEFC01900B9903F020FE50
:101B900002900A9903F01CFE0021039003F01AFB47
:101BA000834603F097FC00F0FF092848007803F013
:101BB000C9FC01900B9903F00DFB02900A9903F008
:101BC00007FE8346002103F003FE039003F082FC2E
:101BD00000F0FF0A1D48007803F0B4FC01900B9957
:101BE00003F0F8FA02900A9903F0F4FA0021039046
:101BF00003F0F0FA834603F06DFCC7B21348007897
:101C000003F0A0FC01900B9903F0E2FD83460A99D2
:101C100003F0E0FA0021029003F0DCFA039003F0F5
:101C200059FC00F0FF0853464A4641463846FEF745
:101C3000BFFF05E000231A4619461846FEF7B8FF15
:101C400011B0BDE8F08F00000000494014000020F2
:101C5000DC00002000001644000016C484000020B0
:101C6000E80000208000002009488047094800471C
:101C7000FEE7FEE7FEE7FEE7FEE7FEE7FEE7FEE73C
:101C8000FEE7FEE704480549054A064B7047000099
:101C9000A13B00083101000820020020200800209C
:101CA000200400202004002031490143314A116002
:101CB000704770B5002100230F22C4780CB32D4C5F
:101CC000246804F4E064C4F5E064210AC1F104036B
:101CD000CA40447804FA03F184781440214309018E
:101CE000254C0678A155047804F01F050124AC406A
:101CF00005786D114FF0E02606EB8505C5F800412B
:101D000009E0047804F01F050124AC401B4D06785F
:101D1000761145F8264070BD194A0A400243154B1A
:101D20001B1F1A60704739B1124A121D1268024314
:101D3000104B1B1D1A6006E00E4A121D12688243EA
:101D40000C4B1B1D1A607047042808D14FF0E0218E
:101D5000096941F004014FF0E022116107E04FF002
:101D6000E021096921F004014FF0E0221161704780
:101D70000000FA050CED00E000E400E080E100E086
:101D800080FFFF1F10B50446CA48844208D10121D4
:101D9000042000F027FB0021042000F023FB46E094
:101DA000C548844208D10121082000F01BFB002116
:101DB000082000F017FB3AE0C048844208D1012116
:101DC000102000F00FFB0021102000F00BFB2EE094
:101DD000BB48844208D10121202000F003FB0021F0
:101DE000202000F0FFFA22E0B648844208D1012109
:101DF000402000F0F7FA0021402000F0F3FA16E04E
:101E0000B148844208D10121802000F0EBFA002182
:101E1000802000F0E7FA0AE0AC48844207D10121B3
:101E2000801500F0DFFA0021A01500F0DBFA10BDEC
:101E300010B50121084600F0D5FA0021012000F07C
:101E4000D1FA10BD2DE9F041024600250026002000
:101E500000230024002791F803C00CF00F0591F82F
:101E600003C01CF0100F03D091F802C04CEA050526
:101E700091F800C0BCF1000F31D0146800202BE0B5
:101E80004FF0010C0CFA00F3B1F800C00CEA0306A5
:101E90009E4220D183004FF00F0C0CFA03F7BC4395
:101EA00005FA03FC4CEA040491F803C0BCF1280FC6
:101EB00006D14FF0010C0CFA00FCC2F814C00AE085
:101EC00091F803C0BCF1480F05D14FF0010C0CFA9A
:101ED00000FCC2F810C0401C0828D1D31460B1F82F
:101EE00000C0BCF1FF0F34DD546800202EE000F18B
:101EF000080C4FF0010808FA0CF3B1F800C00CEA26
:101F000003069E4221D183004FF00F0C0CFA03F719
:101F1000BC4305FA03FC4CEA040491F803C0BCF18D
:101F2000280F05D100F1080C08FA0CF8C2F814804B
:101F300091F803C0BCF1480F07D100F1080C4FF035
:101F4000010808FA0CF8C2F81080401C0828CED30B
:101F50005460BDE8F0814FF6FF710180022181706D
:101F60000421C17070470246002093680B4201D0E3
:101F7000012000E0002070470146886880B2704769
:101F800002460020D3680B4201D0012000E000206F
:101F900070470146C86880B270470161704741616F
:101FA00070470AB1016100E041617047C16070474C
:101FB0004FF480320A438261816182618269826961
:101FC000704702460020424B18684FF68073184055
:101FD00040EA021008433E4B186070473D49C86113
:101FE0007047F0B50A46002300240021002500F0C8
:101FF0000046B6F1004F02D1354EF16901E0344E92
:102000007168C0F3034583B200F44016B6F5401F73
:1020100008D121F070612E4E766826F070662C4F44
:102020007E6012E000F48016B6F5801F06D103260C
:1020300006FA05F4A14341F0706106E0460D360151
:1020400003FA06F6B14341F0706122B1460D360144
:1020500003FA06F6314300F00046B6F1004F02D114
:102060001B4EF16101E01A4E7160F0BD30B50022E7
:102070008B071C0F0F2303FA04F2154B08338C1047
:1020800053F824309343124C08348D1044F8253013
:1020900023468C1053F824308C07240F00FA04F4E4
:1020A00023430B4C08348D1044F8253030BD0A49C9
:1020B0000860704700080140000C0140001001401A
:1020C0000014014000180140001C014000200140A4
:1020D0000000014000002042DC002042DD48006892
:1020E00040F00100DB49086008464068DA490840D2
:1020F000D849486008460068D8490840D549086072
:102100000846006820F4802008600846406820F4F3
:10211000FE0048604FF41F0088607047CD49096891
:1021200021F48031CB4A11601146096821F48021E5
:102130001160B0F5803F03D0B0F5802F0ED106E0DE
:10214000C449096841F48031C24A116007E0C149BD
:10215000096841F4A021BF4A116000E000BF00BF40
:10216000704710B501460022002300204A11012AC1
:1021700002D1B84C236806E0022A02D1B54C236A8A
:1021800001E0B44C636A01F01F02012494401C4238
:1021900001D0012000E0002010BD38B500200090E3
:1021A0000024002500BF3120FFF7DBFF0546009823
:1021B000401C00900098B0F5A06F01D0002DF2D027
:1021C0003120FFF7CEFF08B1012400E000242046B3
:1021D00038BD014600209F4A106820F0F80040EA10
:1021E000C100106070479E49086070470246002099
:1021F000984B586820F47C1042EA01031843954B31
:102200005860704796490866704701460020914A19
:10221000506820F003000843506070478D484068C4
:1022200000F00C007047014600208A4A506820F0F8
:10223000F00008435060704701460020854A50680E
:1022400020F4E06008435060704701460020814A56
:10225000506820F4605040EAC1005060704729B1D6
:102260007C4A527A02437B4B5A7204E0794A527A92
:102270008243784B5A7270477A490860704701462A
:102280000020744A506820F4404008435060704772
:102290000021754A11706F4A82F82010012802D07F
:1022A000042808D103E001216F4A117004E00521E0
:1022B0006D4A117000E000BF00BF70476B490860B5
:1022C00070476449096A0143624A1162704767496D
:1022D00044390860704730B50021002200240023F3
:1022E0005C4D6D6805F00C0121B1042905D0082969
:1022F00023D105E05E4D056022E05D4D05601FE0E5
:10230000544D6D6805F47012524D6D6805F48034BB
:10231000022505EB92421CB9564D554305600BE072
:102320004C4D6D6815F4003F03D0524D5543056088
:1023300002E04F4D5543056002E04D4D056000BF82
:1023400000BF444D6D6805F0F00109094A4D6B5C12
:102350000568DD4045603F4D6D6805F4E061090AA0
:10236000454D6B5C4568DD4085603A4D6D6805F410
:102370006051C90A404D6B5C4568DD40C560354D14
:102380006D6805F44041890B3C4D6B5CC568B5FB3D
:10239000F3F5056130BD29B12E4A526902432D4B38
:1023A0005A6104E02B4A526982432A4B5A617047B2
:1023B00029B1284A92690243264B9A6104E0254AD2
:1023C00092698243234B9A61704729B1214AD269AD
:1023D0000243204BDA6104E01E4AD26982431D4B5E
:1023E000DA61704729B11B4AD2680243194BDA609F
:1023F00004E0184AD2688243164BDA60704729B16C
:10240000144A12690243134B1A6104E0114A12691B
:102410008243104B1A617047144940390860704775
:102420000F49C86470470B49C87170470948406A32
:1024300040F0807007494862704701460020054A15
:1024400092680A4201D0012000E000207047014953
:1024500088727047001002400000FFF8FFFFF6FE90
:1024600000004242D8004242201002408004424212
:1024700000127A0000093D0088000020980000202A
:1024800010B50446FB48844209D101218803FFF7B7
:10249000A9FF00214FF48040FFF7A4FF32E0F64887
:1024A000844209D101214804FFF7A9FF00214FF41C
:1024B0000030FFF7A4FF25E0F048844209D1012154
:1024C0008804FFF79CFF00214FF48020FFF797FF5F
:1024D00018E0EB48844209D10121C804FFF78FFFBF
:1024E00000214FF40020FFF78AFF0BE0E54884420B
:1024F00008D101210805FFF782FF00214FF4801069
:10250000FFF77DFF10BD2DE9F04786B005460E466A
:102510000024A24600BFA1460027B08900B100BF39
:102520002F462C8A4CF6FF700440F08804432C821E
:10253000AC894EF6F3100440B088318908437189A4
:1025400008430443AC81AC8A4FF6FF400440B08995
:102550000443AC8201A8FFF7BEFEC648874202D101
:10256000DDF810A001E0DDF80CA0A88910F4004F00
:1025700008D00AEBCA0000EB0A1031684900B0FB32
:10258000F1F807E00AEBCA0000EB0A103168890095
:10259000B0FBF1F86420B8FBF0F0040120096421DD
:1025A00001FB1089A88910F4004F08D0322000EBFD
:1025B000C900B0FBF1F000F00700044308E032204E
:1025C00000EB09106421B0FBF1F000F00F000443B0
:1025D0002C8106B0BDE8F0874FF416510160002150
:1025E0008180C18001810C2141810021818170475E
:1025F00010B502460020108A4FF2FF0318400B88E6
:102600004C8823438C882343CC882343184310826F
:1026100010BD0021018041808180C180704721B1BF
:10262000828942F40052828104E082894DF6FF7370
:102630001A4082817047F0B5034600240026002529
:102640000020A1F510676A3F00D100BF1846C1F312
:10265000421401F01F06012707FA06F5012C01D1EB
:102660000C3004E0022C01D1103000E014301AB11B
:1026700007682F43076002E00768AF430760F0BDBB
:102680001AB1838A0B43838202E0838A8B4383825D
:102690007047028A4FF6F0731A400282028A0A4398
:1026A0000282704782894FF2FF731A4082818289C9
:1026B0000A438281704721B1828942F002028281FD
:1026C00004E082894FF6FD731A4082817047028AC6
:1026D0004FF6DF731A400282028A0A430282704771
:1026E00021B1028A42F48042028204E0028A4BF65F
:1026F000FF731A4002827047C1F30802828070475C
:1027000001468888C0F308007047818941F00101C3
:1027100081817047028BD2B20283028B42EA01228E
:1027200002837047028B02F47F420283028B0A43CA
:102730000283704721B1828A42F02002828204E043
:10274000828A4FF6DF731A408282704721B1828AF3
:1027500042F01002828204E0828A4FF6EF731A4040
:102760008282704721B1828A42F00802828204E0AC
:10277000828A4FF6F7731A408282704721B18289AC
:1027800042F40042828103E08289C2F30E02828118
:10279000704721B1828A42F40062828204E0828A18
:1027A0004FF2FF731A4082827047828A4FF6FB73A2
:1027B0001A408282828A0A438282704721B1828AC9
:1027C00042F00202828204E0828A4FF6FD731A40D0
:1027D0008282704702460020B1F5007F00D100BF21
:1027E00013880B4201D0012000E00020704701F463
:1027F0000072B2F5007F00D100BFCA43028070476B
:1028000070B502460024002300250020A1F51066C3
:102810006A3E00D100BFC1F3421501F01F0301263B
:1028200006FA03F3012D02D19689334006E0022D0A
:1028300002D1168A334001E0968A33400C120126F9
:1028400006FA04F41688344013B10CB1012000E0FC
:10285000002070BD10B500220023A1F510646A3C71
:1028600000D100BF0A1201249440A3B2DC430480CB
:1028700010BD000000380140004400400048004006
:10288000004C00400050004010B50446BE48844251
:1028900008D101218014FFF7A5FD0021A014FFF746
:1028A000A1FD16E0B948844208D101210014FFF7C8
:1028B000A6FD00212014FFF7A2FD0AE0B4488442DF
:1028C00007D10121C013FFF79AFD0021E013FFF7A4
:1028D00096FD10BD10B50022028802F441520B880B
:1028E0004C8823438C882343CC8823430C8923437F
:1028F0004C8923438C892343CC8923431A43028088
:10290000838B4FF2FF74234083830B8A038210BDB5
:102910002DE9F04F85B005460C464FF0000902271F
:102920004FF000084FF0010B0026B246A88B4FF283
:1029300040010840A88302202884B5F81C90A068B4
:10294000022801D100BF38E0A08810B94FF0010B78
:1029500001E04FF0020B8D48854200D100E000BF3E
:102960006846FFF7B8FCDDF800A0E088B0F5007F0E
:102970000AD14FEA1A2000EB80004000A168B0FBAA
:10298000F1F0401D86B20BE04FEA4B10BAFBF0F0BD
:1029900000EB80004000A168B0FBF1F0401D86B262
:1029A0000A20B6FBF0F606F00108A6EB0800C0F31B
:1029B0004F074FF6FF7000EA0828022F01DBFF2FB8
:1029C00002DD02274FF00008E08840EA08003843A3
:1029D0002884A088A1890843618808432188084386
:1029E00040F4006040EA0909A5F81C9005B0BDE874
:1029F000F08F0021018041808180C180018141816F
:102A00008181C181072101827047002101804180BD
:102A10008180C1800221816000218181704721B1C4
:102A2000028842F04002028004E002884FF6BF7341
:102A30001A400280704721B1828B42F48062828307
:102A400004E0828B4FF6FF331A408283704730B523
:102A5000002400230C110125A540ABB21AB18588D2
:102A60001D43858002E085889D43858030BD1AB175
:102A700083880B43838002E083888B438380704785
:102A800081817047014688897047A1F57E42FF3AEF
:102A900004D0028842F48072028004E002884FF67B
:102AA000FF631A400280704721B1828842F004021D
:102AB000828004E082884FF6FB731A408280704760
:102AC00002884FF2FF731A40028002880A43028094
:102AD0007047018841F480510180704721B102881C
:102AE00042F40052028004E002884DF6FF731A405F
:102AF0000280704702460020012901D0108B00E0BF
:102B0000908A70470146088A7047B1F5804F04D11A
:102B1000028842F48042028004E002884BF6FF7390
:102B20001A40028070470246002013890B4201D0F0
:102B3000012000E000207047CA4302817047F0B5D1
:102B40000246002000240023002501F00F07012683
:102B5000BE40B4B20B1101269E40B3B2968806EA7D
:102B600003051689264202D00DB1012000E00020A5
:102B7000F0BD10B5002201F00F040123A3409AB26A
:102B8000D343038110BD00000030014000380040F5
:102B9000003C004010B50446FE48844208D10121A3
:102BA000C014FFF71FFC0021E014FFF71BFCC4E07A
:102BB000B4F1804F08D101210846FFF720FC002125
:102BC0000120FFF71CFCB8E0F348844208D1012142
:102BD0000220FFF714FC00210220FFF710FCACE0FC
:102BE000EE48844208D101210420FFF708FC0021AF
:102BF0000420FFF704FCA0E0E948844208D1012149
:102C00000820FFF7FCFB00210820FFF7F8FB94E009
:102C1000E448844208D101211020FFF7F0FB002195
:102C20001020FFF7ECFB88E0DF48844208D1012147
:102C30002020FFF7E4FB00212020FFF7E0FB7CE0F1
:102C4000DA48844208D101214014FFF7CBFB002170
:102C50006014FFF7C7FB70E0D548844209D1012119
:102C6000C804FFF7BFFB00214FF40020FFF7BAFBB9
:102C700063E0D048844209D101210805FFF7B2FB87
:102C800000214FF48010FFF7ADFB56E0CA488442A4
:102C900009D101214805FFF7A5FB00214FF40010E1
:102CA000FFF7A0FB49E0C548844208D1012140203C
:102CB000FFF7A5FB00214020FFF7A1FB3DE0C04846
:102CC000844208D101218020FFF799FB0021802058
:102CD000FFF795FB31E0BB48844208D10121801504
:102CE000FFF78DFB0021A015FFF789FB25E0B64813
:102CF000844209D101210804FFF774FB00214FF43D
:102D00008030FFF76FFB18E0B048844209D1012101
:102D10004804FFF767FB00214FF40030FFF762FB28
:102D20000BE0AB48844208D101218804FFF75AFB2D
:102D300000214FF48020FFF755FB10BD00220288D0
:102D4000944B98420ED0994B98420BD0B0F1804FE3
:102D500008D0914B984205D0904B984202D0904BAE
:102D6000984204D14FF68F731A404B881A438D4B0B
:102D7000984207D08C4B984204D04FF6FF431A403C
:102D8000CB881A4302808B8883850B880385814B0F
:102D900098420BD0854B984208D08B4B984205D077
:102DA0008A4B984202D08A4B984201D10B7A038613
:102DB00001238382704770B5002400220023058C14
:102DC0004FF6FE7635400584028C8388048B4FF6DF
:102DD0008F752C40B51E2C400D882C43751E2A4043
:102DE0000D892A434D882A436A4DA8420BD06F4D66
:102DF000A84208D0744DA84205D0744DA84202D014
:102E0000734DA84213D14FF6F7752A404D892A43D6
:102E10004FF6FB752A408D882A434FF6FF652B40FD
:102E20004FF6FF552B408D892B43CD892B43838053
:102E30000483CD888586028470BD70B5002400228D
:102E40000023058C4FF6EF7635400584028C83888D
:102E5000048B48F6FF752C404FF6FF452C400D883B
:102E60004FF6FF7606EA05252C434FF6DF752A401C
:102E70000D8906EA05152A434D8806EA05152A43F9
:102E8000444DA84202D0494DA8421DD14FF67F754E
:102E90002A404D894FF6FF7606EA05152A434FF67C
:102EA000BF752A408D8806EA05152A434FF6FF357F
:102EB0002B404FF2FF752B408D8906EA85052B4389
:102EC000CD8906EA85052B4383800483CD88058759
:102ED000028470BD70B5002400220023058C4FF6DB
:102EE000FF6635400584028C8388848B4FF68F758E
:102EF0002C404FF6FC752C400D882C434FF6FF55A7
:102F00002A400D894FF6FF7606EA05252A434D88AB
:102F100006EA05252A431F4DA84202D0234DA842A8
:102F20001DD14FF2FF752A404D894FF6FF7606EA14
:102F300005252A434FF6FF352A408D8806EA0525E8
:102F40002A434EF6FF752B404DF6FF752B408D89B9
:102F500006EA05152B43CD8906EA05152B43838028
:102F60008483CD888587028470BD70B500220023DC
:102F70000024058C4EF6FF7635400584038C84884A
:102F8000828B48F6FF752A404FF6FF452A400D8890
:102F900020E00000002C0140000400400008004038
:102FA000000C0040001000400014004000340140BC
:102FB000004C014000500140005401400018004006
:102FC000001C00400020004000400140004401403F
:102FD000004801404FF6FF7606EA05252A434DF6E4
:102FE000FF752B400D8906EA05352B434D8806EA0F
:102FF00005352B43FA4DA84202D0FA4DA84208D11C
:103000004BF6FF752C408D894FF6FF7606EA851545
:103010002C4384808283CD88A0F84050038470BD07
:10302000828B4FF2FF331A408283828B4FF6FF73FD
:1030300003EA01231A4382837047F0B50C46154614
:10304000002200210026078C4EF6FF7C07EA0C07C1
:103050000784828B018C4FF6FF7707EA043640F62F
:10306000FF473A404FF6FF7707EA05273A434FF606
:10307000FF7707EA03373A43D94FB8420ED0D94F0A
:10308000B8420BD0B0F1804F08D0D74FB84205D02E
:10309000D64FB84202D0D64FB84206D14DF6FF7790
:1030A000394046F48057394305E047F6FF57394029
:1030B00044F48057394382830184F0BD828B4FF6FC
:1030C000F3731A408283828B0A4382837047F0B580
:1030D0000C461546002200210026078C4FF6FF6C97
:1030E00007EA0C070784828B018C4FF6FF7707EA0B
:1030F00004264FF60C773A404FF6FF7707EA03179E
:103100002F433A43B64FB8420ED0B64FB8420BD019
:10311000B0F1804F08D0B44FB84205D0B34FB84299
:1031200002D0B34FB84206D14FF6FF57394046F4AC
:103130008077394305E04FF2FF57394044F48077F8
:10314000394382830184F0BD028B4FF2FF331A4072
:103150000283028B4FF6FF7303EA01231A430283B3
:103160007047F0B50C461546002200210026078C5A
:103170004FF6EF7C07EA0C070784028B018C4FF6B1
:10318000FF7707EA041640F6FF473A404FF6FF770D
:1031900007EA03373A434FF6FF7707EA05273A4332
:1031A0008F4FB8420ED08F4FB8420BD0B0F1804F46
:1031B00008D08D4FB84205D08C4FB84202D08C4F0A
:1031C000B84206D14FF6DF77394046F01007394351
:1031D00005E04FF65F77394044F01007394302832A
:1031E0000184F0BD028B4FF6F3731A400283028B09
:1031F0000A4302837047F0B50C46154600220021B1
:10320000068C4FF6FE773E400684028B018C4FF60B
:103210000C7632407E1C06EA03162E433243704E73
:10322000B0420ED06F4EB0420BD0B0F1804F08D0FC
:103230006D4EB04205D06D4EB04202D06C4EB042E1
:1032400006D14FF6FD76314044F00106314305E0EA
:103250004FF6F576314044F0010631430283018494
:10326000F0BD70B505460C465D4885420ED05D4800
:1032700085420BD0B5F1804F08D05B48854205D020
:103280005A48854202D05A48854200D100E000BF2A
:10329000208850B92389A28861882846FFF7ABFFB0
:1032A000E1882846FFF79EFF25E0208804280AD100
:1032B0002389A28861882846FFF753FFE1882846C2
:1032C000FFF742FF17E0208808280AD12389A28847
:1032D00061882846FFF7FBFEE1882846FFF7EEFEEF
:1032E00009E02389A28861882846FFF7A6FEE188C5
:1032F0002846FFF795FE70BD2DE9F04105460C46C6
:1033000000260127608808B9022600E00026A08870
:10331000012801D1022700E001272088A0B92389D4
:10332000A28861882846FFF766FFE1882846FFF7F4
:1033300059FF23893A4631462846FFF712FFE188B4
:103340002846FFF701FF13E02389A28861882846F9
:10335000FFF707FFE1882846FFF7F6FE23893A4684
:1033600031462846FFF747FFE1882846FFF73AFF36
:10337000BDE8F0810A884B881A438B881A43CB88B2
:103380001A430B891A434B891A438B891A43A0F8B5
:10339000442070474FF6FF71818000210180C18079
:1033A0004180017270470021018041808180C1808D
:1033B000018141818181C18170470021018041806B
:1033C000012181800021C18001817047002101809D
:1033D00041808180C18001814181818170470000ED
:1033E000002C01400034014000040040000800406F
:1033F000000C004021B1028842F00102028004E08A
:1034000002884FF6FE731A400280704731B1B0F85F
:10341000442042F40042A0F8442005E0B0F84420E3
:10342000C2F30E02A0F8442070471AB183890B43FF
:10343000838102E083898B43838170478182704757
:1034400041EA0203A0F8483070471AB183890B4360
:10345000838102E083898B438381704701894FF622
:10346000F8721140018170470A46002101894FF628
:103470008F73194011430181704730B504460D46E2
:1034800029462046FFF7F0FF208940F00700208101
:1034900030BD2DE9F04104460D4616461F46602D0D
:1034A00006D13B46012231462046FFF75AFE05E091
:1034B0003B46012231462046FFF79DFE2946204625
:1034C000FFF7D2FF208940F007002081BDE8F0819E
:1034D00030B50C4600210189C9B24FF6FF7505EAE7
:1034E0000325154325432943018130BD2DE9F041D2
:1034F00005460E4617469846002443463A4631464E
:103500002846FFF7E5FF2C894FF6F870044044F099
:1035100007044FF68F70044044F070042C81BDE81E
:10352000F081F0B504460D4616461F463B4632462E
:1035300029462046FFF7CCFF208940F480402081B7
:10354000F0BD0185828270470A46002101884FF64E
:103550008F731940114301807047F0B50C46154632
:103560001E460021002200230189028B038C4FF6A6
:10357000F877394021434FF6FC473A4040F20117B3
:103580003A434FF6DD773B404FF6FF7707EA0617E1
:103590002F433B43018102830384F0BD0A4600218F
:1035A000018B4FF68F7319401143018370470A4610
:1035B0000021018B48F6FF7319404FF6FF7303EAB1
:1035C00002231943018370470A460021818B4FF67D
:1035D0008F7319401143818370470A460021818B04
:1035E00048F6FF7319404FF6FF7303EA02231943AD
:1035F0008183704721B1028842F08002028004E09A
:1036000002884FF67F731A400280704721B182888A
:1036100042F00402828004E082884FF6FB731A4075
:103620008280704721B1828842F00802828004E0E3
:1036300082884FF6F7731A408280704721B18288E2
:1036400042F00102828004E082884FF6FE731A4045
:10365000828070470A460021018B4FF6F7731940AC
:103660001143018370470A460021018B4FF2FF731B
:1036700019404FF6FF7303EA022319430183704791
:103680000A460021818B4FF6F7731940114381835D
:1036900070470A460021818B4FF2FF7319404FF6A5
:1036A000FF7303EA02231943818370470A4600210E
:1036B000018B4FF6FB7319401143018370470A4693
:1036C0000021018B4FF6FF3319404FF6FF7303EAD9
:1036D00002231943018370470A460021818B4FF66C
:1036E000FB7319401143818370470A460021818B87
:1036F0004FF6FF3319404FF6FF7303EA02231943D5
:10370000818370470A460021018B4FF67F73194071
:103710001143018370470A460021018BC1F30E015A
:103720004FF6FF7303EA02231943018370470A46E9
:103730000021818B4FF67F731940114381837047BD
:103740000A460021818BC1F30E014FF6FF7303EA95
:1037500002231943818370470A460021018C4FF6EA
:10376000FD7319401143018470470A460021018C02
:103770004FF6F77319401143018470470A46002140
:10378000018C4FF6DF7319404FF6FF7303EA021303
:103790001943018470470A460021018C4FF67F735C
:1037A00019404FF6FF7303EA02131943018470476F
:1037B0000A460021018C4FF6FF5319404FF6FF7364
:1037C00003EA02231943018470470A460021018C51
:1037D0004FF2FF7319404FF6FF7303EA02231943B8
:1037E000018470470A460021018C4DF6FF73194091
:1037F0004FF6FF7303EA023319430184704730B573
:10380000002301248C40A3B2048C9C430484048CC8
:1038100002FA01F5ADB22C43048430BD30B500236B
:1038200004248C40A3B2048C9C430484048C02FACC
:1038300001F5ADB22C43048430BD70B503460020C1
:1038400000241846183001258D40ACB21D8CA543CC
:103850001D8409B1082909D100EB6100056825F034
:10386000700505600568154305600EE00D1FC5F382
:103870004E052844056825F4E045056005684FF6C7
:10388000FF7606EA02263543056070BD21B1028845
:1038900042F00202028004E002884FF6FD731A40F3
:1038A0000280704721B1028842F00402028004E0E5
:1038B00002884FF6FB731A400280704721B182885C
:1038C00042F08002828004E082884FF67F731A40C3
:1038D0008280704702884FF6F7731A400280028890
:1038E0000A430280704782884FF68F731A408280A5
:1038F00082880A438280704702894FF6F8731A4023
:10390000028102890A430281704702894FF67F7360
:103910001A40028102890A430281704781847047FC
:10392000818570478186704701877047818770471E
:10393000A0F84010704702884FF6FF431A400280FB
:1039400002880A43028070470146888E704701460C
:10395000088F70470146888F70470146B1F84000D4
:1039600070470146888C70470146088D70470246B3
:103970000020138A0B4201D0012000E00020704794
:10398000CA430282704730B502460020002300245B
:10399000158A05EA0103958905EA010413B10CB102
:1039A000012000E0002030BDCA43028270470000C1
:1039B00010B56FF00400FEF7C7F92D4800682D49D7
:1039C000B0FBF1F02C4908700846007800EB40018C
:1039D000C1EBC0104FF6FF7101EAC0002749088013
:1039E00010BD0146244A12784A434FF0E0235A6141
:1039F00000229A611A46126942F001021A6100BF60
:103A00004FF0E022106910F0010F02D010F4803F57
:103A1000F6D04FF0E022126922F001024FF0E023CD
:103A20001A6100229A6170470146144A12884A437B
:103A30004FF0E0235A6100229A611A46126942F05F
:103A400001021A6100BF4FF0E022106910F0010F6F
:103A500002D010F4803FF6D04FF0E022126922F03D
:103A600001024FF0E0231A6100229A6170470000C2
:103A7000A000002000127A009C0000209E00002080
:103A8000704700BFFEE700BFFEE700BFFEE700BFD4
:103A9000FEE7704770477047704710B50121054831
:103AA000FFF771FF28B101210248FFF77DFFFDF705
:103AB0005BFB10BD0004004010B54FF4A060FEF7A2
:103AC000F3F810BD0CB50020019000906B48006821
:103AD00040F480306949086000BF6848006800F41D
:103AE000003000900198401C0190009818B901988E
:103AF000B0F5A06FF1D16148006810F4003F02D02A
:103B00000120009001E0002000900098012842D19F
:103B10005B48006840F0100059490860084600689A
:103B200020F0030008600846006840F002000860CA
:103B30005248406851494860084640684860084615
:103B4000406840F4806048600846406820F47C107B
:103B500048600846406840F4E8104860084600683D
:103B600040F08070086000BF4448006810F0007F9B
:103B7000FAD04248406820F00300404948600846B7
:103B8000406840F00200486000BF3C48406800F0D8
:103B90000C000828F9D10CBD10B5FFF793FF10BD3C
:103BA00010B53648006840F0010034490860084606
:103BB0004068344908403149486008460068324945
:103BC00008402E4908600846006820F480200860FC
:103BD0000846406820F4FE0048604FF41F008860EB
:103BE000FFF7DAFF4FF000602849086010BD10B5FC
:103BF000002100200022214B5B6803F00C0121B161
:103C0000042906D0082928D107E0214B214C236044
:103C100027E01F4B1F4C236023E0184B5B6803F425
:103C20007010164B5B6803F48032022303EB904064
:103C300022B9194B4343174C23600DE00F4B5B68CF
:103C400013F4003F04D0144B4343124C236003E0B1
:103C50000F4B43430F4C236003E00D4B0D4C23608F
:103C600000BF00BF054B5B68C3F303130B4CE15C63
:103C7000084B1B68CB40074C236010BD001002406E
:103C8000002002400000FFF8FFFFF6FE08ED00E014
:103C900000127A00A000002000093D00A4000020CE
:103CA000014600BF704700BF4A4A128812F0400F19
:103CB000FAD0C2B2474B1B1D1A80704710B586B0B0
:103CC0000446012144F20400FEF772FB4148FEF76E
:103CD000D7FB4FF40070ADF8140003208DF81600E8
:103CE00018208DF8170005A93B48FEF7ABF84FF4F4
:103CF0008060ADF8140004208DF8170005A936483F
:103D0000FEF7A0F825208DF8000003208DF80100B3
:103D10008DF8020001208DF803006846FDF7C9FF09
:103D200001940020ADF80800ADF80A00ADF80C00D1
:103D3000ADF810000C20ADF80E0001A92548FEF7E3
:103D4000E2FB012240F225512248FEF774FC0121DA
:103D50002048FEF764FC06B010BD10B540F22551B6
:103D60001C48FEF74DFD10B31A48FEF7C9FCC4B25B
:103D70001A48008810F4004F2BD11848008810F41E
:103D8000804F0CD00A2C03D000201449088020E07A
:103D90001248008840F400401049088019E00D2CBA
:103DA00006D10E48008840F480400C49088010E09D
:103DB0000A480088C0F30D0009490C5407480088E0
:103DC000401C0649088008460088C72801DD0020FD
:103DD000088010BD0038014000080140B4000020F8
:103DE000F4000020704700000FB4044910B503AA86
:103DF000029800F015F810BC5DF814FBB800002024
:103E0000704770477047704710B500F01BF80068A6
:103E100010BD10B5044600F015F8046010BD000098
:103E2000074B70B50D467B4400F015F80446284654
:103E300000F024F810B14FF0FF3070BD204670BD87
:103E40007DFEFFFF00487047BC01002001694A1C4D
:103E500002610878704700B58FB0CDE901310021CB
:103E6000059105497944CDE903101146684600F0F3
:103E700032F80FB000BD0000E5FFFFFF007B00F04F
:103E80008000704700487047BC0100207546FFF76E
:103E9000F9FFAE4605006946534620F00700854607
:103EA00018B020B5FDF7EEFEBDE820404FF000064B
:103EB0004FF000074FF000084FF0000B21F0070112
:103EC000AC46ACE8C009ACE8C009ACE8C009ACE855
:103ED000C0098D4670472DE9F04106460024D6E919
:103EE0000170F568804602E04146B847641C3046E0
:103EF000A8470028F8D12046BDE8F0810446AFF37A
:103F000000802046FCF75BF9490050EAC12018BF49
:103F100004204A0D18BF40F0010040F2FF72B2EBDE
:103F2000515F08BF40F00200012808BF052070471C
:103F30002DE9F0414F1E00EBC7010446D1E9000115
:103F400015461E4637F006020DD02A46334600F0CD
:103F500005FE7F1E04EBC703D3E9002300F0AEFB90
:103F600037F00602F1D1022F25D0042F13D0062FEF
:103F700018BFBDE8F0812A46334600F0EFFDD4E9D2
:103F80000A2300F09BFB2A46334600F0E7FDD4E904
:103F9000082300F093FB2A46334600F0DFFDD4E906
:103FA000062300F08BFB2A46334600F0D7FDD4E908
:103FB000042300F083FB2A46334600F0CFFDD4E90A
:103FC000022300F07BFB2A46334600F0C7FDD4E90C
:103FD0000023BDE8F04100F071BB0000024A002060
:103FE000110701F09CBC000001FDFFFF2DE9F04D21
:103FF000904F21F0004A86B005460C46BA4530DBAA
:10400000AAEB070028430CD08B48824501DC1CD169
:10401000DDB106B02846BDE8F04D4FF0010201F0D9
:104020007EBC864A864B284600F098FD07460E4621
:10403000844A854B2846214600F090FD06B03A465A
:104040003346BDE8F04D00F039BB0120FFF7E1FE3B
:1040500006B00022BDE8F04D13461046114600F0B0
:10406000E9BB7A48824542DABAF1795F0BDA284631
:10407000FFF74AFF042808BFFFF7B0FF284606B045
:104080002146BDE8F08D2A460B46104600F066FD3D
:10409000834602466E480E460B4606217844FFF7DB
:1040A00047FF5A46334600F059FD804669488A4624
:1040B0005A46334604217844FFF73AFF5A463346BE
:1040C00000F04CFD00223B4600F0F8FA02460B4699
:1040D0004046514600F0AEFB2A46234600F03EFD26
:1040E00006B02A462346BDE8F04D00F0E7BA284660
:1040F00024F0004100223D463B4600F063FE4FF0B5
:10410000FF3201F00CFC0646024653480F460B46B0
:1041100006217844FFF70CFF32463B4600F01EFDB7
:10412000CDE900014D4832463B4604217844FFF773
:10413000FFFE32463B4600F011FD00222B4600F008
:10414000BDFA834602913046394600F05FFA804658
:1041500043480D46504517DCDDE900015A46029BF5
:1041600000F068FB42462B4600F0F8FC42462B4626
:1041700000F0A4FA012201F0D2FB304A304B00F0EB
:1041800013FF304A304B4CE04FF0000A52460B46CA
:10419000404600F093FACDE9031052462B461046F4
:1041A000194600F0DBFC32463B4600F00BFEDDE931
:1041B000033200F03FFB06460F46DDE900015A4698
:1041C000029B00F037FB83460091012230463946BE
:1041D00001F0A5FB194A1A4B00F0F4FD06460F4604
:1041E00001224046294601F09AFB5A46009B00F006
:1041F000B5FC32463B4600F0D7FE07460E4601228C
:104200005046294601F08BFB0E4DDFF858802A46B8
:10421000434600F0D7FD3A46334600F0D3FD2A4628
:10422000434600F0CFFD002CD8BF81F0004106B01E
:10423000BDE8F08D0000F03F0000F07F075C143314
:1042400026A6913C182D4454FB21F93F0000E03F85
:1042500010190000261900009A180000B01800007C
:104260003333EF3FFB21E93F2DE9F84F04460D467C
:1042700021F0004000917449814213DC7349884267
:1042800001DC08D13CB120462946BDE8F84F4FF08B
:10429000010201F044BB6E48002DCCBF6D496E4950
:1042A000BDE8F88F6D49814211DD6D498142D8BF6B
:1042B0004FF0FF366DDD20462946FFF725FE042826
:1042C00008BFFFF78BFE20462946BDE8F88F6549F9
:1042D000654F25F00045814233DD6449814219DD97
:1042E000002632464FF080432046294600F0E6F98A
:1042F00080468A4601222046294601F010FB002212
:104300003B4600F051FE4246534600F093FA044605
:104310000D463EE001260022BA463B46204629468D
:1043200000F0CCF980460F4600225346204629462D
:1043300000F03AFE42463B4600F07CFA04460D4649
:1043400027E04B4981421BDDDFF82881022600224D
:1043500043462046294600F001FC00223B4600F07F
:10436000ADF907468A46002243462046294600F01A
:104370001BFE3A46534600F05DFA04460D4608E03F
:10438000032622462B4600203B4900F053FA044600
:104390000D4622462B461046194600F0DFFB8B46A1
:1043A000824602460B4600F0D9FB074602463348D8
:1043B00088460B4606217844FFF7BAFD52465B4615
:1043C00000F0CCFB82462E488B463A4643460521F8
:1043D0007844FFF7ADFD3A46434600F0BFFB024686
:1043E0000B46002E504659460CDA00F067F922467B
:1043F0002B4600F0B3FB01B022462B46BDE8F04F40
:1044000000F0E0BC00F05AF922462B4600F0A6FB73
:104410001C4A7A4402EBC603D3E9002300F0C4FD32
:1044200022462B4600F0C0FD174A7A4402EBC60331
:10443000D3E9002300F0C6FC009A002AB8BF81F03F
:104440000041BDE8F88F0000000010440000F07F3C
:10445000182D4454FB21F93FFB21F9BF0000DC3F3C
:104460000000203E0000F33F0000F03F0000E63F68
:10447000008003400000F83F0000F0BFAE160000CF
:104480006C1600000A160000D21500002DE9F04D50
:104490009446CCF1000423F000464CEA0404524F49
:1044A00046EAD4749A46884621F00042BC4206D8B7
:1044B000454240EA050442EAD474BC4204D9BDE84E
:1044C000F04D624600F0FAB8AAF14055A5F17F65BB
:1044D00055EA0C040BD0022404EAAA74434DDFF819
:1044E00010E144EAD87452EA000B04D00CE0BDE8B5
:1044F000F04DFFF7B9BE002C14BF012CBDE8F08DC4
:10450000022C30D0032C32D056EA0C0B0AD0BE421B
:1045100020D1BA4209D126F0804622F080423346AB
:10452000114617E000291ADB25E0DFF8C8B0FB448C
:10453000002C04BFDBE90001BDE8F08D012C02BFB7
:10454000DBE9000181F00041BDE8F08D022C0AD0CA
:10455000032C0CD0BA4212D1B8F1000F0BDA234869
:104560002549BDE8F08D28462449BDE8F08D284650
:104570007146BDE8F08D1D482149BDE8F08D921BC4
:1045800012153C2AC4BF19481D490EDCBAF1000FB0
:10459000BEBF12F13C0F0020014606DB624600F070
:1045A00049F921F00041FFF75FFE002C08BFBDE88C
:1045B000F08D012C04BF81F00041BDE8F08D114A5F
:1045C000114B022C07D000F0EFFC2A46BDE8F04D5D
:1045D0000A4B00F0E9BC00F0E7FC2A46BDE8F04DCC
:1045E000064B00F0EFBB00000000F07F182D445494
:1045F000FB2109C066150000FB21F9BFFB21094022
:10460000FB21F93F075C143326A6A13C2DE9F041BC
:1046100006460F4600F0E2FB04000D4618BF0120DD
:10462000284320F00040C0F17F6000F1E040C00F5F
:104630000ED0301C18BF0120384320F00040C0F1DC
:104640007F6000F1E040C00F04BF0120FFF7E1FBF5
:1046500020462946BDE8F08121F00042A2F16052D7
:10466000B2F5801F01F0004328BFD2F17F6C0BD957
:104670005FEA001C43EAC20242EB507018BF704769
:1046800028BF20F001007047B2F5801FBCBF18465C
:1046900070474FEA410C1CF5001F02D2084601F09A
:1046A00060B870B500F004FB00000089FFF7F6BFAA
:1046B0004FF00040A0F580007047000010B591EA6F
:1046C000030F48BF83F0004300F17684841A71EB36
:1046D000030C05D2121943EB0C03001B61EB0C0118
:1046E000DFF824E14FEA1154A4EB135C1EEA430FF8
:1046F00018BF9EEA445F73D023EA0E03DCF1200E5C
:1047000021EA045143F4801332D322FA0CFE10EB59
:104710000E0023FA0CFE41EB0E01CCF1200E03FA41
:104720000EFE10EB0E0051F10001B1F5801FCCF12F
:10473000200E32D201EB045112FA0EF2BDE8104005
:1047400058BF7047401C38BF5FEA420218BF70472D
:10475000002814BF20F0010041F100014FEA41039D
:1047600013F5001F38BF7047A1F1C04100F0EEBA49
:10477000012A43EB0302ACF1200CDCF11F0E32BF27
:104780004FF0000E23FA0CF310EB030041EB045141
:10479000B4EB115FD0D0A1EB045101F580114908B1
:1047A0005FEA300001EB04510ED350F1000038BF36
:1047B00012FA0EFE08D1BDE81040C9E7401C38BF10
:1047C0005FEA4202CAD1C3E7BDE810404FEA4103A5
:1047D00013F5001F38BF7047A1F1C04100F0B6BA11
:1047E0009EEA445F08D011EA5E0FBDE8104004BFA6
:1047F00001F0004100207047BDE8104070B500F0A6
:1048000057FA00BF64FBBE3E0000E0FF02494FF0D4
:10481000000001F052B800BF0000F87F491058BFF7
:10482000C1F140415B1058BFC3F140438B42EFF3ED
:10483000008070472DE9C04130B4DFF8A0C23CEAE7
:10484000111418BF3CEA131400F0EC8081EA030550
:104850001CEA111444EAD57418BF1CEA131500F0C1
:10486000C780A4EB05044FF0004545EAC12145EAA5
:10487000C32341EA505143EA525304F17F749942F1
:1048800004F500344FEAC0204FEAC22208BF90422C
:1048900000F09C804FEA13650FF24016765D4FEAF8
:1048A000134506FB05F7C7F1807706FB07F74FEACC
:1048B000D737A7FB03687642C8F58038A7FB06CE3A
:1048C00038BFA8F1010807FB08E64FF0000EA6FB71
:1048D000028CE6FB03CEDCF1000CCEF1004E38BFBB
:1048E000AEF1010EA6FB0C584FF000074FF000058B
:1048F000E6FB0E87A1FB08C6A0FB07CE16EB0E0653
:1049000045F10005E1FB076515F1E04E7EBFA4F51A
:1049100080345FEA46066D4116F1800745F10005D7
:104920004FEA17274FEA066647EA0567A6F1DE4613
:10493000B6F1805F4FEA15251FD9384624F0010CE7
:1049400005EBC471BCF1FE6F01EB0C1102D8F0BC99
:10495000BDE8008124425CBF01F5801E9EEAC47F51
:1049600002D4F0BCBDE80081244238D4F0BCA1F1EF
:10497000C041BDE8004100F0E9B94FEAD22242EA65
:1049800043524FEAD323A7FB02864FEAD02040EAE6
:10499000415007FB03661EEA0E0F4FEAD12105FBCB
:1049A000026658BFA6EB0056B6EB00564FEA520E11
:1049B0004EEAC37E18EB0E0E56EB530EBDD518EB28
:1049C00002085E417F1C55F10005B6E74FF48015E3
:1049D0004FF000074FF000064FF00008ADE7F0BCC5
:1049E0004FF0000001F1C04101F00041BDE800813D
:1049F00011EA0C1F0CEA131500D00CE013EA0C1F8F
:104A000000F025804FF00000F0BC81EA030101F0C6
:104A10000041BDE80081F0BCBDE8004181EA03012E
:104A200000F094B9F0BCBDE8004170B500F040F969
:104A3000097EFC3E00F007B881EA03014FF0000058
:104A400001F00041704781EA030100F07FB9F0BC3A
:104A5000BDE800414FF0000021497047FFFDFBF920
:104A6000F7F5F4F2F0EEEDEBE9E8E6E4E3E1E0DEA1
:104A7000DDDBDAD8D7D5D4D3D1D0CFCDCCCBCAC813
:104A8000C7C6C5C4C2C1C0BFBEBDBCBBBAB9B8B73A
:104A9000B6B5B4B3B2B1B0AFAEADACABAAA9A8A82D
:104AA000A7A6A5A4A3A3A2A1A09F9F9E9D9C9C9BFB
:104AB0009A999998979796959594939392919190A6
:104AC0008F8F8E8E8D8C8C8B8B8A89898888878737
:104AD0008685858484838382828181800000FF07AC
:104AE0000000F87F51EA030C17D41CF5801F58BF53
:104AF000BCF5801F00F10680994218BF704708BFBF
:104B00009042704707D711F5801F58BF13F5801FDB
:104B100019D499427047894270471CF5801F08D507
:104B2000BCF5801FF7D58B4218BF704708BF824283
:104B300070474FF4001C1CEB410F38BF1CEB430FB8
:104B400001D28B42704770B500F0B2F89224490050
:104B50004FF000514FF08053FFF760BEDFF848C1BF
:104B600070B51CEA111E1EBF1CEA13159EEA0C0F3D
:104B700095EA0C0F00F06F8081EA030423EA4C13DE
:104B80004EEAD47E21EA4C1141F4801143F48013A3
:104B9000AE44A1FB024CA0FB0365AEF17F7E36194B
:104BA00055EB0C05A1FB034C4CF10003A0FB021CD0
:104BB00016EB0C06654153F10003094218BF46F09D
:104BC000010613F4007F0BD14FEA03314FEA0530A1
:104BD000340341EA155140EA16506FF003020AE02F
:104BE0004FEAC3214FEAC520F40241EA555140EA99
:104BF00056506FF0020202EB2E4201EB025585EA9D
:104C0000CE710AD05FEA440C18BF24F0004450F182
:104C1000000041F1000120EAD47040F2FE7C6245C0
:104C200000D270BDA84214BF4FF080444FF0404402
:104C3000002E08BF0024BEF1806FA8BFA1F1C041C3
:104C4000BDE8704080F282804FF0000001F1C04169
:104C500001F0004170479EEA0C0F0CEA131518BFD3
:104C600095EA0C0F06D04FF0000081EA030E0EF01B
:104C7000004170BD00F01CF88900013E00F007B84B
:104C800000F009B84FEA430C5FEA5C5C08D081EAA7
:104C9000030100F05BB84FEA410C5FEA5C5CF6D1BF
:104CA0004FF00000014970470000FF070000F87F47
:104CB0000EF1020E2EF0030E5EF8046B364205D4A0
:104CC000012A43EB030515F5001F12D8012841EB1B
:104CD000010C1CF5001F0CD80ED14FEAD17C15F544
:104CE000001F0CEB4C0C0CF1020C08BF4CEBD37CFE
:104CF00004E04FF0080C01E04FEAD37C0CEB4C05CC
:104D000026FA05F606F00706B6F1040C06D20EEBFD
:104D1000860CBDE870404CF0010C6047DFE80CF0F9
:104D2000090B02024FF000414FF00000A1F50021F5
:104D300070BD19461046012851EB010418BFD4F587
:104D4000001484BF002001F0004170BD0808A0F5E8
:104D500000114FEA3101704753EA010C17D41CF5DA
:104D6000801F58BFBCF5801F00F106808B4218BF22
:104D7000704708BF8242704707D713F5801F58BF9E
:104D800011F5801F19D48B4270479B4270471CF568
:104D9000801F08D5BCF5801FF7D5994218BF704712
:104DA00008BF904270474FF4001C1CEB430F38BF04
:104DB0001CEB410F01D2994270470FB40CBC03BCED
:104DC000FFF7C1BE91EA030F10B581F000413FF536
:104DD0007DAC83F0004300F0EFB800002DE9F04116
:104DE00001F5801CBCF5001FC0F2C3804FEA115CC6
:104DF00021EA0C510CF1FD0C41F480115FEA5C0CCE
:104E00000CF5C07C01D3400049413DA4890241EA30
:104E1000905187028E0E0A0CA45D04FB04F602FB7F
:104E200006F6C6F14046A4FB0662F60D46EA4226A7
:104E300006FB06F4A4FB01235242C3F1404338BFF2
:104E40005B1EA6FB02420024E6FB0324D20B42EACF
:104E50004446A6FB0623A1FB02E2A3FB07E4A41839
:104E60004FF0000252F10002E3FB01426442C2F142
:104E7000404E38BFAEF1010EA6FB04234FF00002F6
:104E8000E6FB0E32A2FB03464FF00004B61954F1C4
:104E90000004E2FB0264A1FB06E6A4FB07E816EBB4
:104EA00008064FF0000858F10008E4FB016876425C
:104EB000C8F1405838BFA8F10108A2FB06E4A3FBE3
:104EC00008E52D194FF0000454F10004E2FB0854EA
:104ED000A1FB05E6A7FB04E818EB06084FF0000667
:104EE00056F10006E1FB048618F1200556F1000694
:104EF000A809A8F11B08B10908F03F08B8F10A0F8A
:104F000040EA86601CD901EB0C51BDE8F08100BF7E
:104F1000FCF5EEE8E2DDD8D3CFCBC7C3C0BDB9B650
:104F2000B4B1AEACA9A7A5A3A19F9D9B9A98969555
:104F30009392908F8D8C8B898887868584838281DC
:104F4000A0FB006800FB01F208EB4208B8EB8728E1
:104F500007D5341858EB0104D5D5401C51F1000198
:104F6000D1E7341A78EB0104CDD4401E71F1000171
:104F7000C9E75FEA4C0C5FEA9C5C0DD105D34FF0AA
:104F8000000001F00041BDE8F081BDE8F04170B5DE
:104F9000FFF78EFE6DDBFFBEBDE8F0414FF0000075
:104FA000004970470000F87F10B591EA030F48BF31
:104FB00083F000433FF58AAB841A71EB030C07D2F0
:104FC00012198CF0004C43EB0C03001B61EB0C013D
:104FD000DFF8A4E14FEA1154A4EB135C1EEA430F7F
:104FE00018BF9EEA445F00F0B08023EA6E0352428D
:104FF00021EA0451C3EB6E0338BF5B1EDCF1200EC7
:1050000025D322FA0CFE10EB0E0043FA0CFE41EB06
:105010000E01CCF1200E03FA0EFE10EB0E0051F142
:105020000001CCF1200E29D412FA0EF201EB04514A
:10503000BDE8104058BF7047401C1CBFB2F1004F84
:10504000704700280CBF491C20F00100704712EB8C
:10505000020E43EB030218BF4FF0010E4EEA42026C
:10506000ACF1200CDCF11E0E54D943FA0CFE10EB0F
:105070000E0051F1FF31CCF11E0ED5D50EF1010E0F
:1050800012FA0EFE404141EB010101EB445C5FEA84
:105090005C5C10D910EBDE7001EB045138BFBEF13F
:1050A000004FBDE8104018BF704700280CBF491CD6
:1050B00020F00100704730D24FEAD42C11F50011D6
:1050C00024F400641BD0B1FA81F20B3AA41AA41E96
:1050D000D2F12003914030FA03F31943904001EBE1
:1050E000CC71002C01EB0451BDE81040A8BF704703
:1050F00001F1C0414FF0000001F000417047B0FAEB
:1051000080F310FA03F100D110BDE41A173C4805F2
:10511000C90AE4E701EB045110BD491001EB045149
:10512000BDE810404FEA300002E04FF00001704748
:105130004A0008BF0042F8D0B2F5001F28BF7047F0
:1051400001F000414FF0000070479EEA445F07D035
:1051500011EA5E0FBDE8104004BF00210020704737
:10516000BDE8104070B5FFF7A3FD00BF40DFF63E7D
:1051700083F00041104670470000E0FF43004FEA13
:10518000D30C4FEA3C0C43401FBF40070CF1605169
:1051900013F0FE4F70471CF0006F03D100200CF09D
:1051A000004170470CF0004343EA507010B540EAEC
:1051B000CC0000F090FA00BF000000924FEA00011E
:1051C000FFF7C4BD4FF000414FF00000A1F50021F2
:1051D0007047000090EA010F48BF81F0004100F1E4
:1051E000FE82421A3CBF801A89184FEAD0524FF013
:1051F0007F4C1CEA410FA2EBD15318BF9CEA026F0F
:1052000000F03B804FF0004C4CEA00204CEA0121BA
:1052100021FA03FC10EB0C0C1ED202F1FF325FEA04
:105220001C2040EBC25038BF70471CF07F0F4FEA84
:10523000400C18BFBCF17F4F38BF7047C3F120034B
:10524000994008BF20F00100BCF17F4F38BF704784
:10525000A0F1C04000F085BA4FEA3C00000A40EBE4
:10526000C25028BF1CF0FF0F4FEA400CE6D018BF19
:10527000BCF17F4F38BF7047EAE79CEA026F05D068
:1052800010EA5C0F08BF00F00040704710B500F056
:1052900022FA00BF64FBBE3E401058BFC0F1404040
:1052A000491058BFC1F140418142EFF3008070477F
:1052B0004FF47F0C1CEAD0121EBF1CEAD11392EAF5
:1052C0000C0F93EA0C0F00F0858090EA010F48BFA5
:1052D00042F4807240F4000C41F400002CF07F4155
:1052E00020F07F4000B58142A2EB03020FF2081CC0
:1052F000ACEB504EC0F100009EF800E04FEA4E0EBD
:1053000000FB0EFC38BF49004FEA2C1C02F5FA02E4
:105310000CFB0EF34FEACE1E4FEA112C4FEAC121CF
:105320000EEB635E42EB22420EFB0CFC4FEA1C5379
:1053300000FB03114FEA112C4FEA01310EFB0CFC6C
:105340004FEADC4C00FB0C11C14228BF09184CEBA2
:1053500003335DF804EB10EB410143EBC250B2F5AF
:105360007C0F38BF704729D512F0F00F1CBF00F139
:10537000C04000F0004070470081828384858687AA
:1053800088898B8C8D8E8F919293959697999A9C04
:105390009D9FA0A2A3A5A7A8AAACAEB0B2B3B5B773
:1053A000B9BCBEC0C2C5C7C9CCCED1D4D7D9DCDF49
:1053B000E2E6E9ECF0F3F7FAFE0000004FEA400CF9
:1053C0000CF1807CBCF17E4F28BF7047B0F1C0402B
:1053D00000F0C7B990EA010F0CEAD11348BF42F4BC
:1053E0008072624538BF634507D213F47F0F16D031
:1053F00080EA010000F00040704710B500F06BF942
:10540000097EFC3E00F005B880EA010000F0004093
:10541000704780EA010000F0004000F0A2B912F4E9
:105420007F0F04BF0248704780EA010000F099B97D
:105430000000C07F50EA010C00F113801CF5000F42
:1054400058BFBCF5000F01D48842704707D710F54C
:10545000000F58BF11F5000F15D4884270478942DC
:1054600070471CF5000F04D5BCF5000FF7D581423D
:1054700070474FF0807C1CEB400F38BF1CEB410F96
:1054800001D28142704710B500F025F992244900FD
:105490004FF000504FF08051FFF7FEBE41000B0E61
:1054A000D3F19E0208D950F400034FEA032323FAF4
:1054B00002F048BF4042704710B500F00CF900BF41
:1054C00049922480002070476FF0004282EA200059
:1054D00070470000C10DD1F19E0206DB4FEA0023A8
:1054E00043F0004323FA02F07047004207D54FEA29
:1054F0004001B1F1FE4F02D24FF00000704710B5ED
:1055000000F0E9F849922480002070476FEA2000FB
:105510007047000010F0004148BF4042B0FA80F3ED
:1055200010FA03F2C3F19D030BD051EAC35101EB12
:105530001220530638BF704700F1010008BF20F069
:1055400001007047B0FA80F310FA03F2C3F19D0333
:105550000AD0D90501EB1220530638BF704700F17D
:10556000010008BF20F001007047000050EA010C64
:1055700000F113801CF5000F58BFBCF5000F01D4DB
:105580008842704707D710F5000F58BF11F5000F7C
:1055900015D488427047894270471CF5000F04D526
:1055A000BCF5000FF7D5814270474FF0807C1CEBB3
:1055B000400F38BF1CEB410F01D28142704710B53C
:1055C00000F089F8922449004FF000504FF08051CC
:1055D000FFF762BE4FF47F0C1CEAD0121EBF1CEA1C
:1055E000D11392EA0C0F93EA0C0F00F0478090EA77
:1055F000010F48BF42F480724FF0004C4CEA00208B
:105600004CEA012102EB0302A0FB0113A2F5000208
:10561000002918BF43F001035B0028BF4FEA3303A2
:1056200042EB22425FEA132C4CEBC2502EBFBCEB84
:10563000436FB2F57C0F70474FEA036CBCF1004F2B
:1056400008BF20F00100B2F57C0F38BF70470BD5C2
:1056500082F0FF0212F5803FC8BF704700F1C040E2
:10566000D8BF00F00040704700F5000C5FEA4C0C1A
:1056700048BF7047B0F1C04000F073B890EA010F26
:105680000CEAD11348BF42F48072624538BF6345CB
:1056900004D280EA010000F00040704710B500F02D
:1056A0001AF800BF8900013E00F007B800F009B801
:1056B0005FEA410C5FEA1C6C08D080EA010000F050
:1056C00050B85FEA400C5FEA1C6CF6D14FF0004026
:1056D000A0F5800070470EF1020E2EF0030E5EF86A
:1056E000044B244204D44FEA4102B2F17F4F11D857
:1056F0004FEA4003B3F17F4F0CD80ED14FEAD07C74
:10570000B2F17F4F0CEB4C0C0CF1020C08BF4CEBD0
:10571000D17C04E04FF0080C01E04FEAD17C0CEBA7
:105720004C0324FA03F404F00704B4F1040C06D289
:105730000EEB840CBDE810404CF0010C6047DFE834
:105740000CF0070802024FF00040A0F5800010BDE9
:105750000846420018BFD2F1807288BF00F00040B6
:1057600010BDFF2141EAD050C005704751EA000C3E
:1057700000F113801CF5000F58BFBCF5000F01D4D9
:105780008142704707D711F5000F58BF10F5000F81
:1057900015D481427047894270471CF5000F04D52B
:1057A000BCF5000FF7D5884270474FF0807C1CEBAA
:1057B000410F38BF1CEB400F01D28842704780EA8E
:1057C000010081EA000180EA0100FFF7F8BE000055
:1057D00090EA010F48BF81F000413FF502AD421A47
:1057E00004D882F00042A0EB020011444FEAD052EC
:1057F0004FF07F4C1CEA410FA2EBD15318BF9CEA3B
:10580000026F4AD04FF0004C4CEA00204CEA0121D4
:1058100021FA03FCB0EB0C0C0FD412F0FE0F36D0C3
:105820005FEA4C001DD5001240EBC25038BF7047F4
:105830001CF03F0F18BF70470BE0A2F101025FEAB6
:105840001C2040EBC25038BF70471CF07F0F18BFC0
:105850007047C3F12003994014BF401E20F001009F
:10586000704780084FEA122308BF7047B0FA80FCE7
:10587000A2EB0C02CCF1280C60FA0CF093EA122F88
:1058800004BF00EBC25070474FEAC3707047130A61
:105890005FEADC1008BF7047F6E79CEA026F04D0AD
:1058A00010EA5C0F08BF0020704710B5FFF713FF28
:1058B00040DFF63E81F0004070470CF00F03092BEB
:1058C00008BF082000F059800A2B0BD0082B18BF06
:1058D000704708BF1CF0400F0AD04FF000004FF097
:1058E000000170471CF0400F18BF4FF00040704798
:1058F0001CF0100F08D020F0704300F07F4242EA05
:10590000D3014FEA4370704700F0604021F07F42BE
:1059100042EA000201F07F4040EA727070474FF0A7
:10592000FF0C4CF4E06C1CEA11531CBF9CEA030C06
:105930009445C2BFDA4201EB02517047002B0DD0F3
:10594000BCF1000F0FD0002A01F00041A4BF41F0CC
:10595000E04141F07F614FF00000704701F00041ED
:105960004FF00000704750EA01334FF09B0C18BF16
:105970004CF0806C7EF44AAF70471CF4801F11D04D
:105980001CF4E02F03D06FEACC31490070474FF090
:105990004050EFF3008222F0704242EA000282F3AC
:1059A000008870474FF000007047000000000000C2
:1059B000555555555555C53F7D6FEB0312D6D4BF90
:1059C0005544880E55C1C93F3B8F68B52882A4BF96
:1059D00088B20175E0EF493F09F7FD0DE13D023F57
:1059E0004B2D8A1C273A03C0C88A599CE52A0040DF
:1059F00059018D1B6C06E6BF82922EB1C5B8B33F2C
:105A00004FBB610567ACDD3F182D4454FB21E93FD6
:105A10009BF681D20B73EF3F182D4454FB21F93FC5
:105A2000E2652F227F2B7A3C075C143326A6813C4B
:105A3000BDCBF07A8807703C075C143326A6913CF6
:105A4000C4EB98999999C9BF711623FEC671BCBF62
:105A50006D9A74AFF2B0B3BF9AFDDE522DDEADBFCA
:105A60002F6C6A2C44B4A2BF0D5555555555D53FE2
:105A7000FF8300922449C23F6E204CC5CD45B73FFD
:105A8000513DD0A0660DB13FEB0D76244B7BA93F75
:105A900011DA22E33AAD903F000000000000000060
:105AA000C05A000800000020BC0000006C01000883
:105AB0007C5B0008BC00002064070000880100082F
:105AC00000000000000000000000000000000000D6
:105AD00000000000000000000000803F0000000007
:105AE00000000000000000000000000000000000B6
:105AF00000000000000000000000000000000000A6
:105B00000000000000000000000000000000000095
:105B10000000000000000000000000000000000085
:105B20000000000000000000000000000000000075
:105B30000000000001320125695671850102000054
:105B4000000000000000000000000000010203044B
:105B50000102030406070809020406080000000009
:105B600000A24A040000000000000000010203043B
:0C5B70000607080900000000000000000B
:0400000508000131BD
:00000001FF
