BL51 BANKED LINKER/LOCATER V6.22                                                        04/13/2017  22:58:45  PAGE 1


BL51 BANKED LINKER/LOCATER V6.22, INVOKED BY:
D:\KEIL_V4_C51\C51\BIN\BL51.EXE main.obj, uart.obj, AD.obj, timer.obj, control.obj, interrupt.obj TO app RAMSIZE (256)


MEMORY MODEL: SMALL


INPUT MODULES INCLUDED:
  main.obj (MAIN)
  uart.obj (UART)
  AD.obj (AD)
  timer.obj (TIMER)
  control.obj (CONTROL)
  interrupt.obj (INTERRUPT)
  D:\KEIL_V4_C51\C51\LIB\C51S.LIB (?C_STARTUP)
  D:\KEIL_V4_C51\C51\LIB\C51S.LIB (?C?CLDPTR)
  D:\KEIL_V4_C51\C51\LIB\C51S.LIB (?C?SIDIV)
  D:\KEIL_V4_C51\C51\LIB\C51S.LIB (?C_INIT)
  D:\KEIL_V4_C51\C51\LIB\C51S.LIB (?C?UIDIV)


LINK MAP OF MODULE:  app (MAIN)


            TYPE    BASE      LENGTH    RELOCATION   SEGMENT NAME
            -----------------------------------------------------

            * * * * * * *   D A T A   M E M O R Y   * * * * * * *
            REG     0000H     0008H     ABSOLUTE     "REG BANK 0"
            DATA    0008H     000BH     UNIT         ?DT?CONTROL
            DATA    0013H     0005H     UNIT         ?DT?TIMER
            DATA    0018H     0004H     UNIT         ?DT?MAIN
            DATA    001CH     0003H     UNIT         ?DT?_SENDSTRING?UART
            DATA    001FH     0002H     UNIT         ?DT?_AUTO220V?CONTROL
            DATA    0021H     0001H     UNIT         ?DT?INTERRUPT
            IDATA   0022H     0001H     UNIT         ?STACK

            * * * * * * *   C O D E   M E M O R Y   * * * * * * *
            CODE    0000H     0003H     ABSOLUTE     
            CODE    0003H     0003H     ABSOLUTE     
            CODE    0006H     0003H     UNIT         ?CO?UART
                    0009H     0002H                  *** GAP ***
            CODE    000BH     0003H     ABSOLUTE     
            CODE    000EH     0014H     UNIT         ?PR?_GETADCRESULT?AD
                    0022H     0001H                  *** GAP ***
            CODE    0023H     0003H     ABSOLUTE     
            CODE    0026H     00A4H     UNIT         ?C?LIB_CODE
            CODE    00CAH     008CH     UNIT         ?C_C51STARTUP
            CODE    0156H     0059H     UNIT         ?PR?_AUTO220V?CONTROL
            CODE    01AFH     002EH     UNIT         ?PR?T0TIMER?TIMER
            CODE    01DDH     002CH     UNIT         ?PR?MAIN?MAIN
            CODE    0209H     0025H     UNIT         ?PR?_SENDSTRING?UART
            CODE    022EH     0022H     UNIT         ?PR?_SENDNUM?UART
            CODE    0250H     001DH     UNIT         ?C_INITSEG
            CODE    026DH     001BH     UNIT         ?PR?_DELAY1?MAIN
            CODE    0288H     001BH     UNIT         ?PR?_DELAY?AD
            CODE    02A3H     0019H     UNIT         ?PR?UARTINIT?UART
            CODE    02BCH     0013H     UNIT         ?PR?TIMERINIT?TIMER
BL51 BANKED LINKER/LOCATER V6.22                                                      04/13/2017  22:58:45  PAGE 2


            CODE    02CFH     0011H     UNIT         ?PR?_SENDDATA?UART
            CODE    02E0H     000FH     UNIT         ?PR?INITADC?AD
            CODE    02EFH     000FH     UNIT         ?PR?INI0?INTERRUPT
            CODE    02FEH     000CH     UNIT         ?PR?_DELAYINT0?INTERRUPT
            CODE    030AH     0007H     UNIT         ?PR?INTERRUPT0INIT?INTERRUPT
            CODE    0311H     0006H     UNIT         ?PR?UATY_ISR?UART
            CODE    0317H     0006H     UNIT         ?PR?DELAY500US?INTERRUPT



OVERLAY MAP OF MODULE:   app (MAIN)


SEGMENT
  +--> CALLED SEGMENT
---------------------
?C_C51STARTUP
  +--> ?PR?MAIN?MAIN
  +--> ?C_INITSEG

?PR?MAIN?MAIN
  +--> ?PR?_DELAY1?MAIN
  +--> ?PR?UARTINIT?UART
  +--> ?PR?INITADC?AD
  +--> ?PR?TIMERINIT?TIMER
  +--> ?PR?INTERRUPT0INIT?INTERRUPT
  +--> ?PR?_SENDDATA?UART

?PR?INITADC?AD
  +--> ?PR?_DELAY?AD



SYMBOL TABLE OF MODULE:  app (MAIN)

  VALUE           TYPE          NAME
  ----------------------------------

  -------         MODULE        MAIN
  C:0000H         SYMBOL        _ICE_DUMMY_
  D:00A0H         PUBLIC        P2
  D:00B0H         PUBLIC        P3
  D:00A8H         PUBLIC        IE
  D:00B8H         PUBLIC        IP
  C:026DH         PUBLIC        _Delay1
  D:0018H         PUBLIC        s1
  D:001AH         PUBLIC        s2
  C:01DDH         PUBLIC        main
  D:0098H         PUBLIC        SCON
  D:0088H         PUBLIC        TCON
  D:00D0H         PUBLIC        PSW
  -------         PROC          _DELAY1
  D:0006H         SYMBOL        n
  -------         DO            
  D:0004H         SYMBOL        x
  -------         ENDDO         
  C:026DH         LINE#         9
BL51 BANKED LINKER/LOCATER V6.22                                                      04/13/2017  22:58:45  PAGE 3


  C:026DH         LINE#         10
  C:026DH         LINE#         13
  C:0277H         LINE#         14
  C:0277H         LINE#         15
  C:027BH         LINE#         16
  C:0287H         LINE#         19
  -------         ENDPROC       _DELAY1
  -------         PROC          MAIN
  C:01DDH         LINE#         25
  C:01DDH         LINE#         26
  C:01DDH         LINE#         27
  C:01E4H         LINE#         28
  C:01E7H         LINE#         29
  C:01EAH         LINE#         30
  C:01EDH         LINE#         31
  C:01F0H         LINE#         33
  C:01F0H         LINE#         34
  C:01F0H         LINE#         36
  C:01FDH         LINE#         37
  C:01FDH         LINE#         38
  C:0202H         LINE#         39
  C:0207H         LINE#         41
  C:0207H         LINE#         44
  -------         ENDPROC       MAIN
  -------         ENDMOD        MAIN

  -------         MODULE        UART
  C:0000H         SYMBOL        _ICE_DUMMY_
  D:00B0H         PUBLIC        P3
  B:00A8H.7       PUBLIC        EA
  C:0209H         PUBLIC        _SendString
  C:02D8H         PUBLIC        _SendData
  D:00A8H         PUBLIC        IE
  B:00A8H.4       PUBLIC        ES
  D:00B8H         PUBLIC        IP
  B:0098H.0       PUBLIC        RI
  B:0098H.1       PUBLIC        TI
  D:0099H         PUBLIC        SBUF
  D:0098H         PUBLIC        SCON
  C:0311H         PUBLIC        Uaty_Isr
  C:02A3H         PUBLIC        UartInit
  D:0089H         PUBLIC        TMOD
  D:0088H         PUBLIC        TCON
  C:022EH         PUBLIC        _SendNum
  D:008DH         PUBLIC        TH1
  B:0098H.7       PUBLIC        SM0
  B:0098H.6       PUBLIC        SM1
  D:008BH         PUBLIC        TL1
  B:0088H.6       PUBLIC        TR1
  B:0098H.4       PUBLIC        REN
  D:00D0H         PUBLIC        PSW
  -------         PROC          UARTINIT
  C:02A3H         LINE#         6
  C:02A3H         LINE#         7
  C:02A3H         LINE#         8
  C:02A6H         LINE#         9
  C:02A9H         LINE#         10
BL51 BANKED LINKER/LOCATER V6.22                                                      04/13/2017  22:58:45  PAGE 4


  C:02ACH         LINE#         11
  C:02AFH         LINE#         12
  C:02B1H         LINE#         14
  C:02B3H         LINE#         15
  C:02B5H         LINE#         16
  C:02B7H         LINE#         17
  C:02B9H         LINE#         18
  C:02BBH         LINE#         23
  -------         ENDPROC       UARTINIT
  -------         PROC          UATY_ISR
  C:0311H         LINE#         26
  C:0311H         LINE#         28
  C:0314H         LINE#         29
  C:0314H         LINE#         30
  C:0316H         LINE#         31
  C:0316H         LINE#         34
  -------         ENDPROC       UATY_ISR
  -------         PROC          L?0012
  -------         ENDPROC       L?0012
  -------         PROC          _SENDDATA
  D:0007H         SYMBOL        dat
  C:02D8H         LINE#         37
  C:02D8H         LINE#         38
  C:02D8H         LINE#         39
  C:02DAH         LINE#         40
  C:02DDH         LINE#         41
  C:02DFH         LINE#         43
  -------         ENDPROC       _SENDDATA
  -------         PROC          _SENDSTRING
  D:001CH         SYMBOL        s
  C:0209H         LINE#         46
  C:020FH         LINE#         47
  C:020FH         LINE#         48
  C:021AH         LINE#         49
  C:021AH         LINE#         50
  C:022BH         LINE#         51
  C:022DH         LINE#         52
  -------         ENDPROC       _SENDSTRING
  -------         PROC          _SENDNUM
  D:0006H         SYMBOL        dat
  C:022EH         LINE#         55
  C:0230H         LINE#         56
  C:0230H         LINE#         57
  C:023BH         LINE#         58
  C:0243H         LINE#         59
  C:0247H         LINE#         60
  -------         ENDPROC       _SENDNUM
  -------         ENDMOD        UART

  -------         MODULE        AD
  C:0000H         SYMBOL        _ICE_DUMMY_
  D:00B0H         PUBLIC        P3
  D:00A8H         PUBLIC        IE
  D:00BDH         PUBLIC        ADC_RES
  D:00B8H         PUBLIC        IP
  D:00BCH         PUBLIC        ADC_CONTR
  D:0098H         PUBLIC        SCON
BL51 BANKED LINKER/LOCATER V6.22                                                      04/13/2017  22:58:45  PAGE 5


  D:0088H         PUBLIC        TCON
  D:009DH         PUBLIC        P1ASF
  C:02E0H         PUBLIC        InitADC
  C:000EH         PUBLIC        _GetADCResult
  C:0288H         PUBLIC        _Delay
  D:00D0H         PUBLIC        PSW
  -------         PROC          _DELAY
  D:0006H         SYMBOL        n
  -------         DO            
  D:0004H         SYMBOL        x
  -------         ENDDO         
  C:0288H         LINE#         17
  C:0288H         LINE#         18
  C:0288H         LINE#         21
  C:0292H         LINE#         22
  C:0292H         LINE#         23
  C:0296H         LINE#         24
  C:02A2H         LINE#         27
  -------         ENDPROC       _DELAY
  -------         PROC          INITADC
  C:02E0H         LINE#         30
  C:02E0H         LINE#         31
  C:02E0H         LINE#         32
  C:02E3H         LINE#         33
  C:02E6H         LINE#         34
  C:02E9H         LINE#         35
  -------         ENDPROC       INITADC
  -------         PROC          _GETADCRESULT
  D:0007H         SYMBOL        ch
  C:000EH         LINE#         39
  C:000EH         LINE#         40
  C:000EH         LINE#         41
  C:0013H         LINE#         42
  C:0014H         LINE#         43
  C:0015H         LINE#         44
  C:0016H         LINE#         45
  C:0017H         LINE#         46
  C:001CH         LINE#         47
  C:001FH         LINE#         49
  C:0021H         LINE#         51
  -------         ENDPROC       _GETADCRESULT
  -------         ENDMOD        AD

  -------         MODULE        TIMER
  C:0000H         SYMBOL        _ICE_DUMMY_
  D:00A0H         PUBLIC        P2
  D:00B0H         PUBLIC        P3
  B:00A8H.7       PUBLIC        EA
  D:0013H         PUBLIC        period
  D:00A8H         PUBLIC        IE
  D:00B8H         PUBLIC        IP
  C:02BCH         PUBLIC        TimerInit
  D:0014H         PUBLIC        pr0220v
  C:01AFH         PUBLIC        T0timer
  D:0098H         PUBLIC        SCON
  D:0089H         PUBLIC        TMOD
  D:0088H         PUBLIC        TCON
BL51 BANKED LINKER/LOCATER V6.22                                                      04/13/2017  22:58:45  PAGE 6


  B:00B0H.6       PUBLIC        LED220V
  B:00A8H.1       PUBLIC        ET0
  D:008CH         PUBLIC        TH0
  D:008AH         PUBLIC        TL0
  D:0015H         PUBLIC        num
  B:0088H.4       PUBLIC        TR0
  D:0017H         PUBLIC        pr012v
  D:00D0H         PUBLIC        PSW
  -------         PROC          TIMERINIT
  C:02BCH         LINE#         6
  C:02BCH         LINE#         7
  C:02BCH         LINE#         8
  C:02BFH         LINE#         9
  C:02C2H         LINE#         10
  C:02C5H         LINE#         11
  C:02C8H         LINE#         13
  C:02CAH         LINE#         14
  C:02CCH         LINE#         15
  C:02CEH         LINE#         17
  -------         ENDPROC       TIMERINIT
  -------         PROC          T0TIMER
  C:01AFH         LINE#         23
  C:01B3H         LINE#         25
  C:01B6H         LINE#         26
  C:01B9H         LINE#         27
  C:01BBH         LINE#         28
  C:01C2H         LINE#         29
  C:01C2H         LINE#         30
  C:01C5H         LINE#         31
  C:01C7H         LINE#         32
  C:01C9H         LINE#         34
  C:01CBH         LINE#         36
  C:01CBH         LINE#         37
  C:01D2H         LINE#         38
  C:01D6H         LINE#         40
  C:01D8H         LINE#         44
  C:01D8H         LINE#         46
  -------         ENDPROC       T0TIMER
  -------         ENDMOD        TIMER

  -------         MODULE        CONTROL
  C:0000H         SYMBOL        _ICE_DUMMY_
  D:00A0H         PUBLIC        P2
  D:00B0H         PUBLIC        P3
  D:00A8H         PUBLIC        IE
  D:00B8H         PUBLIC        IP
  C:0156H         PUBLIC        _auto220V
  D:0098H         PUBLIC        SCON
  D:0088H         PUBLIC        TCON
  D:0008H         PUBLIC        temp
  D:0012H         PUBLIC        ai
  D:00D0H         PUBLIC        PSW
  -------         PROC          _AUTO220V
  D:0007H         SYMBOL        dat
  -------         DO            
  D:001FH         SYMBOL        sum
  D:0006H         SYMBOL        x
BL51 BANKED LINKER/LOCATER V6.22                                                      04/13/2017  22:58:45  PAGE 7


  -------         ENDDO         
  C:0156H         LINE#         7
  C:0156H         LINE#         8
  C:0156H         LINE#         12
  C:0157H         LINE#         13
  C:0160H         LINE#         14
  C:0172H         LINE#         15
  C:0174H         LINE#         18
  C:0179H         LINE#         19
  C:017AH         LINE#         20
  C:017AH         LINE#         21
  C:018DH         LINE#         23
  C:0191H         LINE#         24
  C:019FH         LINE#         26
  C:01ACH         LINE#         27
  C:01AEH         LINE#         29
  -------         ENDPROC       _AUTO220V
  -------         ENDMOD        CONTROL

  -------         MODULE        INTERRUPT
  C:0000H         SYMBOL        _ICE_DUMMY_
  D:00A0H         PUBLIC        P2
  D:00B0H         PUBLIC        P3
  B:00A8H.7       PUBLIC        EA
  D:00A8H         PUBLIC        IE
  D:00B8H         PUBLIC        IP
  C:030AH         PUBLIC        Interrupt0Init
  D:0098H         PUBLIC        SCON
  D:0088H         PUBLIC        TCON
  D:0021H         PUBLIC        tim
  B:00A8H.0       PUBLIC        EX0
  B:0088H.0       PUBLIC        IT0
  B:0088H.4       PUBLIC        TR0
  C:02FEH         PUBLIC        _delayInt0
  C:02EFH         PUBLIC        ini0
  C:0317H         PUBLIC        Delay500us
  D:00D0H         PUBLIC        PSW
  -------         PROC          INTERRUPT0INIT
  C:030AH         LINE#         4
  C:030AH         LINE#         5
  C:030AH         LINE#         6
  C:030CH         LINE#         7
  C:030EH         LINE#         8
  C:0310H         LINE#         10
  -------         ENDPROC       INTERRUPT0INIT
  -------         PROC          DELAY500US
  -------         DO            
  D:0007H         SYMBOL        i
  -------         ENDDO         
  C:0317H         LINE#         13
  C:0317H         LINE#         14
  C:0317H         LINE#         17
  C:0318H         LINE#         18
  C:031AH         LINE#         19
  C:031CH         LINE#         20
  -------         ENDPROC       DELAY500US
  -------         PROC          _DELAYINT0
BL51 BANKED LINKER/LOCATER V6.22                                                      04/13/2017  22:58:45  PAGE 8


  D:0006H         SYMBOL        dat
  C:02FEH         LINE#         24
  C:0300H         LINE#         25
  C:0300H         LINE#         26
  C:0303H         LINE#         27
  C:0303H         LINE#         28
  C:0304H         LINE#         29
  C:0307H         LINE#         31
  C:0309H         LINE#         32
  -------         ENDPROC       _DELAYINT0
  -------         PROC          INI0
  C:02EFH         LINE#         37
  C:02F1H         LINE#         39
  C:02F3H         LINE#         40
  C:02FBH         LINE#         41
  -------         ENDPROC       INI0
  -------         ENDMOD        INTERRUPT

  -------         MODULE        ?C?CLDPTR
  C:0026H         PUBLIC        ?C?CLDPTR
  -------         ENDMOD        ?C?CLDPTR

  -------         MODULE        ?C?SIDIV
  C:003FH         PUBLIC        ?C?SIDIV
  -------         ENDMOD        ?C?SIDIV

  -------         MODULE        ?C?UIDIV
  C:0075H         PUBLIC        ?C?UIDIV
  -------         ENDMOD        ?C?UIDIV

*** WARNING L16: UNCALLED SEGMENT, IGNORED FOR OVERLAY PROCESS
    SEGMENT: ?PR?_GETADCRESULT?AD

*** WARNING L16: UNCALLED SEGMENT, IGNORED FOR OVERLAY PROCESS
    SEGMENT: ?PR?_AUTO220V?CONTROL

*** WARNING L16: UNCALLED SEGMENT, IGNORED FOR OVERLAY PROCESS
    SEGMENT: ?PR?_DELAYINT0?INTERRUPT

Program Size: data=35.0 xdata=0 code=794
LINK/LOCATE RUN COMPLETE.  3 WARNING(S),  0 ERROR(S)
