BL51 BANKED LINKER/LOCATER V6.22                                                        12/19/2016  16:20:13  PAGE 1


BL51 BANKED LINKER/LOCATER V6.22, INVOKED BY:
D:\KEIL_V4_C51\C51\BIN\BL51.EXE STARTUP.obj, main.obj TO test RAMSIZE (256)


MEMORY MODEL: SMALL


INPUT MODULES INCLUDED:
  STARTUP.obj (?C_STARTUP)
  main.obj (MAIN)
  D:\KEIL_V4_C51\C51\LIB\C51S.LIB (?C_INIT)
  D:\KEIL_V4_C51\C51\LIB\C51S.LIB (?C?UIDIV)


LINK MAP OF MODULE:  test (?C_STARTUP)


            TYPE    BASE      LENGTH    RELOCATION   SEGMENT NAME
            -----------------------------------------------------

            * * * * * * *   D A T A   M E M O R Y   * * * * * * *
            REG     0000H     0008H     ABSOLUTE     "REG BANK 0"
            DATA    0008H     0011H     UNIT         ?DT?MAIN
            IDATA   0019H     0001H     UNIT         ?STACK

            * * * * * * *   C O D E   M E M O R Y   * * * * * * *
            CODE    0000H     0003H     ABSOLUTE     
                    0003H     0008H                  *** GAP ***
            CODE    000BH     0003H     ABSOLUTE     
                    000EH     000DH                  *** GAP ***
            CODE    001BH     0003H     ABSOLUTE     
            CODE    001EH     008CH     UNIT         ?C_C51STARTUP
            CODE    00AAH     0063H     UNIT         ?PR?DIGITRON_SCAN?MAIN
            CODE    010DH     0055H     UNIT         ?C?LIB_CODE
            CODE    0162H     0038H     UNIT         ?PR?KEY_SCAN?MAIN
            CODE    019AH     002EH     UNIT         ?PR?TIME1_HANDLER?MAIN
            CODE    01C8H     002DH     UNIT         ?PR?TIME0_HANDLER?MAIN
            CODE    01F5H     001CH     UNIT         ?C_INITSEG
            CODE    0211H     0013H     UNIT         ?PR?TIME0_INIT?MAIN
            CODE    0224H     0013H     UNIT         ?PR?TIME1_INIT?MAIN
            CODE    0237H     0011H     UNIT         ?PR?MAIN?MAIN
            CODE    0248H     000FH     UNIT         ?PR?DELAY?MAIN



OVERLAY MAP OF MODULE:   test (?C_STARTUP)


SEGMENT
  +--> CALLED SEGMENT
---------------------
?C_C51STARTUP
  +--> ?PR?MAIN?MAIN
  +--> ?C_INITSEG

?PR?MAIN?MAIN
  +--> ?PR?TIME0_INIT?MAIN
  +--> ?PR?TIME1_INIT?MAIN
BL51 BANKED LINKER/LOCATER V6.22                                                      12/19/2016  16:20:13  PAGE 2


  +--> ?PR?KEY_SCAN?MAIN

?PR?KEY_SCAN?MAIN
  +--> ?PR?DELAY?MAIN

*** NEW ROOT ***************************************************

?PR?TIME0_HANDLER?MAIN
  +--> ?PR?DIGITRON_SCAN?MAIN



SYMBOL TABLE OF MODULE:  test (?C_STARTUP)

  VALUE           TYPE          NAME
  ----------------------------------

  -------         MODULE        ?C_STARTUP
  C:001EH         SEGMENT       ?C_C51STARTUP
  I:0019H         SEGMENT       ?STACK
  C:0000H         PUBLIC        ?C_STARTUP
  D:00E0H         SYMBOL        ACC
  D:00F0H         SYMBOL        B
  D:0083H         SYMBOL        DPH
  D:0082H         SYMBOL        DPL
  N:0000H         SYMBOL        IBPSTACK
  N:0100H         SYMBOL        IBPSTACKTOP
  N:0080H         SYMBOL        IDATALEN
  C:0021H         SYMBOL        IDATALOOP
  N:0000H         SYMBOL        PBPSTACK
  N:0100H         SYMBOL        PBPSTACKTOP
  N:0000H         SYMBOL        PDATALEN
  N:0000H         SYMBOL        PDATASTART
  N:0000H         SYMBOL        PPAGE
  N:0000H         SYMBOL        PPAGEENABLE
  D:00A0H         SYMBOL        PPAGE_SFR
  D:0081H         SYMBOL        SP
  C:001EH         SYMBOL        STARTUP1
  N:0000H         SYMBOL        XBPSTACK
  N:0000H         SYMBOL        XBPSTACKTOP
  N:0000H         SYMBOL        XDATALEN
  N:0000H         SYMBOL        XDATASTART
  C:0000H         LINE#         126
  C:001EH         LINE#         133
  C:0020H         LINE#         134
  C:0021H         LINE#         135
  C:0022H         LINE#         136
  C:0024H         LINE#         185
  C:0027H         LINE#         196
  -------         ENDMOD        ?C_STARTUP

  -------         MODULE        MAIN
  C:0000H         SYMBOL        _ICE_DUMMY_
  D:0080H         PUBLIC        P0
  D:0090H         PUBLIC        P1
  D:00A0H         PUBLIC        P2
  D:00B0H         PUBLIC        P3
BL51 BANKED LINKER/LOCATER V6.22                                                      12/19/2016  16:20:13  PAGE 3


  C:01C8H         PUBLIC        Time0_handler
  C:019AH         PUBLIC        Time1_handler
  B:00A8H.7       PUBLIC        EA
  D:00A8H         PUBLIC        IE
  C:0248H         PUBLIC        delay
  D:00B8H         PUBLIC        IP
  D:0009H         PUBLIC        s1
  C:0237H         PUBLIC        main
  D:000BH         PUBLIC        display_num
  D:0098H         PUBLIC        SCON
  D:0089H         PUBLIC        TMOD
  D:0088H         PUBLIC        TCON
  C:0211H         PUBLIC        Time0_Init
  C:0224H         PUBLIC        Time1_Init
  B:00B0H.5       PUBLIC        LE1
  D:000DH         PUBLIC        ms10
  B:00A8H.1       PUBLIC        ET0
  B:00A8H.3       PUBLIC        ET1
  D:008CH         PUBLIC        TH0
  D:008DH         PUBLIC        TH1
  D:008AH         PUBLIC        TL0
  D:000FH         PUBLIC        num
  D:008BH         PUBLIC        TL1
  C:0162H         PUBLIC        key_scan
  B:00B0H.7       PUBLIC        cs
  B:0088H.4       PUBLIC        TR0
  B:0088H.6       PUBLIC        TR1
  D:00C8H         PUBLIC        T2CON
  B:00B0H.6       PUBLIC        wr
  C:00AAH         PUBLIC        digitron_scan
  D:00D0H         PUBLIC        PSW
  B:00A0H.5       PUBLIC        K1
  B:00A0H.6       PUBLIC        K2
  B:00A0H.7       PUBLIC        K3
  -------         PROC          TIME0_INIT
  C:0211H         LINE#         23
  C:0211H         LINE#         24
  C:0211H         LINE#         25
  C:0214H         LINE#         26
  C:0217H         LINE#         27
  C:021AH         LINE#         28
  C:021DH         LINE#         30
  C:021FH         LINE#         31
  C:0221H         LINE#         32
  C:0223H         LINE#         33
  -------         ENDPROC       TIME0_INIT
  -------         PROC          TIME1_INIT
  C:0224H         LINE#         38
  C:0224H         LINE#         39
  C:0224H         LINE#         40
  C:0227H         LINE#         41
  C:022AH         LINE#         42
  C:022DH         LINE#         43
  C:0230H         LINE#         45
  C:0232H         LINE#         46
  C:0234H         LINE#         47
  C:0236H         LINE#         48
BL51 BANKED LINKER/LOCATER V6.22                                                      12/19/2016  16:20:13  PAGE 4


  -------         ENDPROC       TIME1_INIT
  -------         PROC          DIGITRON_SCAN
  -------         DO            
  D:0008H         SYMBOL        dula
  -------         ENDDO         
  C:00AAH         LINE#         53
  C:00AAH         LINE#         54
  C:00AAH         LINE#         57
  C:00B0H         LINE#         58
  C:00B5H         LINE#         59
  C:00B8H         LINE#         61
  C:00BBH         LINE#         62
  C:00C0H         LINE#         63
  C:00D2H         LINE#         64
  C:00D2H         LINE#         65
  C:00D2H         LINE#         66
  C:00D6H         LINE#         67
  C:00D8H         LINE#         69
  C:00D8H         LINE#         70
  C:00ECH         LINE#         71
  C:00EDH         LINE#         73
  C:00EDH         LINE#         74
  C:00F8H         LINE#         75
  C:00FAH         LINE#         77
  C:00FAH         LINE#         78
  C:010CH         LINE#         79
  C:010CH         LINE#         80
  C:010CH         LINE#         83
  -------         ENDPROC       DIGITRON_SCAN
  -------         PROC          DELAY
  -------         DO            
  D:0006H         SYMBOL        x
  -------         ENDDO         
  C:0248H         LINE#         86
  C:0248H         LINE#         87
  C:0248H         LINE#         88
  C:024CH         LINE#         89
  C:0256H         LINE#         90
  -------         ENDPROC       DELAY
  -------         PROC          KEY_SCAN
  C:0162H         LINE#         102
  C:0162H         LINE#         103
  C:0162H         LINE#         104
  C:0165H         LINE#         105
  C:0165H         LINE#         106
  C:0168H         LINE#         107
  C:016BH         LINE#         108
  C:016BH         LINE#         109
  C:016DH         LINE#         110
  C:016DH         LINE#         111
  C:0172H         LINE#         113
  C:0175H         LINE#         114
  C:0175H         LINE#         115
  C:0178H         LINE#         116
  C:017BH         LINE#         117
  C:017BH         LINE#         118
  C:017DH         LINE#         119
BL51 BANKED LINKER/LOCATER V6.22                                                      12/19/2016  16:20:13  PAGE 5


  C:017DH         LINE#         120
  C:0182H         LINE#         122
  C:0185H         LINE#         123
  C:0185H         LINE#         124
  C:0188H         LINE#         125
  C:018BH         LINE#         126
  C:018BH         LINE#         127
  C:018DH         LINE#         128
  C:0192H         LINE#         129
  C:0196H         LINE#         130
  C:0196H         LINE#         131
  C:0199H         LINE#         132
  C:0199H         LINE#         133
  -------         ENDPROC       KEY_SCAN
  -------         PROC          MAIN
  C:0237H         LINE#         135
  C:0237H         LINE#         136
  C:0237H         LINE#         137
  C:023AH         LINE#         138
  C:023DH         LINE#         139
  C:023FH         LINE#         140
  C:0241H         LINE#         141
  C:0243H         LINE#         143
  C:0243H         LINE#         144
  C:0243H         LINE#         146
  C:0246H         LINE#         147
  -------         ENDPROC       MAIN
  -------         PROC          TIME0_HANDLER
  C:01C8H         LINE#         153
  C:01DBH         LINE#         155
  C:01DEH         LINE#         156
  C:01E1H         LINE#         158
  C:01E4H         LINE#         161
  -------         ENDPROC       TIME0_HANDLER
  -------         PROC          TIME1_HANDLER
  C:019AH         LINE#         163
  C:019EH         LINE#         165
  C:01A1H         LINE#         166
  C:01A4H         LINE#         168
  C:01ACH         LINE#         169
  C:01B5H         LINE#         170
  C:01B5H         LINE#         171
  C:01BBH         LINE#         172
  C:01C3H         LINE#         173
  C:01C3H         LINE#         174
  -------         ENDPROC       TIME1_HANDLER
  -------         ENDMOD        MAIN

  -------         MODULE        ?C?UIDIV
  C:010DH         PUBLIC        ?C?UIDIV
  -------         ENDMOD        ?C?UIDIV

Program Size: data=26.0 xdata=0 code=578
LINK/LOCATE RUN COMPLETE.  0 WARNING(S),  0 ERROR(S)
