:03000000020CA14E
:0C0CA100787FE4F6D8FD758120020CE895
:10080000FC60DAF266B6BEE0FEF6CEEC3F065B4F69
:10081000666D7D077F6F7337A6A6A7A8A9AAABABA5
:10082000ACADAEAEAFB0B1B1B2B3B3B4B5B5B6B6B0
:10083000B7B8B8B9B9BABABBBBBCBCBDBDBEBEBF08
:10084000BFC0C0C1C1C1C2C2C3C3C4C4C4C5C5C581
:10085000C6C6C7C7C7C8C8C8C9C9C9CACACACBCB10
:10086000CBCBCCCCCCCDCDCDCECECECECFCFCFCFB3
:10087000D0D0D0D0D1D1D1D1D2D2D2D2D3D3D3D360
:10088000D3D4D4D4D4D4D5D5D5D5D5D6D6D6D6D61A
:10089000D7D7D7D7D7D8D8D8D8D8D8D9D9D9D9D9D8
:1008A000D9DADADADADADADADBDBDBDBDBDBDCDC9F
:1008B000DCDCDCDCDCDCDDDDDDDDDDDDDDDEDEDE6B
:1008C000DEDEDEDEDEDFDFDFDFDFDFDFDFDFE0E03B
:1008D000E0E0E0E0E0E0E0E1E1E1E1E1E1E1E1E10F
:1008E000E200E4C49F764918E3AB6E2FEBA55B0DE5
:1008F000BD6A14BB5F009F3BD46B009222B03CC525
:100900004CD155D655D34EC840B72C9F1080EE5BC6
:10091000C730990066CA2D8FEF4FAD0A65C01972B6
:10092000C91F74C81C6EBF0F5EADFA4792DD2770F9
:10093000B800478DD2165A9DDF2162A2E1205E9C4D
:10094000D915518CC6003972AAE2195086BBF02520
:10095000598CBFF2245586B7E7174776A4D2002DED
:100960005A87B3DF0A35608AB4DD062F5880A8CFD6
:10097000F71D446A90B6DB0025496D91B5D8FB1E82
:10098000406284A6C8E90A2A4B6B8BABCAE90827E8
:10099000466482A0BEDBF916334F6C88A4C0DCF736
:0A09A000122E49637E98B2CCE600E7
:0F103000011100011300011200011400010D0055
:0F101000E4FFE4FE0EEED394C840F90FBF19F3CE
:01101F0022AE
:100E4300E50F75F00AA4FDACF0E50E75F064A42D72
:100E5300FFE5F03CFE7C00EF2510F51BEC3EF51A98
:100E6300E4F518F519AE1AAF1B7C007D181209AA18
:100E7300AB07AA06E4F9F87F607EEAFD120F6CE483
:100E83007B05FAF9F8120A11A804A905AA06AB070B
:100E9300AE18AF19E4FCFDC3120A604013E4FF0F60
:100EA300EFD394C840F90519E51970B9051880B551
:010EB300221C
:06102000F583E493F58066
:09102600E4FF0FEFD394C840F978
:01102F00229E
:100EB400E50EFD7C00E50FFB7A00751D0085101E14
:020EC400AF0D70
:100EC600C2B4D2B5D2B6D2B7EF90080C93F5801261
:100ED6001026D2B4C2B5D2B6D2B7740C2DF5827430
:100EE600083C121020D2B4D2B5C2B6D2B7740C2BBD
:100EF600F58274083A121020D2B4D2B5D2B6C2B76F
:100F0600740C251EF5827408351D121020D2B4D239
:080F1600B5D2B6D2B77F00226C
:100FF90012101075900FA99012101075900FA990EA
:06100900120EB4B90FF253
:01100F0022BE
:100B4400E4FD75900FAF90EF640F7003020BFF127A
:100B54001010AF90EF640F7003020BFF7590F0AEAE
:100B640090BF0E1FEE2450600D24E0600E246070D0
:100B74000E7D01020BFF7D02020BFF7D03807CE4EE
:100B8400FD8078BF0D25EE2450601024E060102411
:100B9400F06010247070107D0480607D05805C7DA1
:100BA4000680587D0F8054E4FD8050BF0B25EE2451
:100BB40050601024E0601024F06010247070107DE8
:100BC4000780387D0880347D0980307D0C802CE4DA
:100BD400FD8028BF0725AF06EE2450601024E06096
:100BE4001024F06010247070107D0A800E7D0E8039
:0D0BF4000A7D0B80067D0D8002E4FDAF053B
:010C010022D0
:09104D00C2B0A20092B1D2B0229F
:100F1E00C2B0EF9008009333920012104DEF93A2DF
:100F2E00E6920012104DEF93A2E5920012104DEFD3
:100F3E0093A2E4920012104DEF93A2E392001210CE
:100F4E004DEF93A2E2920012104DEF93A2E19200A8
:0E0F5E0012104DEF9313920012104DC2B022EC
:03000B00020DB92A
:100DB900C0E0C0F0C083C082C0D075D000C000C000
:100DC90004C005C006C007E50F75F00AA4FDACF024
:100DD900E50E75F064A42DFFE5F03CFE7C00EF25DF
:100DE90010FFEC3EFE74B42FF58274073EF583E4E0
:100DF90093F58C747D2FF58274083EF583E493F5A1
:100E09008AE50DB40A0DAFA07801EF08800123D857
:100E1900FDF5A0E50DB40B0DAFA07801EF08800139
:100E290003D8FDF5A0D007D006D005D004D000D056
:0A0E3900D0D082D083D0F0D0E03298
:03001B00020D2DA6
:100D2D00C0E0C0F0C083C082C0D075D000C000C08C
:100D3D0004C005C006C007758D4C758B00E50C70A1
:100D4D0054750C14AE08AF09FC7D0A1209AA8E0A5F
:100D5D008F0B7508007509007D641209BC8F12AEEA
:100D6D000AAF0B7C007D641209BCAF058F13E51330
:100D7D0075F00A84F5138F11E51175F00A8485F06D
:100D8D0011AF11120F1EAF13120F1EAF12120F1E45
:100D9D00AF14120F1E150CD007D006D005D004D0FD
:0C0DAD0000D0D0D082D083D0F0D0E03253
:03000300021040A8
:0D104000C0E00509E50970020508D0E032A6
:100FB000D2AFD2A9D2ABD2A8D288C28CD28E90089E
:100FC00018E493F58C9008E1E493F58A758D4CE470
:0E0FD000F58B758911D2B975A0EE750D0A2248
:100FDE00E50EC394034008750E03E4F50FF510E516
:0B0FEE000E7007750E01F50FF51022C4
:100C0200E4F515120FB0120B448F15E515B40F1150
:100C120020B20E120E4320B30575140A8003751418
:100C22000BE515640C7072C28C751601E515640D26
:100C3200605D120B448F15E515B40C037516011295
:100C42000B448F17E517C3940A5018E51694035006
:100C520012E5179400400C740D2516F8A617051618
:100C6200120FF9E517B40A06750D0A120FF9E51706
:100C7200B40B06750D0B120FF9E517B40E0C740DBB
:100C82002516F8E4F60516120FF9120EB4809D121D
:0F0C92000FDEE515B40D02D28C120EB4020C0861
:100CAD00020C02E493A3F8E493A34003F68001F24F
:100CBD0008DFF48029E493A3F85407240CC8C33348
:100CCD00C4540F4420C8834004F456800146F6DF17
:100CDD00E4800B0102040810204080901030E47E67
:100CED00019360BCA3FF543F30E509541FFEE4930C
:100CFD00A360010ECF54C025E060A840B8E493A3D3
:100D0D00FAE493A3F8E493A3C8C582C8CAC583CAFD
:100D1D00F0A3C8C582C8CAC583CADFE9DEE780BEB5
:01103F0000B0
:1009AA00EF8DF0A4A8F0CF8CF0A428CE8DF0A42E61
:0209BA00FE221B
:1009BC00BC000BBE0029EF8DF084FFADF022E4CC1F
:1009CC00F875F008EF2FFFEE33FEEC33FCEE9DECE8
:1009DC00984005FCEE9DFE0FD5F0E9E4CEFD22ED2E
:1009EC00F8F5F0EE8420D21CFEADF075F008EF2F78
:1009FC00FFED33FD4007985006D5F0F222C398FD69
:050A0C000FD5F0EA2205
:100A1100E88FF0A4CC8BF0A42CFCE98EF0A42CFC84
:100A21008AF0EDA42CFCEA8EF0A4CDA8F08BF0A402
:100A31002DCC3825F0FDE98FF0A42CCD35F0FCEB61
:100A41008EF0A4FEA9F0EB8FF0A4CFC5F02ECD3926
:0F0A5100FEE43CFCEAA42DCE35F0FDE43CFC2293
:100F6C00C2D5E830E70FB2D5E4C39BFBE49AFAE4B0
:100F7C0099F9E498F8EC30E717B2D5120FA2120ADF
:100F8C00B2E4C39BFBE49AFAE499F9E498F8800381
:100F9C00120AB230D50DE4C39FFFE49EFEE49DFD22
:040FAC00E49CFC22A3
:100A6000EB9FF5F0EA9E42F0E99D42F0EC6480C80D
:060A700064809845F022AD
:100A760075F008758200EF2FFFEE33FECD33CDCC37
:100A860033CCC58233C5829BED9AEC99E5829840BA
:100A96000CF582EE9BFEED9AFDEC99FC0FD5F0D697
:100AA600E4CEFBE4CDFAE4CCF9A88222B800C1B9C1
:100AB6000059BA002DEC8BF084CFCECDFCE5F0CBFF
:100AC600F97818EF2FFFEE33FEED33FDEC33FCEB38
:100AD60033FB10D703994004EB99FB0FD8E5E4F9F3
:100AE600FA227818EF2FFFEE33FEED33FDEC33FCE0
:100AF600C933C910D7059BE99A4007EC9BFCE99AD4
:100B0600F90FD8E0E4C9FAE4CCFB2275F010EF2F18
:100B1600FFEE33FEED33FDCC33CCC833C810D70718
:100B26009BEC9AE899400AED9BFDEC9AFCE899F853
:0E0B36000FD5F0DAE4CDFBE4CCFAE4C8F922E6
:00000001FF
